{
  "contractName": "LibraryDemo",
  "abi": [
    {
      "constant": true,
      "inputs": [],
      "name": "subResult",
      "outputs": [
        {
          "name": "",
          "type": "uint256"
        }
      ],
      "payable": false,
      "stateMutability": "view",
      "type": "function"
    },
    {
      "constant": true,
      "inputs": [],
      "name": "mulResult",
      "outputs": [
        {
          "name": "",
          "type": "uint256"
        }
      ],
      "payable": false,
      "stateMutability": "view",
      "type": "function"
    },
    {
      "constant": true,
      "inputs": [],
      "name": "modResult",
      "outputs": [
        {
          "name": "",
          "type": "uint256"
        }
      ],
      "payable": false,
      "stateMutability": "view",
      "type": "function"
    },
    {
      "constant": true,
      "inputs": [],
      "name": "addResult",
      "outputs": [
        {
          "name": "",
          "type": "uint256"
        }
      ],
      "payable": false,
      "stateMutability": "view",
      "type": "function"
    },
    {
      "constant": true,
      "inputs": [],
      "name": "divResult",
      "outputs": [
        {
          "name": "",
          "type": "uint256"
        }
      ],
      "payable": false,
      "stateMutability": "view",
      "type": "function"
    },
    {
      "constant": false,
      "inputs": [
        {
          "name": "a",
          "type": "uint256"
        },
        {
          "name": "b",
          "type": "uint256"
        }
      ],
      "name": "multiply",
      "outputs": [],
      "payable": false,
      "stateMutability": "nonpayable",
      "type": "function"
    },
    {
      "constant": false,
      "inputs": [
        {
          "name": "a",
          "type": "uint256"
        },
        {
          "name": "b",
          "type": "uint256"
        }
      ],
      "name": "divide",
      "outputs": [],
      "payable": false,
      "stateMutability": "nonpayable",
      "type": "function"
    },
    {
      "constant": false,
      "inputs": [
        {
          "name": "a",
          "type": "uint256"
        },
        {
          "name": "b",
          "type": "uint256"
        }
      ],
      "name": "add",
      "outputs": [],
      "payable": false,
      "stateMutability": "nonpayable",
      "type": "function"
    },
    {
      "constant": false,
      "inputs": [
        {
          "name": "a",
          "type": "uint256"
        },
        {
          "name": "b",
          "type": "uint256"
        }
      ],
      "name": "subtract",
      "outputs": [],
      "payable": false,
      "stateMutability": "nonpayable",
      "type": "function"
    },
    {
      "constant": false,
      "inputs": [
        {
          "name": "a",
          "type": "uint256"
        },
        {
          "name": "b",
          "type": "uint256"
        }
      ],
      "name": "modulo",
      "outputs": [],
      "payable": false,
      "stateMutability": "nonpayable",
      "type": "function"
    }
  ],
  "bytecode": "0x608060405234801561001057600080fd5b5061043d806100206000396000f3006080604052600436106100a4576000357c0100000000000000000000000000000000000000000000000000000000900463ffffffff1680630a9412bd146100a9578063165c4a16146100d45780633ef5e4451461010b578063425fbb6814610142578063439c6a791461016d578063533a88b314610198578063771602f7146101c35780639e542610146101fa578063baaf073d14610225578063f88e9fbf1461025c575b600080fd5b3480156100b557600080fd5b506100be610293565b6040518082815260200191505060405180910390f35b3480156100e057600080fd5b506101096004803603810190808035906020019092919080359060200190929190505050610299565b005b34801561011757600080fd5b5061014060048036038101908080359060200190929190803590602001909291905050506102b6565b005b34801561014e57600080fd5b506101576102d3565b6040518082815260200191505060405180910390f35b34801561017957600080fd5b506101826102d9565b6040518082815260200191505060405180910390f35b3480156101a457600080fd5b506101ad6102df565b6040518082815260200191505060405180910390f35b3480156101cf57600080fd5b506101f860048036038101908080359060200190929190803590602001909291905050506102e5565b005b34801561020657600080fd5b5061020f610302565b6040518082815260200191505060405180910390f35b34801561023157600080fd5b5061025a6004803603810190808035906020019092919080359060200190929190505050610308565b005b34801561026857600080fd5b506102916004803603810190808035906020019092919080359060200190929190505050610325565b005b60035481565b6102ac818361034290919063ffffffff16565b6000819055505050565b6102c9818361038090919063ffffffff16565b6003819055505050565b60005481565b60045481565b60025481565b6102f881836103a190919063ffffffff16565b6002819055505050565b60015481565b61031b81836103c290919063ffffffff16565b6004819055505050565b61033881836103e790919063ffffffff16565b6001819055505050565b60008060008414156103575760009150610379565b828402905082848281151561036857fe5b0414151561037557600080fd5b8091505b5092915050565b60008083831115151561039257600080fd5b82840390508091505092915050565b60008082840190508381101515156103b857600080fd5b8091505092915050565b60008082141515156103d357600080fd5b81838115156103de57fe5b06905092915050565b6000806000831115156103f957600080fd5b828481151561040457fe5b04905080915050929150505600a165627a7a72305820fbfa48de80267e4b43b7a84cb633116e65d0d210af6d6d7bea4494885e99d4680029",
  "source": "pragma solidity ^0.4.24;\nimport './SafeMath.sol';\n\n/**\n * @title Library Demo\n * @dev Using SafeMath as a library\n */\n contract LibraryDemo {\n     using SafeMath for uint256;\n\n    /**@dev result of multiplication */\n     uint256 public mulResult;\n    \n    /**@dev result of division */\n     uint256 public divResult;\n    \n    /**@dev result of addition */\n     uint256 public addResult;\n    \n    /**@dev result of subtraction */\n     uint256 public subResult;\n    \n    /**@dev result of modulo */\n     uint256 public modResult;\n\n    /** Multiply two integers using SafeMath\n    *@param a Integer to be multiplied\n    *@param b Integer to be multiplied\n    */\n     function multiply(uint a, uint b) public {\n        mulResult = a.mul(b);\n     }\n\n    /** Divide two integers using SafeMath\n    *@param a Integer to be divided\n    *@param b Integer to be divided\n    */\n     function divide(uint a, uint b) public {\n        divResult = a.div(b);\n     }\n\n    /** Add two integers using SafeMath\n    *@param a Integer to be added\n    *@param b Integer to be added\n    */\n     function add(uint a, uint b) public {\n        addResult = a.add(b);\n     }\n\n    /** Subtract two integers using SafeMath\n    *@param a Integer to be subtracted\n    *@param b Integer to be subtracted\n    */\n     function subtract(uint a, uint b) public {\n        subResult = a.sub(b);\n     }\n\n    /** Find the modulo of two integers using SafeMath\n    *@param a Integer\n    *@param b Integer\n    */\n     function modulo(uint a, uint b) public {\n        modResult = a.mod(b);\n     }\n }",
  "sourcePath": "/Users/rshyong/Solidity/online_marketplace/contracts/LibraryDemo.sol",
  "compiler": {
    "name": "solc",
    "version": "0.4.24+commit.e67f0147.Emscripten.clang"
  },
  "schemaVersion": "2.0.1",
  "updatedAt": "2018-08-28T00:08:49.997Z"
}