{
  "contractName": "OnlineMarketplace",
  "abi": [
    {
      "inputs": [],
      "payable": false,
      "stateMutability": "nonpayable",
      "type": "constructor"
    },
    {
      "payable": false,
      "stateMutability": "nonpayable",
      "type": "fallback"
    },
    {
      "anonymous": false,
      "inputs": [
        {
          "indexed": true,
          "name": "_address",
          "type": "address"
        }
      ],
      "name": "newOwner",
      "type": "event"
    },
    {
      "constant": false,
      "inputs": [
        {
          "name": "_address",
          "type": "address"
        }
      ],
      "name": "addOwner",
      "outputs": [],
      "payable": false,
      "stateMutability": "nonpayable",
      "type": "function"
    },
    {
      "constant": false,
      "inputs": [
        {
          "name": "_address",
          "type": "address"
        }
      ],
      "name": "isOwner",
      "outputs": [
        {
          "name": "",
          "type": "bool"
        }
      ],
      "payable": false,
      "stateMutability": "nonpayable",
      "type": "function"
    }
  ],
  "bytecode": "0x608060405234801561001057600080fd5b50336000806101000a81548173ffffffffffffffffffffffffffffffffffffffff021916908373ffffffffffffffffffffffffffffffffffffffff16021790555061021b806100606000396000f30060806040526004361061004c576000357c0100000000000000000000000000000000000000000000000000000000900463ffffffff1680632f54bf6e1461005e5780637065cb48146100b9575b34801561005857600080fd5b50600080fd5b34801561006a57600080fd5b5061009f600480360381019080803573ffffffffffffffffffffffffffffffffffffffff1690602001909291905050506100fc565b604051808215151515815260200191505060405180910390f35b3480156100c557600080fd5b506100fa600480360381019080803573ffffffffffffffffffffffffffffffffffffffff169060200190929190505050610152565b005b6000600160008373ffffffffffffffffffffffffffffffffffffffff1673ffffffffffffffffffffffffffffffffffffffff16815260200190815260200160002060009054906101000a900460ff169050919050565b8073ffffffffffffffffffffffffffffffffffffffff167f8595245435170930a21ed26c79efd78952513e5f85ae3d411a586ab25df17bb360405160405180910390a260018060008373ffffffffffffffffffffffffffffffffffffffff1673ffffffffffffffffffffffffffffffffffffffff16815260200190815260200160002060006101000a81548160ff021916908315150217905550505600a165627a7a723058205c698e68ce663f95d98a1ae0878e86633e3d3a0df5c38e79025caf200db78c200029",
  "source": "pragma solidity ^0.4.17;\n\ncontract OnlineMarketplace {\n  address private admin;\n\n  /** List of store owners */\n  mapping (address => bool) storeOwners;\n\n  event newOwner(address indexed _address);\n\n  constructor() public {\n    admin = msg.sender;\n  }\n\n  function addOwner(address _address) public {\n    emit newOwner(_address);\n    storeOwners[_address] = true;\n  }\n\n  function isOwner(address _address) public returns(bool) {\n    return storeOwners[_address];\n  }\n\n  function() {\n    revert();\n  }\n}",
  "sourcePath": "/Users/rshyong/Solidity/online_marketplace/contracts/OnlineMarketplace.sol",
  "compiler": {
    "name": "solc",
    "version": "0.4.24+commit.e67f0147.Emscripten.clang"
  },
  "schemaVersion": "2.0.1",
  "updatedAt": "2018-08-22T03:47:03.193Z"
}