{
  "contractName": "OnlineMarketplace",
  "abi": [
    {
      "inputs": [],
      "payable": false,
      "stateMutability": "nonpayable",
      "type": "constructor"
    },
    {
      "payable": false,
      "stateMutability": "nonpayable",
      "type": "fallback"
    },
    {
      "constant": false,
      "inputs": [
        {
          "name": "newOwner",
          "type": "address"
        }
      ],
      "name": "addOwner",
      "outputs": [],
      "payable": false,
      "stateMutability": "nonpayable",
      "type": "function"
    },
    {
      "constant": false,
      "inputs": [
        {
          "name": "_address",
          "type": "address"
        }
      ],
      "name": "isOwner",
      "outputs": [
        {
          "name": "",
          "type": "bool"
        }
      ],
      "payable": false,
      "stateMutability": "nonpayable",
      "type": "function"
    }
  ],
  "bytecode": "0x608060405234801561001057600080fd5b50336000806101000a81548173ffffffffffffffffffffffffffffffffffffffff021916908373ffffffffffffffffffffffffffffffffffffffff1602179055506101d8806100606000396000f30060806040526004361061004c576000357c0100000000000000000000000000000000000000000000000000000000900463ffffffff1680632f54bf6e1461005e5780637065cb48146100b9575b34801561005857600080fd5b50600080fd5b34801561006a57600080fd5b5061009f600480360381019080803573ffffffffffffffffffffffffffffffffffffffff1690602001909291905050506100fc565b604051808215151515815260200191505060405180910390f35b3480156100c557600080fd5b506100fa600480360381019080803573ffffffffffffffffffffffffffffffffffffffff169060200190929190505050610152565b005b6000600160008373ffffffffffffffffffffffffffffffffffffffff1673ffffffffffffffffffffffffffffffffffffffff16815260200190815260200160002060009054906101000a900460ff169050919050565b60018060008373ffffffffffffffffffffffffffffffffffffffff1673ffffffffffffffffffffffffffffffffffffffff16815260200190815260200160002060006101000a81548160ff021916908315150217905550505600a165627a7a723058202d594e7e6da0b89f4e8b5ac14ee86d51580f66099dba7abacdf5c1fa391ee27c0029",
  "source": "pragma solidity ^0.4.17;\n\ncontract OnlineMarketplace {\n  address private admin;\n\n  /** List of store owners */\n  mapping (address => bool) storeOwners;\n\n  constructor() public {\n    admin = msg.sender;\n  }\n\n  function addOwner(address newOwner) public {\n    storeOwners[newOwner] = true;\n  }\n\n  function isOwner(address _address) public returns(bool) {\n    return storeOwners[_address];\n  }\n\n  function() {\n    revert();\n  }\n}",
  "sourcePath": "/Users/rshyong/Solidity/online_marketplace/contracts/OnlineMarketplace.sol",
  "compiler": {
    "name": "solc",
    "version": "0.4.24+commit.e67f0147.Emscripten.clang"
  },
  "schemaVersion": "2.0.1",
  "updatedAt": "2018-08-20T02:00:11.845Z"
}