{
  "contractName": "OnlineMarketplace",
  "abi": [
    {
      "constant": true,
      "inputs": [
        {
          "name": "",
          "type": "address"
        }
      ],
      "name": "numStoreFronts",
      "outputs": [
        {
          "name": "",
          "type": "uint256"
        }
      ],
      "payable": false,
      "stateMutability": "view",
      "type": "function"
    },
    {
      "constant": true,
      "inputs": [
        {
          "name": "",
          "type": "uint256"
        }
      ],
      "name": "storeOwners",
      "outputs": [
        {
          "name": "",
          "type": "address"
        }
      ],
      "payable": false,
      "stateMutability": "view",
      "type": "function"
    },
    {
      "constant": true,
      "inputs": [
        {
          "name": "",
          "type": "address"
        },
        {
          "name": "",
          "type": "uint256"
        }
      ],
      "name": "storeFronts",
      "outputs": [
        {
          "name": "name",
          "type": "string"
        },
        {
          "name": "ipfsHash",
          "type": "string"
        },
        {
          "name": "funds",
          "type": "uint256"
        },
        {
          "name": "numProducts",
          "type": "uint256"
        }
      ],
      "payable": false,
      "stateMutability": "view",
      "type": "function"
    },
    {
      "constant": true,
      "inputs": [],
      "name": "stopped",
      "outputs": [
        {
          "name": "",
          "type": "bool"
        }
      ],
      "payable": false,
      "stateMutability": "view",
      "type": "function"
    },
    {
      "constant": true,
      "inputs": [
        {
          "name": "",
          "type": "address"
        }
      ],
      "name": "storeOwnersAddress",
      "outputs": [
        {
          "name": "",
          "type": "bool"
        }
      ],
      "payable": false,
      "stateMutability": "view",
      "type": "function"
    },
    {
      "constant": true,
      "inputs": [],
      "name": "numStoreOwners",
      "outputs": [
        {
          "name": "",
          "type": "uint256"
        }
      ],
      "payable": false,
      "stateMutability": "view",
      "type": "function"
    },
    {
      "inputs": [],
      "payable": false,
      "stateMutability": "nonpayable",
      "type": "constructor"
    },
    {
      "payable": true,
      "stateMutability": "payable",
      "type": "fallback"
    },
    {
      "anonymous": false,
      "inputs": [
        {
          "indexed": true,
          "name": "_address",
          "type": "address"
        }
      ],
      "name": "EventNewOwner",
      "type": "event"
    },
    {
      "anonymous": false,
      "inputs": [
        {
          "indexed": true,
          "name": "_address",
          "type": "address"
        }
      ],
      "name": "EventDeleteOwner",
      "type": "event"
    },
    {
      "anonymous": false,
      "inputs": [
        {
          "indexed": false,
          "name": "_storeName",
          "type": "string"
        },
        {
          "indexed": false,
          "name": "_address",
          "type": "address"
        }
      ],
      "name": "EventNewStoreFront",
      "type": "event"
    },
    {
      "anonymous": false,
      "inputs": [
        {
          "indexed": true,
          "name": "_storeName",
          "type": "string"
        }
      ],
      "name": "EventDeleteStoreFront",
      "type": "event"
    },
    {
      "anonymous": false,
      "inputs": [
        {
          "indexed": false,
          "name": "_productName",
          "type": "string"
        }
      ],
      "name": "EventAddProduct",
      "type": "event"
    },
    {
      "anonymous": false,
      "inputs": [
        {
          "indexed": false,
          "name": "_productName",
          "type": "string"
        }
      ],
      "name": "EventDeleteProduct",
      "type": "event"
    },
    {
      "anonymous": false,
      "inputs": [
        {
          "indexed": false,
          "name": "_productName",
          "type": "string"
        }
      ],
      "name": "EventBuyProduct",
      "type": "event"
    },
    {
      "anonymous": false,
      "inputs": [
        {
          "indexed": false,
          "name": "_address",
          "type": "address"
        },
        {
          "indexed": false,
          "name": "_store",
          "type": "uint256"
        },
        {
          "indexed": false,
          "name": "_product",
          "type": "string"
        },
        {
          "indexed": false,
          "name": "_newPrice",
          "type": "uint256"
        },
        {
          "indexed": false,
          "name": "_productName",
          "type": "string"
        }
      ],
      "name": "EventChangePrice",
      "type": "event"
    },
    {
      "anonymous": false,
      "inputs": [
        {
          "indexed": false,
          "name": "_storeName",
          "type": "string"
        }
      ],
      "name": "EventWithdrawFunds",
      "type": "event"
    },
    {
      "constant": true,
      "inputs": [],
      "name": "isAdmin",
      "outputs": [
        {
          "name": "",
          "type": "bool"
        }
      ],
      "payable": false,
      "stateMutability": "view",
      "type": "function"
    },
    {
      "constant": false,
      "inputs": [],
      "name": "isEmergency",
      "outputs": [],
      "payable": false,
      "stateMutability": "nonpayable",
      "type": "function"
    },
    {
      "constant": false,
      "inputs": [],
      "name": "isSafe",
      "outputs": [],
      "payable": false,
      "stateMutability": "nonpayable",
      "type": "function"
    },
    {
      "constant": false,
      "inputs": [
        {
          "name": "_address",
          "type": "address"
        }
      ],
      "name": "addOwner",
      "outputs": [],
      "payable": false,
      "stateMutability": "nonpayable",
      "type": "function"
    },
    {
      "constant": false,
      "inputs": [
        {
          "name": "_index",
          "type": "uint256"
        }
      ],
      "name": "deleteOwner",
      "outputs": [],
      "payable": false,
      "stateMutability": "nonpayable",
      "type": "function"
    },
    {
      "constant": false,
      "inputs": [
        {
          "name": "_name",
          "type": "string"
        },
        {
          "name": "_ipfsHash",
          "type": "string"
        }
      ],
      "name": "addStoreFront",
      "outputs": [],
      "payable": false,
      "stateMutability": "nonpayable",
      "type": "function"
    },
    {
      "constant": false,
      "inputs": [
        {
          "name": "_index",
          "type": "uint256"
        }
      ],
      "name": "deleteStoreFront",
      "outputs": [],
      "payable": false,
      "stateMutability": "nonpayable",
      "type": "function"
    },
    {
      "constant": false,
      "inputs": [
        {
          "name": "_index",
          "type": "uint256"
        },
        {
          "name": "_name",
          "type": "string"
        },
        {
          "name": "_price",
          "type": "uint256"
        },
        {
          "name": "_quantity",
          "type": "uint256"
        },
        {
          "name": "_ipfsHash",
          "type": "string"
        }
      ],
      "name": "addProduct",
      "outputs": [],
      "payable": false,
      "stateMutability": "nonpayable",
      "type": "function"
    },
    {
      "constant": false,
      "inputs": [
        {
          "name": "_index",
          "type": "uint256"
        },
        {
          "name": "_num",
          "type": "string"
        }
      ],
      "name": "deleteProduct",
      "outputs": [],
      "payable": false,
      "stateMutability": "nonpayable",
      "type": "function"
    },
    {
      "constant": true,
      "inputs": [
        {
          "name": "_address",
          "type": "address"
        },
        {
          "name": "_index",
          "type": "uint256"
        },
        {
          "name": "_num",
          "type": "string"
        }
      ],
      "name": "getProduct",
      "outputs": [
        {
          "name": "",
          "type": "string"
        },
        {
          "name": "",
          "type": "uint256"
        },
        {
          "name": "",
          "type": "uint256"
        },
        {
          "name": "",
          "type": "string"
        }
      ],
      "payable": false,
      "stateMutability": "view",
      "type": "function"
    },
    {
      "constant": false,
      "inputs": [
        {
          "name": "_address",
          "type": "address"
        },
        {
          "name": "_index",
          "type": "uint256"
        },
        {
          "name": "_num",
          "type": "string"
        },
        {
          "name": "quantityToBuy",
          "type": "uint256"
        }
      ],
      "name": "buyProduct",
      "outputs": [],
      "payable": true,
      "stateMutability": "payable",
      "type": "function"
    },
    {
      "constant": false,
      "inputs": [
        {
          "name": "_index",
          "type": "uint256"
        },
        {
          "name": "_num",
          "type": "string"
        },
        {
          "name": "newPrice",
          "type": "uint256"
        }
      ],
      "name": "changePrice",
      "outputs": [],
      "payable": false,
      "stateMutability": "nonpayable",
      "type": "function"
    },
    {
      "constant": false,
      "inputs": [
        {
          "name": "_index",
          "type": "uint256"
        }
      ],
      "name": "withdrawFunds",
      "outputs": [],
      "payable": false,
      "stateMutability": "nonpayable",
      "type": "function"
    }
  ],
  "bytecode": "0x608060405260008060146101000a81548160ff021916908315150217905550600060015534801561002f57600080fd5b50336000806101000a81548173ffffffffffffffffffffffffffffffffffffffff021916908373ffffffffffffffffffffffffffffffffffffffff160217905550613a688061007f6000396000f300608060405260043610610107576000357c0100000000000000000000000000000000000000000000000000000000900463ffffffff1680630811f40114610109578063155dd5ee146101365780631719dda7146101635780631ac34de3146101f35780632a077c34146102705780633f99f5cd146102c757806344d50993146103765780635f9e8f82146103e3578063615feb1a146103fa5780636a276f9d1461053a5780637065cb481461055157806370ab5d721461059457806375f12b2114610607578063780dd0cf14610636578063a456703114610663578063b6db75a0146107e9578063e61cffed14610818578063fcbe5e61146108e5578063fdcce8ae14610940575b005b34801561011557600080fd5b506101346004803603810190808035906020019092919050505061096b565b005b34801561014257600080fd5b5061016160048036038101908080359060200190929190505050610d88565b005b6101f1600480360381019080803573ffffffffffffffffffffffffffffffffffffffff16906020019092919080359060200190929190803590602001908201803590602001908080601f0160208091040260200160405190810160405280939291908181526020018383808284378201915050505050509192919290803590602001909291905050506111e5565b005b3480156101ff57600080fd5b5061026e60048036038101908080359060200190929190803590602001908201803590602001908080601f016020809104026020016040519081016040528093929190818152602001838380828437820191505050505050919291929080359060200190929190505050611689565b005b34801561027c57600080fd5b506102b1600480360381019080803573ffffffffffffffffffffffffffffffffffffffff169060200190929190505050611b4e565b6040518082815260200191505060405180910390f35b3480156102d357600080fd5b50610374600480360381019080803590602001908201803590602001908080601f0160208091040260200160405190810160405280939291908181526020018383808284378201915050505050509192919290803590602001908201803590602001908080601f0160208091040260200160405190810160405280939291908181526020018383808284378201915050505050509192919290505050611b66565b005b34801561038257600080fd5b506103a160048036038101908080359060200190929190505050612047565b604051808273ffffffffffffffffffffffffffffffffffffffff1673ffffffffffffffffffffffffffffffffffffffff16815260200191505060405180910390f35b3480156103ef57600080fd5b506103f8612085565b005b34801561040657600080fd5b50610445600480360381019080803573ffffffffffffffffffffffffffffffffffffffff169060200190929190803590602001909291905050506120fd565b604051808060200180602001858152602001848152602001838103835287818151815260200191508051906020019080838360005b8381101561049557808201518184015260208101905061047a565b50505050905090810190601f1680156104c25780820380516001836020036101000a031916815260200191505b50838103825286818151815260200191508051906020019080838360005b838110156104fb5780820151818401526020810190506104e0565b50505050905090810190601f1680156105285780820380516001836020036101000a031916815260200191505b50965050505050505060405180910390f35b34801561054657600080fd5b5061054f612279565b005b34801561055d57600080fd5b50610592600480360381019080803573ffffffffffffffffffffffffffffffffffffffff1690602001909291905050506122f0565b005b3480156105a057600080fd5b5061060560048036038101908080359060200190929190803590602001908201803590602001908080601f01602080910402602001604051908101604052809392919081815260200183838082843782019150505050505091929192905050506124bc565b005b34801561061357600080fd5b5061061c6129dd565b604051808215151515815260200191505060405180910390f35b34801561064257600080fd5b50610661600480360381019080803590602001909291905050506129f0565b005b34801561066f57600080fd5b506106f4600480360381019080803573ffffffffffffffffffffffffffffffffffffffff16906020019092919080359060200190929190803590602001908201803590602001908080601f0160208091040260200160405190810160405280939291908181526020018383808284378201915050505050509192919290505050612be0565b604051808060200185815260200184815260200180602001838103835287818151815260200191508051906020019080838360005b83811015610744578082015181840152602081019050610729565b50505050905090810190601f1680156107715780820380516001836020036101000a031916815260200191505b50838103825284818151815260200191508051906020019080838360005b838110156107aa57808201518184015260208101905061078f565b50505050905090810190601f1680156107d75780820380516001836020036101000a031916815260200191505b50965050505050505060405180910390f35b3480156107f557600080fd5b506107fe613056565b604051808215151515815260200191505060405180910390f35b34801561082457600080fd5b506108e360048036038101908080359060200190929190803590602001908201803590602001908080601f01602080910402602001604051908101604052809392919081815260200183838082843782019150505050505091929192908035906020019092919080359060200190929190803590602001908201803590602001908080601f01602080910402602001604051908101604052809392919081815260200183838082843782019150505050505091929192905050506130ad565b005b3480156108f157600080fd5b50610926600480360381019080803573ffffffffffffffffffffffffffffffffffffffff169060200190929190505050613752565b604051808215151515815260200191505060405180910390f35b34801561094c57600080fd5b50610955613772565b6040518082815260200191505060405180910390f35b6060600360003373ffffffffffffffffffffffffffffffffffffffff1673ffffffffffffffffffffffffffffffffffffffff16815260200190815260200160002060009054906101000a900460ff1615156109c557600080fd5b81604051806000019050604051809103902060001916600560003373ffffffffffffffffffffffffffffffffffffffff1673ffffffffffffffffffffffffffffffffffffffff16815260200190815260200160002082815481101515610a2757fe5b90600052602060002090600502016000016040516020018082805460018160011615610100020316600290048015610a965780601f10610a74576101008083540402835291820191610a96565b820191906000526020600020905b815481529060010190602001808311610a82575b50509150506040516020818303038152906040526040518082805190602001908083835b602083101515610adf5780518252602082019150602081019050602083039250610aba565b6001836020036101000a03801982511681845116808217855250505050505090500191505060405180910390206000191614151515610b1d57600080fd5b600460003373ffffffffffffffffffffffffffffffffffffffff1673ffffffffffffffffffffffffffffffffffffffff168152602001908152602001600020548060018203101515610b6e57600080fd5b600560003373ffffffffffffffffffffffffffffffffffffffff1673ffffffffffffffffffffffffffffffffffffffff16815260200190815260200160002084815481101515610bba57fe5b90600052602060002090600502016000018054600181600116156101000203166002900480601f016020809104026020016040519081016040528092919081815260200182805460018160011615610100020316600290048015610c5f5780601f10610c3457610100808354040283529160200191610c5f565b820191906000526020600020905b815481529060010190602001808311610c4257829003601f168201915b50505050509250826040518082805190602001908083835b602083101515610c9c5780518252602082019150602081019050602083039250610c77565b6001836020036101000a03801982511681845116808217855250505050505090500191505060405180910390207fe4d8073e8b23b84654c79fb6e41bfb976fff2d2fb6455fd6ba8df288fb70e00c60405160405180910390a2600560003373ffffffffffffffffffffffffffffffffffffffff1673ffffffffffffffffffffffffffffffffffffffff16815260200190815260200160002084815481101515610d4157fe5b906000526020600020906005020160008082016000610d6091906138cf565b600182016000610d7091906138cf565b60028201600090556003820160009055505050505050565b60008060149054906101000a900460ff16151515610da557600080fd5b600360003373ffffffffffffffffffffffffffffffffffffffff1673ffffffffffffffffffffffffffffffffffffffff16815260200190815260200160002060009054906101000a900460ff161515610dfd57600080fd5b81604051806000019050604051809103902060001916600560003373ffffffffffffffffffffffffffffffffffffffff1673ffffffffffffffffffffffffffffffffffffffff16815260200190815260200160002082815481101515610e5f57fe5b90600052602060002090600502016000016040516020018082805460018160011615610100020316600290048015610ece5780601f10610eac576101008083540402835291820191610ece565b820191906000526020600020905b815481529060010190602001808311610eba575b50509150506040516020818303038152906040526040518082805190602001908083835b602083101515610f175780518252602082019150602081019050602083039250610ef2565b6001836020036101000a03801982511681845116808217855250505050505090500191505060405180910390206000191614151515610f5557600080fd5b6000600560003373ffffffffffffffffffffffffffffffffffffffff1673ffffffffffffffffffffffffffffffffffffffff16815260200190815260200160002084815481101515610fa357fe5b906000526020600020906005020160020154111515610fc157600080fd5b7f465c8602b07faa0e98aa1d9e0f3456ee1798963d7dd14b8c28c93a03167d697b600560003373ffffffffffffffffffffffffffffffffffffffff1673ffffffffffffffffffffffffffffffffffffffff1681526020019081526020016000208481548110151561102e57fe5b906000526020600020906005020160000160405180806020018281038252838181546001816001161561010002031660029004815260200191508054600181600116156101000203166002900480156110c85780601f1061109d576101008083540402835291602001916110c8565b820191906000526020600020905b8154815290600101906020018083116110ab57829003601f168201915b50509250505060405180910390a1600560003373ffffffffffffffffffffffffffffffffffffffff1673ffffffffffffffffffffffffffffffffffffffff1681526020019081526020016000208381548110151561112257fe5b90600052602060002090600502016002015491506000600560003373ffffffffffffffffffffffffffffffffffffffff1673ffffffffffffffffffffffffffffffffffffffff1681526020019081526020016000208481548110151561118457fe5b9060005260206000209060050201600201819055503373ffffffffffffffffffffffffffffffffffffffff166108fc839081150290604051600060405180830381858888f193505050501580156111df573d6000803e3d6000fd5b50505050565b60008060008060149054906101000a900460ff1615151561120557600080fd5b600560008873ffffffffffffffffffffffffffffffffffffffff1673ffffffffffffffffffffffffffffffffffffffff1681526020019081526020016000208681548110151561125157fe5b9060005260206000209060050201600401856040518082805190602001908083835b6020831015156112985780518252602082019150602081019050602083039250611273565b6001836020036101000a0380198251168184511680821785525050505050509050019150509081526020016040518091039020600101549250600560008873ffffffffffffffffffffffffffffffffffffffff1673ffffffffffffffffffffffffffffffffffffffff1681526020019081526020016000208681548110151561131d57fe5b9060005260206000209060050201600401856040518082805190602001908083835b602083101515611364578051825260208201915060208101905060208303925061133f565b6001836020036101000a0380198251168184511680821785525050505050509050019150509081526020016040518091039020600201549150838302905080341480156113b2575081848303105b15156113bd57600080fd5b7fa28c646f39f9e222598d17712e8fd6d0ae32531abb19bf4dcde4dd0a710a83c7600560008973ffffffffffffffffffffffffffffffffffffffff1673ffffffffffffffffffffffffffffffffffffffff1681526020019081526020016000208781548110151561142a57fe5b9060005260206000209060050201600401866040518082805190602001908083835b602083101515611471578051825260208201915060208101905060208303925061144c565b6001836020036101000a038019825116818451168082178552505050505050905001915050908152602001604051809103902060000160405180806020018281038252838181546001816001161561010002031660029004815260200191508054600181600116156101000203166002900480156115305780601f1061150557610100808354040283529160200191611530565b820191906000526020600020905b81548152906001019060200180831161151357829003601f168201915b50509250505060405180910390a183600560008973ffffffffffffffffffffffffffffffffffffffff1673ffffffffffffffffffffffffffffffffffffffff1681526020019081526020016000208781548110151561158b57fe5b9060005260206000209060050201600401866040518082805190602001908083835b6020831015156115d257805182526020820191506020810190506020830392506115ad565b6001836020036101000a03801982511681845116808217855250505050505090500191505090815260200160405180910390206002016000828254039250508190555080600560008973ffffffffffffffffffffffffffffffffffffffff1673ffffffffffffffffffffffffffffffffffffffff1681526020019081526020016000208781548110151561166257fe5b90600052602060002090600502016002016000828254019250508190555050505050505050565b600360003373ffffffffffffffffffffffffffffffffffffffff1673ffffffffffffffffffffffffffffffffffffffff16815260200190815260200160002060009054906101000a900460ff1615156116e157600080fd5b82604051806000019050604051809103902060001916600560003373ffffffffffffffffffffffffffffffffffffffff1673ffffffffffffffffffffffffffffffffffffffff1681526020019081526020016000208281548110151561174357fe5b906000526020600020906005020160000160405160200180828054600181600116156101000203166002900480156117b25780601f106117905761010080835404028352918201916117b2565b820191906000526020600020905b81548152906001019060200180831161179e575b50509150506040516020818303038152906040526040518082805190602001908083835b6020831015156117fb57805182526020820191506020810190506020830392506117d6565b6001836020036101000a0380198251168184511680821785525050505050509050019150506040518091039020600019161415151561183957600080fd5b60008211151561184857600080fd5b7f5bf05743ed981777d943b100f2ce7ac2758b7fda17a4458b3514033a40df40d833858585600560003373ffffffffffffffffffffffffffffffffffffffff1673ffffffffffffffffffffffffffffffffffffffff168152602001908152602001600020898154811015156118b957fe5b9060005260206000209060050201600401886040518082805190602001908083835b60208310151561190057805182526020820191506020810190506020830392506118db565b6001836020036101000a0380198251168184511680821785525050505050509050019150509081526020016040518091039020600001604051808673ffffffffffffffffffffffffffffffffffffffff1673ffffffffffffffffffffffffffffffffffffffff1681526020018581526020018060200184815260200180602001838103835286818151815260200191508051906020019080838360005b838110156119b857808201518184015260208101905061199d565b50505050905090810190601f1680156119e55780820380516001836020036101000a031916815260200191505b50838103825284818154600181600116156101000203166002900481526020019150805460018160011615610100020316600290048015611a675780601f10611a3c57610100808354040283529160200191611a67565b820191906000526020600020905b815481529060010190602001808311611a4a57829003601f168201915b505097505050505050505060405180910390a181600560003373ffffffffffffffffffffffffffffffffffffffff1673ffffffffffffffffffffffffffffffffffffffff16815260200190815260200160002085815481101515611ac757fe5b9060005260206000209060050201600401846040518082805190602001908083835b602083101515611b0e5780518252602082019150602081019050602083039250611ae9565b6001836020036101000a03801982511681845116808217855250505050505090500191505090815260200160405180910390206001018190555050505050565b60046020528060005260406000206000915090505481565b600360003373ffffffffffffffffffffffffffffffffffffffff1673ffffffffffffffffffffffffffffffffffffffff16815260200190815260200160002060009054906101000a900460ff161515611bbe57600080fd5b8160008060019150600090505b600460003373ffffffffffffffffffffffffffffffffffffffff1673ffffffffffffffffffffffffffffffffffffffff16815260200190815260200160002054811015611e3657826040516020018082805190602001908083835b602083101515611c4b5780518252602082019150602081019050602083039250611c26565b6001836020036101000a0380198251168184511680821785525050505050509050019150506040516020818303038152906040526040518082805190602001908083835b602083101515611cb45780518252602082019150602081019050602083039250611c8f565b6001836020036101000a038019825116818451168082178552505050505050905001915050604051809103902060001916600560003373ffffffffffffffffffffffffffffffffffffffff1673ffffffffffffffffffffffffffffffffffffffff16815260200190815260200160002082815481101515611d3157fe5b90600052602060002090600502016000016040516020018082805460018160011615610100020316600290048015611da05780601f10611d7e576101008083540402835291820191611da0565b820191906000526020600020905b815481529060010190602001808311611d8c575b50509150506040516020818303038152906040526040518082805190602001908083835b602083101515611de95780518252602082019150602081019050602083039250611dc4565b6001836020036101000a0380198251168184511680821785525050505050509050019150506040518091039020600019161415611e295760009150611e36565b8080600101915050611bcb565b811515611e4257600080fd5b7f7ddc47e22e22807b77b4f90d3930fb10d9d941be705dc9d3ed768c8758ac2fa7853360405180806020018373ffffffffffffffffffffffffffffffffffffffff1673ffffffffffffffffffffffffffffffffffffffff168152602001828103825284818151815260200191508051906020019080838360005b83811015611ed7578082015181840152602081019050611ebc565b50505050905090810190601f168015611f045780820380516001836020036101000a031916815260200191505b50935050505060405180910390a1600560003373ffffffffffffffffffffffffffffffffffffffff1673ffffffffffffffffffffffffffffffffffffffff168152602001908152602001600020608060405190810160405280878152602001868152602001600081526020016000815250908060018154018082558091505090600182039060005260206000209060050201600090919290919091506000820151816000019080519060200190611fbc929190613917565b506020820151816001019080519060200190611fd9929190613917565b506040820151816002015560608201518160030155505050600460003373ffffffffffffffffffffffffffffffffffffffff1673ffffffffffffffffffffffffffffffffffffffff168152602001908152602001600020600081548092919060010191905055505050505050565b60028181548110151561205657fe5b906000526020600020016000915054906101000a900473ffffffffffffffffffffffffffffffffffffffff1681565b6000809054906101000a900473ffffffffffffffffffffffffffffffffffffffff1673ffffffffffffffffffffffffffffffffffffffff163373ffffffffffffffffffffffffffffffffffffffff161415156120e057600080fd5b6001600060146101000a81548160ff021916908315150217905550565b60056020528160005260406000208181548110151561211857fe5b906000526020600020906005020160009150915050806000018054600181600116156101000203166002900480601f0160208091040260200160405190810160405280929190818152602001828054600181600116156101000203166002900480156121c55780601f1061219a576101008083540402835291602001916121c5565b820191906000526020600020905b8154815290600101906020018083116121a857829003601f168201915b505050505090806001018054600181600116156101000203166002900480601f0160208091040260200160405190810160405280929190818152602001828054600181600116156101000203166002900480156122635780601f1061223857610100808354040283529160200191612263565b820191906000526020600020905b81548152906001019060200180831161224657829003601f168201915b5050505050908060020154908060030154905084565b6000809054906101000a900473ffffffffffffffffffffffffffffffffffffffff1673ffffffffffffffffffffffffffffffffffffffff163373ffffffffffffffffffffffffffffffffffffffff161415156122d457600080fd5b60008060146101000a81548160ff021916908315150217905550565b6000809054906101000a900473ffffffffffffffffffffffffffffffffffffffff1673ffffffffffffffffffffffffffffffffffffffff163373ffffffffffffffffffffffffffffffffffffffff1614151561234b57600080fd5b80600360008273ffffffffffffffffffffffffffffffffffffffff1673ffffffffffffffffffffffffffffffffffffffff16815260200190815260200160002060009054906101000a900460ff161515156123a557600080fd5b8173ffffffffffffffffffffffffffffffffffffffff167fa0ccbd67048573ce351c45b2a4b73bf775758608cc269a83ff7a9f9dd664054260405160405180910390a260016000815480929190600101919050555060028290806001815401808255809150509060018203906000526020600020016000909192909190916101000a81548173ffffffffffffffffffffffffffffffffffffffff021916908373ffffffffffffffffffffffffffffffffffffffff160217905550506001600360008473ffffffffffffffffffffffffffffffffffffffff1673ffffffffffffffffffffffffffffffffffffffff16815260200190815260200160002060006101000a81548160ff0219169083151502179055505050565b6060600360003373ffffffffffffffffffffffffffffffffffffffff1673ffffffffffffffffffffffffffffffffffffffff16815260200190815260200160002060009054906101000a900460ff16151561251657600080fd5b82604051806000019050604051809103902060001916600560003373ffffffffffffffffffffffffffffffffffffffff1673ffffffffffffffffffffffffffffffffffffffff1681526020019081526020016000208281548110151561257857fe5b906000526020600020906005020160000160405160200180828054600181600116156101000203166002900480156125e75780601f106125c55761010080835404028352918201916125e7565b820191906000526020600020905b8154815290600101906020018083116125d3575b50509150506040516020818303038152906040526040518082805190602001908083835b602083101515612630578051825260208201915060208101905060208303925061260b565b6001836020036101000a0380198251168184511680821785525050505050509050019150506040518091039020600019161415151561266e57600080fd5b600560003373ffffffffffffffffffffffffffffffffffffffff1673ffffffffffffffffffffffffffffffffffffffff168152602001908152602001600020848154811015156126ba57fe5b90600052602060002090600502016003015480600182031015156126dd57600080fd5b600560003373ffffffffffffffffffffffffffffffffffffffff1673ffffffffffffffffffffffffffffffffffffffff1681526020019081526020016000208581548110151561272957fe5b9060005260206000209060050201600401846040518082805190602001908083835b602083101515612770578051825260208201915060208101905060208303925061274b565b6001836020036101000a03801982511681845116808217855250505050505090500191505090815260200160405180910390206000018054600181600116156101000203166002900480601f01602080910402602001604051908101604052809291908181526020018280546001816001161561010002031660029004801561283a5780601f1061280f5761010080835404028352916020019161283a565b820191906000526020600020905b81548152906001019060200180831161281d57829003601f168201915b505050505092507f53840b1371dc8b81d9ad0d6918830b4a6bbda8388279c1fab526a2ea3acc7394836040518080602001828103825283818151815260200191508051906020019080838360005b838110156128a3578082015181840152602081019050612888565b50505050905090810190601f1680156128d05780820380516001836020036101000a031916815260200191505b509250505060405180910390a1600560003373ffffffffffffffffffffffffffffffffffffffff1673ffffffffffffffffffffffffffffffffffffffff1681526020019081526020016000208581548110151561292957fe5b9060005260206000209060050201600401846040518082805190602001908083835b602083101515612970578051825260208201915060208101905060208303925061294b565b6001836020036101000a0380198251168184511680821785525050505050509050019150509081526020016040518091039020600080820160006129b491906138cf565b600182016000905560028201600090556003820160006129d491906138cf565b50505050505050565b600060149054906101000a900460ff1681565b60008060009054906101000a900473ffffffffffffffffffffffffffffffffffffffff1673ffffffffffffffffffffffffffffffffffffffff163373ffffffffffffffffffffffffffffffffffffffff16141515612a4d57600080fd5b600282815481101515612a5c57fe5b9060005260206000200160009054906101000a900473ffffffffffffffffffffffffffffffffffffffff169050600360008273ffffffffffffffffffffffffffffffffffffffff1673ffffffffffffffffffffffffffffffffffffffff16815260200190815260200160002060009054906101000a900460ff168015612ae757506001546001805403105b1515612af257600080fd5b8073ffffffffffffffffffffffffffffffffffffffff167f8d4c697101c753cf4fcef8b64001514e0c0101b4ce6b4b62ab3f3c7328fd6a0e60405160405180910390a26000600360008373ffffffffffffffffffffffffffffffffffffffff1673ffffffffffffffffffffffffffffffffffffffff16815260200190815260200160002060006101000a81548160ff021916908315150217905550600282815481101515612b9c57fe5b9060005260206000200160006101000a81549073ffffffffffffffffffffffffffffffffffffffff0219169055600160008154809291906001900391905055505050565b60606000806060600560008873ffffffffffffffffffffffffffffffffffffffff1673ffffffffffffffffffffffffffffffffffffffff16815260200190815260200160002086815481101515612c3357fe5b9060005260206000209060050201600401856040518082805190602001908083835b602083101515612c7a5780518252602082019150602081019050602083039250612c55565b6001836020036101000a0380198251168184511680821785525050505050509050019150509081526020016040518091039020600001600560008973ffffffffffffffffffffffffffffffffffffffff1673ffffffffffffffffffffffffffffffffffffffff16815260200190815260200160002087815481101515612cfc57fe5b9060005260206000209060050201600401866040518082805190602001908083835b602083101515612d435780518252602082019150602081019050602083039250612d1e565b6001836020036101000a038019825116818451168082178552505050505050905001915050908152602001604051809103902060010154600560008a73ffffffffffffffffffffffffffffffffffffffff1673ffffffffffffffffffffffffffffffffffffffff16815260200190815260200160002088815481101515612dc657fe5b9060005260206000209060050201600401876040518082805190602001908083835b602083101515612e0d5780518252602082019150602081019050602083039250612de8565b6001836020036101000a038019825116818451168082178552505050505050905001915050908152602001604051809103902060020154600560008b73ffffffffffffffffffffffffffffffffffffffff1673ffffffffffffffffffffffffffffffffffffffff16815260200190815260200160002089815481101515612e9057fe5b9060005260206000209060050201600401886040518082805190602001908083835b602083101515612ed75780518252602082019150602081019050602083039250612eb2565b6001836020036101000a0380198251168184511680821785525050505050509050019150509081526020016040518091039020600301838054600181600116156101000203166002900480601f016020809104026020016040519081016040528092919081815260200182805460018160011615610100020316600290048015612fa25780601f10612f7757610100808354040283529160200191612fa2565b820191906000526020600020905b815481529060010190602001808311612f8557829003601f168201915b50505050509350808054600181600116156101000203166002900480601f01602080910402602001604051908101604052809291908181526020018280546001816001161561010002031660029004801561303e5780601f106130135761010080835404028352916020019161303e565b820191906000526020600020905b81548152906001019060200180831161302157829003601f168201915b50505050509050935093509350935093509350935093565b60003373ffffffffffffffffffffffffffffffffffffffff166000809054906101000a900473ffffffffffffffffffffffffffffffffffffffff1673ffffffffffffffffffffffffffffffffffffffff1614905090565b60006060600360003373ffffffffffffffffffffffffffffffffffffffff1673ffffffffffffffffffffffffffffffffffffffff16815260200190815260200160002060009054906101000a900460ff16151561310957600080fd5b86604051806000019050604051809103902060001916600560003373ffffffffffffffffffffffffffffffffffffffff1673ffffffffffffffffffffffffffffffffffffffff1681526020019081526020016000208281548110151561316b57fe5b906000526020600020906005020160000160405160200180828054600181600116156101000203166002900480156131da5780601f106131b85761010080835404028352918201916131da565b820191906000526020600020905b8154815290600101906020018083116131c6575b50509150506040516020818303038152906040526040518082805190602001908083835b60208310151561322357805182526020820191506020810190506020830392506131fe565b6001836020036101000a0380198251168184511680821785525050505050509050019150506040518091039020600019161415151561326157600080fd5b6000861180156132715750600085115b151561327c57600080fd5b7f023826ac8153b7d0b8ad612a8087cd73a24cee6c8b0ddd5f5bec25b472d1dc7d876040518080602001828103825283818151815260200191508051906020019080838360005b838110156132de5780820151818401526020810190506132c3565b50505050905090810190601f16801561330b5780820380516001836020036101000a031916815260200191505b509250505060405180910390a1600560003373ffffffffffffffffffffffffffffffffffffffff1673ffffffffffffffffffffffffffffffffffffffff1681526020019081526020016000208881548110151561336457fe5b906000526020600020906005020160030154925061338183613778565b915086600560003373ffffffffffffffffffffffffffffffffffffffff1673ffffffffffffffffffffffffffffffffffffffff168152602001908152602001600020898154811015156133d057fe5b9060005260206000209060050201600401836040518082805190602001908083835b60208310151561341757805182526020820191506020810190506020830392506133f2565b6001836020036101000a03801982511681845116808217855250505050505090500191505090815260200160405180910390206000019080519060200190613460929190613997565b5085600560003373ffffffffffffffffffffffffffffffffffffffff1673ffffffffffffffffffffffffffffffffffffffff168152602001908152602001600020898154811015156134ae57fe5b9060005260206000209060050201600401836040518082805190602001908083835b6020831015156134f557805182526020820191506020810190506020830392506134d0565b6001836020036101000a03801982511681845116808217855250505050505090500191505090815260200160405180910390206001018190555084600560003373ffffffffffffffffffffffffffffffffffffffff1673ffffffffffffffffffffffffffffffffffffffff1681526020019081526020016000208981548110151561357c57fe5b9060005260206000209060050201600401836040518082805190602001908083835b6020831015156135c3578051825260208201915060208101905060208303925061359e565b6001836020036101000a03801982511681845116808217855250505050505090500191505090815260200160405180910390206002018190555083600560003373ffffffffffffffffffffffffffffffffffffffff1673ffffffffffffffffffffffffffffffffffffffff1681526020019081526020016000208981548110151561364a57fe5b9060005260206000209060050201600401836040518082805190602001908083835b602083101515613691578051825260208201915060208101905060208303925061366c565b6001836020036101000a038019825116818451168082178552505050505050905001915050908152602001604051809103902060030190805190602001906136da929190613997565b50600560003373ffffffffffffffffffffffffffffffffffffffff1673ffffffffffffffffffffffffffffffffffffffff1681526020019081526020016000208881548110151561372757fe5b9060005260206000209060050201600301600081548092919060010191905055505050505050505050565b60036020528060005260406000206000915054906101000a900460ff1681565b60015481565b606060008060606000808614156137c6576040805190810160405280600181526020017f300000000000000000000000000000000000000000000000000000000000000081525094506138c6565b8593505b6000841415156137f0578280600101935050600a848115156137e857fe5b0493506137ca565b826040519080825280601f01601f1916602001820160405280156138235781602001602082028038833980820191505090505b5091506001830390505b6000861415156138c257600a8681151561384357fe5b066030017f01000000000000000000000000000000000000000000000000000000000000000282828060019003935081518110151561387e57fe5b9060200101907effffffffffffffffffffffffffffffffffffffffffffffffffffffffffffff1916908160001a905350600a868115156138ba57fe5b04955061382d565b8194505b50505050919050565b50805460018160011615610100020316600290046000825580601f106138f55750613914565b601f0160209004906000526020600020908101906139139190613a17565b5b50565b828054600181600116156101000203166002900490600052602060002090601f016020900481019282601f1061395857805160ff1916838001178555613986565b82800160010185558215613986579182015b8281111561398557825182559160200191906001019061396a565b5b5090506139939190613a17565b5090565b828054600181600116156101000203166002900490600052602060002090601f016020900481019282601f106139d857805160ff1916838001178555613a06565b82800160010185558215613a06579182015b82811115613a055782518255916020019190600101906139ea565b5b509050613a139190613a17565b5090565b613a3991905b80821115613a35576000816000905550600101613a1d565b5090565b905600a165627a7a72305820e15d83dfb0e759111f616b4ffd6966236866e5285854fc9300b85a83660640e40029",
  "source": "pragma solidity ^0.4.17;\n\n /** @title Online Marketplace. */\ncontract OnlineMarketplace {\n\n  /** @dev Address of admin. */\n  address private admin;\n\n  /** @dev Circuit breaker variable. Used to prevent people from buying products or withdrawing funds. */\n  bool public stopped = false;\n\n  /** @dev Number of store owners */\n  uint public numStoreOwners = 0;\n\n  /** @dev Array of store owners */\n  address[] public storeOwners;\n\n  /** @dev Mapping of store owners to bool. Used to determine if address is new. */\n  mapping(address => bool) public storeOwnersAddress;\n\n  /** @dev Product struct. Contains price and quantity of the product. */\n  struct Product{\n    string name;\n    uint price;\n    uint quantity;\n    string ipfsHash;\n  }\n\n  /** @dev Storefront struct. Contains name of store, image (stored as ipfs hash), funds, and a mapping to its products. */\n  struct StoreFront{\n    string name;\n    string ipfsHash;\n    uint funds;\n    uint numProducts; // this is actually the max number of products in this storefront. Lets me know which number to iterate up to when grabbing the products.\n    mapping(string => Product) products;\n  }\n\n  /** @dev Mapping of store owners to number of storefronts. */\n  mapping (address => uint) public numStoreFronts;\n\n  /** @dev Mapping of store owners to a mapping of storefront name to ipfs hash string. */\n  mapping (address => StoreFront[]) public storeFronts;\n\n  /** @dev Emit when a new owner is added. */\n  event EventNewOwner(address indexed _address);\n\n  /** @dev Emit when an owner is deleted. */\n  event EventDeleteOwner(address indexed _address);\n\n  /** @dev Emit when a new storefront is added. */\n  event EventNewStoreFront(string _storeName, address _address);\n\n  /** @dev Emit when a storefront is deleted. */\n  event EventDeleteStoreFront(string indexed _storeName);\n \n  /** @dev Emit when a product is added. */\n  event EventAddProduct(string _productName);\n\n  /** @dev Emit when a product is deleted. */\n  event EventDeleteProduct(string _productName);\n\n  /** @dev Emit when a product is bought. */\n  event EventBuyProduct(string _productName);\n  \n  /** @dev Emit when a product is bought. */\n  event EventChangePrice(address _address, uint _store, string _product, uint _newPrice, string _productName);\n  \n  /** @dev Emit when funds are withdrawn from store. */\n  event EventWithdrawFunds(string _storeName);\n\n  /** @dev Modifier that checks to make sure the circuit breaker is off. */\n  modifier emergencyStop() {\n    require(!stopped);\n    _;\n  }\n\n  /** @dev Modifier that checks to make sure the sender is an admin. */\n  modifier checkAdmin() {\n    require(msg.sender == admin);\n    _;\n  }\n  \n  /** @dev Modifier that checks to make the sender is an owner. */\n  modifier checkOwner() {\n    require(storeOwnersAddress[msg.sender]);\n    _;\n  }\n\n  /** @dev Modifier that checks to make sure owner does not exist already. \n  * @param _address Address to be checked.\n  */\n  modifier checkNewOwner(address _address) {\n    require(!storeOwnersAddress[_address]);\n    _;\n  }\n\n  /** @dev Modifier that checks storefront name is unique. \n  * @param _name Storefront name to be checked.\n  */\n  modifier checkStoreFrontName(string _name) {\n    bool checkName = true;\n    for (uint i = 0; i < numStoreFronts[msg.sender]; i ++) {\n      if (keccak256(abi.encodePacked(storeFronts[msg.sender][i].name)) == keccak256(abi.encodePacked(_name))) {\n        checkName = false;\n        break;\n      }\n    }\n    require(checkName);\n    _;\n  }\n\n  /** @dev Modifier that checks storefront exists for the caller. \n  * @param _index Index of storefront to be checked.\n  */\n  modifier checkStoreFrontExists(uint _index) {\n    require(keccak256(abi.encodePacked(storeFronts[msg.sender][_index].name)) != keccak256(''));\n    _;\n  }\n\n  /** @dev Modifier that checks for integer underflow. */\n  modifier checkIntegerUnderflow(uint _num) {\n    require(_num - 1 < _num);\n    _;\n  }\n\n  /** @dev Constructor function. Sets admin to be the contract owner. */\n  constructor() public {\n    admin = msg.sender;\n  }\n\n  /** @dev Checks to see if caller is admin. */\n  function isAdmin() public view returns(bool) {\n    return admin == msg.sender;\n  }\n\n  /** @dev Flips circuit breaker on. */\n  function isEmergency() public checkAdmin {\n    stopped = true;\n  }\n\n  /** @dev Flips circuit breaker off. */\n  function isSafe() public checkAdmin {\n    stopped = false;\n  }\n  \n  /** @dev Adds an owner to the storeOwners mapping.\n  * @param _address Address to be added as store owner.\n  */\n  function addOwner(address _address) public checkAdmin checkNewOwner(_address) {\n    emit EventNewOwner(_address);\n    numStoreOwners++;\n    storeOwners.push(_address);\n    storeOwnersAddress[_address] = true;\n  }\n\n  /** @dev Deletes an owner from the storeOwners mapping.\n  * @param _index Index of the address to be deleted.\n  */\n  function deleteOwner(uint _index) public checkAdmin {\n    address _address = storeOwners[_index];\n    require (storeOwnersAddress[_address] && numStoreOwners - 1 < numStoreOwners);\n    emit EventDeleteOwner(_address);\n    storeOwnersAddress[_address] = false;\n    delete storeOwners[_index];\n    numStoreOwners--;\n  }\n  \n  /** @dev Add a storefront.\n  * @param _name Storefront name.\n  * @param _ipfsHash Storefront image stored as IPFS hash.\n  */\n  function addStoreFront(string _name, string _ipfsHash) public checkOwner checkStoreFrontName(_name) {\n    emit EventNewStoreFront(_name, msg.sender);\n    storeFronts[msg.sender].push(StoreFront(_name, _ipfsHash, 0, 0));\n    numStoreFronts[msg.sender]++;\n  }\n\n  /** @dev Delete a storefront.\n  * @param _index Index of storefront to be deleted.\n  */\n  function deleteStoreFront(uint _index) public checkOwner checkStoreFrontExists(_index) checkIntegerUnderflow(numStoreFronts[msg.sender]) {\n    string memory _name = storeFronts[msg.sender][_index].name;\n    emit EventDeleteStoreFront(_name);\n    delete storeFronts[msg.sender][_index];\n  }\n\n  /** @dev Converts uint to string.\n  * @param i Integer to be converted to string.\n  * @return Returns string.\n  */\n  function uint2str(uint i) internal pure returns (string){\n    if (i == 0) return \"0\";\n    uint j = i;\n    uint length;\n    while (j != 0){\n        length++;\n        j /= 10;\n    }\n    bytes memory bstr = new bytes(length);\n    uint k = length - 1;\n    while (i != 0){\n        bstr[k--] = byte(48 + i % 10);\n        i /= 10;\n    }\n    return string(bstr);\n  }\n\n  /** @dev Add a product to storefront.\n  * @param _index Index of storefront where product is to be sold.\n  * @param _name Name of product.\n  * @param _price Price of product.\n  * @param _quantity Quantity of product to be sold.\n  */\n  function addProduct(uint _index, string _name, uint _price, uint _quantity, string _ipfsHash) public checkOwner checkStoreFrontExists(_index) {\n    require(_price > 0 && _quantity > 0);\n    emit EventAddProduct(_name);\n    uint numProducts = storeFronts[msg.sender][_index].numProducts;\n    string memory num = uint2str(numProducts);\n    storeFronts[msg.sender][_index].products[num].name = _name;\n    storeFronts[msg.sender][_index].products[num].price = _price;\n    storeFronts[msg.sender][_index].products[num].quantity = _quantity;\n    storeFronts[msg.sender][_index].products[num].ipfsHash = _ipfsHash;\n    storeFronts[msg.sender][_index].numProducts++;\n  }\n\n  /** @dev Delete product from storefront.\n  * @param _index Index of storefront where product is sold.\n  * @param _num Index of product.\n  */\n  function deleteProduct(uint _index, string _num) public checkOwner checkStoreFrontExists(_index) checkIntegerUnderflow(storeFronts[msg.sender][_index].numProducts){\n    string memory _name = storeFronts[msg.sender][_index].products[_num].name;\n    emit EventDeleteProduct(_name);\n    delete storeFronts[msg.sender][_index].products[_num];\n  }\n\n  /** @dev Get product from storefront.\n  * @param _index Index of storefront where product is sold.\n  * @param _num Index of product.\n  */\n  function getProduct(address _address, uint _index, string _num) public view returns (string, uint, uint, string) {\n    return (storeFronts[_address][_index].products[_num].name, storeFronts[_address][_index].products[_num].price, storeFronts[_address][_index].products[_num].quantity, storeFronts[_address][_index].products[_num].ipfsHash);\n  }\n\n  /** @dev Buy product from storefront.\n  * @param _index Index of storefront where product is to be sold.\n  * @param _num Index of product.\n  */\n  function buyProduct(address _address, uint _index, string _num, uint quantityToBuy) public payable emergencyStop {\n    uint _price = storeFronts[_address][_index].products[_num].price;\n    uint _quantity = storeFronts[_address][_index].products[_num].quantity;\n    uint totalPrice = _price * quantityToBuy;\n    require(msg.value == totalPrice && _quantity - quantityToBuy < _quantity);\n    emit EventBuyProduct(storeFronts[_address][_index].products[_num].name);\n    storeFronts[_address][_index].products[_num].quantity -= quantityToBuy;\n    storeFronts[_address][_index].funds += totalPrice;\n  }\n\n  /** @dev Change the price of the product.\n  * @param _index Index of storefront where product is sold.\n  * @param _num Index of product.\n  * @param newPrice New price of product.\n  */\n  function changePrice(uint _index, string _num, uint newPrice) public checkOwner checkStoreFrontExists(_index) {\n    require(newPrice > 0);\n    emit EventChangePrice(msg.sender, _index, _num, newPrice, storeFronts[msg.sender][_index].products[_num].name);\n    storeFronts[msg.sender][_index].products[_num].price = newPrice;\n  }\n\n  /** @dev Withdraw funds from store.\n  * @param _index Index of storefront where funds are to be withdrawn from.\n  */\n  function withdrawFunds(uint _index) public emergencyStop checkOwner checkStoreFrontExists(_index) {\n    require(storeFronts[msg.sender][_index].funds > 0);\n    emit EventWithdrawFunds(storeFronts[msg.sender][_index].name);\n    uint storeFunds = storeFronts[msg.sender][_index].funds;\n    storeFronts[msg.sender][_index].funds = 0;\n    msg.sender.transfer(storeFunds);\n  }\n\n  /** @dev Fallback function. */\n  function() public payable{}\n}",
  "sourcePath": "/Users/rshyong/Solidity/online_marketplace/contracts/OnlineMarketplace.sol",
  "compiler": {
    "name": "solc",
    "version": "0.4.24+commit.e67f0147.Emscripten.clang"
  },
  "schemaVersion": "2.0.1",
  "updatedAt": "2018-08-28T00:08:50.016Z"
}