{
  "contractName": "OnlineMarketplace",
  "abi": [
    {
      "inputs": [],
      "payable": false,
      "stateMutability": "nonpayable",
      "type": "constructor"
    },
    {
      "payable": false,
      "stateMutability": "nonpayable",
      "type": "fallback"
    },
    {
      "anonymous": false,
      "inputs": [
        {
          "indexed": true,
          "name": "_address",
          "type": "address"
        }
      ],
      "name": "newOwner",
      "type": "event"
    },
    {
      "constant": false,
      "inputs": [
        {
          "name": "_address",
          "type": "address"
        }
      ],
      "name": "addOwner",
      "outputs": [],
      "payable": false,
      "stateMutability": "nonpayable",
      "type": "function"
    },
    {
      "constant": true,
      "inputs": [],
      "name": "isOwner",
      "outputs": [
        {
          "name": "",
          "type": "bool"
        }
      ],
      "payable": false,
      "stateMutability": "view",
      "type": "function"
    },
    {
      "constant": true,
      "inputs": [],
      "name": "isAdmin",
      "outputs": [
        {
          "name": "",
          "type": "bool"
        }
      ],
      "payable": false,
      "stateMutability": "view",
      "type": "function"
    },
    {
      "constant": true,
      "inputs": [],
      "name": "getOwners",
      "outputs": [
        {
          "name": "",
          "type": "address[]"
        }
      ],
      "payable": false,
      "stateMutability": "view",
      "type": "function"
    }
  ],
  "bytecode": "0x608060405234801561001057600080fd5b50336000806101000a81548173ffffffffffffffffffffffffffffffffffffffff021916908373ffffffffffffffffffffffffffffffffffffffff1602179055506104fb806100606000396000f300608060405260043610610062576000357c0100000000000000000000000000000000000000000000000000000000900463ffffffff1680637065cb48146100745780638f32d59b146100b7578063a0e67e2b146100e6578063b6db75a014610152575b34801561006e57600080fd5b50600080fd5b34801561008057600080fd5b506100b5600480360381019080803573ffffffffffffffffffffffffffffffffffffffff169060200190929190505050610181565b005b3480156100c357600080fd5b506100cc61033b565b604051808215151515815260200191505060405180910390f35b3480156100f257600080fd5b506100fb61038f565b6040518080602001828103825283818151815260200191508051906020019060200280838360005b8381101561013e578082015181840152602081019050610123565b505050509050019250505060405180910390f35b34801561015e57600080fd5b50610167610478565b604051808215151515815260200191505060405180910390f35b6000809054906101000a900473ffffffffffffffffffffffffffffffffffffffff1673ffffffffffffffffffffffffffffffffffffffff163373ffffffffffffffffffffffffffffffffffffffff161415156101dc57600080fd5b80600260008273ffffffffffffffffffffffffffffffffffffffff1673ffffffffffffffffffffffffffffffffffffffff16815260200190815260200160002060009054906101000a900460ff1615151561023657600080fd5b8173ffffffffffffffffffffffffffffffffffffffff167f8595245435170930a21ed26c79efd78952513e5f85ae3d411a586ab25df17bb360405160405180910390a26001600260008473ffffffffffffffffffffffffffffffffffffffff1673ffffffffffffffffffffffffffffffffffffffff16815260200190815260200160002060006101000a81548160ff02191690831515021790555060018290806001815401808255809150509060018203906000526020600020016000909192909190916101000a81548173ffffffffffffffffffffffffffffffffffffffff021916908373ffffffffffffffffffffffffffffffffffffffff160217905550505050565b6000600260003373ffffffffffffffffffffffffffffffffffffffff1673ffffffffffffffffffffffffffffffffffffffff16815260200190815260200160002060009054906101000a900460ff16905090565b60606000809054906101000a900473ffffffffffffffffffffffffffffffffffffffff1673ffffffffffffffffffffffffffffffffffffffff163373ffffffffffffffffffffffffffffffffffffffff161415156103ec57600080fd5b600180548060200260200160405190810160405280929190818152602001828054801561046e57602002820191906000526020600020905b8160009054906101000a900473ffffffffffffffffffffffffffffffffffffffff1673ffffffffffffffffffffffffffffffffffffffff1681526020019060010190808311610424575b5050505050905090565b60008060009054906101000a900473ffffffffffffffffffffffffffffffffffffffff1673ffffffffffffffffffffffffffffffffffffffff163373ffffffffffffffffffffffffffffffffffffffff16149050905600a165627a7a72305820f262bed7867f589bc047d8011ebbe96a5ebc9a49158d3ca2c085f45aa1d6b9350029",
  "source": "pragma solidity ^0.4.17;\n\ncontract OnlineMarketplace {\n  /** This is the admin */\n  address private admin;\n\n  /** Array of store owners */\n  address[] storeOwnersArray;\n\n  /** Mapping of store owners. Used to see if specific address is a store owner. */\n  mapping (address => bool) storeOwners;\n\n  /** Emit when a new owner is added */\n  event newOwner(address indexed _address);\n\n  /** Checks to make sure user is admin. */\n  modifier checkAdmin() {\n    require(msg.sender == admin);\n    _;\n  }\n  \n  /** Checks to make sure owner does not exist already. */\n  modifier checkNewOwner(address _address) {\n    require(!storeOwners[_address]);\n    _;\n  }\n\n  constructor() public {\n    admin = msg.sender;\n  }\n  \n  function addOwner(address _address) public checkAdmin checkNewOwner(_address) {\n    emit newOwner(_address);\n    storeOwners[_address] = true;\n    storeOwnersArray.push(_address);\n  }\n\n  function isOwner() public view returns(bool) {\n    return storeOwners[msg.sender];\n  }\n\n  function isAdmin() public view returns(bool) {\n    return msg.sender == admin;\n  }\n\n  function getOwners() public view checkAdmin returns(address[]) {\n    return storeOwnersArray;\n  }\n\n  function() public {\n    revert();\n  }\n}",
  "sourcePath": "/Users/rshyong/Solidity/online_marketplace/contracts/OnlineMarketplace.sol",
  "compiler": {
    "name": "solc",
    "version": "0.4.24+commit.e67f0147.Emscripten.clang"
  },
  "schemaVersion": "2.0.1",
  "updatedAt": "2018-08-24T03:06:19.157Z"
}