{
  "contractName": "OnlineMarketplace",
  "abi": [
    {
      "constant": true,
      "inputs": [
        {
          "name": "",
          "type": "address"
        }
      ],
      "name": "numStoreFronts",
      "outputs": [
        {
          "name": "",
          "type": "uint256"
        }
      ],
      "payable": false,
      "stateMutability": "view",
      "type": "function"
    },
    {
      "constant": true,
      "inputs": [
        {
          "name": "",
          "type": "uint256"
        }
      ],
      "name": "storeOwners",
      "outputs": [
        {
          "name": "",
          "type": "address"
        }
      ],
      "payable": false,
      "stateMutability": "view",
      "type": "function"
    },
    {
      "constant": true,
      "inputs": [
        {
          "name": "",
          "type": "address"
        },
        {
          "name": "",
          "type": "uint256"
        }
      ],
      "name": "storeFronts",
      "outputs": [
        {
          "name": "name",
          "type": "string"
        },
        {
          "name": "ipfsHash",
          "type": "string"
        },
        {
          "name": "funds",
          "type": "uint256"
        },
        {
          "name": "numProducts",
          "type": "uint256"
        }
      ],
      "payable": false,
      "stateMutability": "view",
      "type": "function"
    },
    {
      "constant": true,
      "inputs": [],
      "name": "admin",
      "outputs": [
        {
          "name": "",
          "type": "address"
        }
      ],
      "payable": false,
      "stateMutability": "view",
      "type": "function"
    },
    {
      "constant": true,
      "inputs": [
        {
          "name": "",
          "type": "address"
        }
      ],
      "name": "storeOwnersAddress",
      "outputs": [
        {
          "name": "",
          "type": "bool"
        }
      ],
      "payable": false,
      "stateMutability": "view",
      "type": "function"
    },
    {
      "constant": true,
      "inputs": [],
      "name": "numStoreOwners",
      "outputs": [
        {
          "name": "",
          "type": "uint256"
        }
      ],
      "payable": false,
      "stateMutability": "view",
      "type": "function"
    },
    {
      "inputs": [],
      "payable": false,
      "stateMutability": "nonpayable",
      "type": "constructor"
    },
    {
      "payable": true,
      "stateMutability": "payable",
      "type": "fallback"
    },
    {
      "anonymous": false,
      "inputs": [
        {
          "indexed": true,
          "name": "_address",
          "type": "address"
        }
      ],
      "name": "EventNewOwner",
      "type": "event"
    },
    {
      "anonymous": false,
      "inputs": [
        {
          "indexed": true,
          "name": "_address",
          "type": "address"
        }
      ],
      "name": "EventDeleteOwner",
      "type": "event"
    },
    {
      "anonymous": false,
      "inputs": [
        {
          "indexed": true,
          "name": "_storeName",
          "type": "string"
        }
      ],
      "name": "EventNewStoreFront",
      "type": "event"
    },
    {
      "anonymous": false,
      "inputs": [
        {
          "indexed": true,
          "name": "_storeName",
          "type": "string"
        }
      ],
      "name": "EventDeleteStoreFront",
      "type": "event"
    },
    {
      "anonymous": false,
      "inputs": [
        {
          "indexed": true,
          "name": "_productName",
          "type": "string"
        }
      ],
      "name": "EventAddProduct",
      "type": "event"
    },
    {
      "anonymous": false,
      "inputs": [
        {
          "indexed": true,
          "name": "_productName",
          "type": "string"
        }
      ],
      "name": "EventDeleteProduct",
      "type": "event"
    },
    {
      "anonymous": false,
      "inputs": [
        {
          "indexed": true,
          "name": "_productName",
          "type": "string"
        }
      ],
      "name": "EventBuyProduct",
      "type": "event"
    },
    {
      "anonymous": false,
      "inputs": [
        {
          "indexed": true,
          "name": "_productName",
          "type": "string"
        }
      ],
      "name": "EventChangePrice",
      "type": "event"
    },
    {
      "anonymous": false,
      "inputs": [
        {
          "indexed": true,
          "name": "_storeName",
          "type": "string"
        }
      ],
      "name": "EventWithdrawFunds",
      "type": "event"
    },
    {
      "constant": false,
      "inputs": [
        {
          "name": "_address",
          "type": "address"
        }
      ],
      "name": "addOwner",
      "outputs": [],
      "payable": false,
      "stateMutability": "nonpayable",
      "type": "function"
    },
    {
      "constant": false,
      "inputs": [
        {
          "name": "_index",
          "type": "uint256"
        }
      ],
      "name": "deleteOwner",
      "outputs": [],
      "payable": false,
      "stateMutability": "nonpayable",
      "type": "function"
    },
    {
      "constant": false,
      "inputs": [
        {
          "name": "_name",
          "type": "string"
        },
        {
          "name": "_ipfsHash",
          "type": "string"
        }
      ],
      "name": "addStoreFront",
      "outputs": [],
      "payable": false,
      "stateMutability": "nonpayable",
      "type": "function"
    },
    {
      "constant": false,
      "inputs": [
        {
          "name": "_index",
          "type": "uint256"
        }
      ],
      "name": "deleteStoreFront",
      "outputs": [],
      "payable": false,
      "stateMutability": "nonpayable",
      "type": "function"
    },
    {
      "constant": false,
      "inputs": [
        {
          "name": "_index",
          "type": "uint256"
        },
        {
          "name": "_name",
          "type": "string"
        },
        {
          "name": "_price",
          "type": "uint256"
        },
        {
          "name": "_quantity",
          "type": "uint256"
        },
        {
          "name": "_ipfsHash",
          "type": "string"
        }
      ],
      "name": "addProduct",
      "outputs": [],
      "payable": false,
      "stateMutability": "nonpayable",
      "type": "function"
    },
    {
      "constant": false,
      "inputs": [
        {
          "name": "_index",
          "type": "uint256"
        },
        {
          "name": "_num",
          "type": "string"
        }
      ],
      "name": "deleteProduct",
      "outputs": [],
      "payable": false,
      "stateMutability": "nonpayable",
      "type": "function"
    },
    {
      "constant": true,
      "inputs": [
        {
          "name": "_address",
          "type": "address"
        },
        {
          "name": "_index",
          "type": "uint256"
        },
        {
          "name": "_num",
          "type": "string"
        }
      ],
      "name": "getProduct",
      "outputs": [
        {
          "name": "",
          "type": "string"
        },
        {
          "name": "",
          "type": "uint256"
        },
        {
          "name": "",
          "type": "uint256"
        }
      ],
      "payable": false,
      "stateMutability": "view",
      "type": "function"
    },
    {
      "constant": false,
      "inputs": [
        {
          "name": "_address",
          "type": "address"
        },
        {
          "name": "_index",
          "type": "uint256"
        },
        {
          "name": "_num",
          "type": "string"
        },
        {
          "name": "quantityToBuy",
          "type": "uint256"
        }
      ],
      "name": "buyProduct",
      "outputs": [],
      "payable": true,
      "stateMutability": "payable",
      "type": "function"
    },
    {
      "constant": false,
      "inputs": [
        {
          "name": "_index",
          "type": "uint256"
        },
        {
          "name": "_num",
          "type": "string"
        },
        {
          "name": "newPrice",
          "type": "uint256"
        }
      ],
      "name": "changePrice",
      "outputs": [],
      "payable": false,
      "stateMutability": "nonpayable",
      "type": "function"
    },
    {
      "constant": false,
      "inputs": [
        {
          "name": "_index",
          "type": "uint256"
        }
      ],
      "name": "withdrawFunds",
      "outputs": [],
      "payable": false,
      "stateMutability": "nonpayable",
      "type": "function"
    }
  ],
  "bytecode": "0x6080604052600060015534801561001557600080fd5b50336000806101000a81548173ffffffffffffffffffffffffffffffffffffffff021916908373ffffffffffffffffffffffffffffffffffffffff160217905550613619806100656000396000f3006080604052600436106100e6576000357c0100000000000000000000000000000000000000000000000000000000900463ffffffff1680630811f401146100e8578063155dd5ee146101155780631719dda7146101425780631ac34de3146101d25780632a077c341461024f5780633f99f5cd146102a657806344d5099314610355578063615feb1a146103c25780637065cb481461050257806370ab5d7214610545578063780dd0cf146105b8578063a4567031146105e5578063e61cffed146106ff578063f851a440146107cc578063fcbe5e6114610823578063fdcce8ae1461087e575b005b3480156100f457600080fd5b50610113600480360381019080803590602001909291905050506108a9565b005b34801561012157600080fd5b5061014060048036038101908080359060200190929190505050610d16565b005b6101d0600480360381019080803573ffffffffffffffffffffffffffffffffffffffff16906020019092919080359060200190929190803590602001908201803590602001908080601f016020809104026020016040519081016040528093929190818152602001838380828437820191505050505050919291929080359060200190929190505050611134565b005b3480156101de57600080fd5b5061024d60048036038101908080359060200190929190803590602001908201803590602001908080601f016020809104026020016040519081016040528093929190818152602001838380828437820191505050505050919291929080359060200190929190505050611599565b005b34801561025b57600080fd5b50610290600480360381019080803573ffffffffffffffffffffffffffffffffffffffff169060200190929190505050611989565b6040518082815260200191505060405180910390f35b3480156102b257600080fd5b50610353600480360381019080803590602001908201803590602001908080601f0160208091040260200160405190810160405280939291908181526020018383808284378201915050505050509192919290803590602001908201803590602001908080601f01602080910402602001604051908101604052809392919081815260200183838082843782019150505050505091929192905050506119a1565b005b34801561036157600080fd5b5061038060048036038101908080359060200190929190505050611e41565b604051808273ffffffffffffffffffffffffffffffffffffffff1673ffffffffffffffffffffffffffffffffffffffff16815260200191505060405180910390f35b3480156103ce57600080fd5b5061040d600480360381019080803573ffffffffffffffffffffffffffffffffffffffff16906020019092919080359060200190929190505050611e7f565b604051808060200180602001858152602001848152602001838103835287818151815260200191508051906020019080838360005b8381101561045d578082015181840152602081019050610442565b50505050905090810190601f16801561048a5780820380516001836020036101000a031916815260200191505b50838103825286818151815260200191508051906020019080838360005b838110156104c35780820151818401526020810190506104a8565b50505050905090810190601f1680156104f05780820380516001836020036101000a031916815260200191505b50965050505050505060405180910390f35b34801561050e57600080fd5b50610543600480360381019080803573ffffffffffffffffffffffffffffffffffffffff169060200190929190505050611ffb565b005b34801561055157600080fd5b506105b660048036038101908080359060200190929190803590602001908201803590602001908080601f01602080910402602001604051908101604052809392919081815260200183838082843782019150505050505091929192905050506121c7565b005b3480156105c457600080fd5b506105e360048036038101908080359060200190929190505050612749565b005b3480156105f157600080fd5b50610676600480360381019080803573ffffffffffffffffffffffffffffffffffffffff16906020019092919080359060200190929190803590602001908201803590602001908080601f0160208091040260200160405190810160405280939291908181526020018383808284378201915050505050509192919290505050612939565b6040518080602001848152602001838152602001828103825285818151815260200191508051906020019080838360005b838110156106c25780820151818401526020810190506106a7565b50505050905090810190601f1680156106ef5780820380516001836020036101000a031916815260200191505b5094505050505060405180910390f35b34801561070b57600080fd5b506107ca60048036038101908080359060200190929190803590602001908201803590602001908080601f01602080910402602001604051908101604052809392919081815260200183838082843782019150505050505091929192908035906020019092919080359060200190929190803590602001908201803590602001908080601f0160208091040260200160405190810160405280939291908181526020018383808284378201915050505050509192919290505050612c46565b005b3480156107d857600080fd5b506107e16132de565b604051808273ffffffffffffffffffffffffffffffffffffffff1673ffffffffffffffffffffffffffffffffffffffff16815260200191505060405180910390f35b34801561082f57600080fd5b50610864600480360381019080803573ffffffffffffffffffffffffffffffffffffffff169060200190929190505050613303565b604051808215151515815260200191505060405180910390f35b34801561088a57600080fd5b50610893613323565b6040518082815260200191505060405180910390f35b6060600360003373ffffffffffffffffffffffffffffffffffffffff1673ffffffffffffffffffffffffffffffffffffffff16815260200190815260200160002060009054906101000a900460ff16151561090357600080fd5b81604051806000019050604051809103902060001916600560003373ffffffffffffffffffffffffffffffffffffffff1673ffffffffffffffffffffffffffffffffffffffff1681526020019081526020016000208281548110151561096557fe5b906000526020600020906005020160000160405160200180828054600181600116156101000203166002900480156109d45780601f106109b25761010080835404028352918201916109d4565b820191906000526020600020905b8154815290600101906020018083116109c0575b50509150506040516020818303038152906040526040518082805190602001908083835b602083101515610a1d57805182526020820191506020810190506020830392506109f8565b6001836020036101000a03801982511681845116808217855250505050505090500191505060405180910390206000191614151515610a5b57600080fd5b600460003373ffffffffffffffffffffffffffffffffffffffff1673ffffffffffffffffffffffffffffffffffffffff168152602001908152602001600020548060018203101515610aac57600080fd5b600560003373ffffffffffffffffffffffffffffffffffffffff1673ffffffffffffffffffffffffffffffffffffffff16815260200190815260200160002084815481101515610af857fe5b90600052602060002090600502016000018054600181600116156101000203166002900480601f016020809104026020016040519081016040528092919081815260200182805460018160011615610100020316600290048015610b9d5780601f10610b7257610100808354040283529160200191610b9d565b820191906000526020600020905b815481529060010190602001808311610b8057829003601f168201915b50505050509250826040518082805190602001908083835b602083101515610bda5780518252602082019150602081019050602083039250610bb5565b6001836020036101000a03801982511681845116808217855250505050505090500191505060405180910390207fe4d8073e8b23b84654c79fb6e41bfb976fff2d2fb6455fd6ba8df288fb70e00c60405160405180910390a2600560003373ffffffffffffffffffffffffffffffffffffffff1673ffffffffffffffffffffffffffffffffffffffff16815260200190815260200160002084815481101515610c7f57fe5b906000526020600020906005020160008082016000610c9e9190613480565b600182016000610cae9190613480565b600282016000905560038201600090555050600460003373ffffffffffffffffffffffffffffffffffffffff1673ffffffffffffffffffffffffffffffffffffffff168152602001908152602001600020600081548092919060019003919050555050505050565b6000600360003373ffffffffffffffffffffffffffffffffffffffff1673ffffffffffffffffffffffffffffffffffffffff16815260200190815260200160002060009054906101000a900460ff161515610d7057600080fd5b81604051806000019050604051809103902060001916600560003373ffffffffffffffffffffffffffffffffffffffff1673ffffffffffffffffffffffffffffffffffffffff16815260200190815260200160002082815481101515610dd257fe5b90600052602060002090600502016000016040516020018082805460018160011615610100020316600290048015610e415780601f10610e1f576101008083540402835291820191610e41565b820191906000526020600020905b815481529060010190602001808311610e2d575b50509150506040516020818303038152906040526040518082805190602001908083835b602083101515610e8a5780518252602082019150602081019050602083039250610e65565b6001836020036101000a03801982511681845116808217855250505050505090500191505060405180910390206000191614151515610ec857600080fd5b6000600560003373ffffffffffffffffffffffffffffffffffffffff1673ffffffffffffffffffffffffffffffffffffffff16815260200190815260200160002084815481101515610f1657fe5b906000526020600020906005020160020154111515610f3457600080fd5b600560003373ffffffffffffffffffffffffffffffffffffffff1673ffffffffffffffffffffffffffffffffffffffff16815260200190815260200160002083815481101515610f8057fe5b90600052602060002090600502016000016040518082805460018160011615610100020316600290048015610fec5780601f10610fca576101008083540402835291820191610fec565b820191906000526020600020905b815481529060010190602001808311610fd8575b505091505060405180910390207f465c8602b07faa0e98aa1d9e0f3456ee1798963d7dd14b8c28c93a03167d697b60405160405180910390a2600560003373ffffffffffffffffffffffffffffffffffffffff1673ffffffffffffffffffffffffffffffffffffffff1681526020019081526020016000208381548110151561107157fe5b90600052602060002090600502016002015491506000600560003373ffffffffffffffffffffffffffffffffffffffff1673ffffffffffffffffffffffffffffffffffffffff168152602001908152602001600020848154811015156110d357fe5b9060005260206000209060050201600201819055503373ffffffffffffffffffffffffffffffffffffffff166108fc839081150290604051600060405180830381858888f1935050505015801561112e573d6000803e3d6000fd5b50505050565b6000806000600560008873ffffffffffffffffffffffffffffffffffffffff1673ffffffffffffffffffffffffffffffffffffffff1681526020019081526020016000208681548110151561118557fe5b9060005260206000209060050201600401856040518082805190602001908083835b6020831015156111cc57805182526020820191506020810190506020830392506111a7565b6001836020036101000a0380198251168184511680821785525050505050509050019150509081526020016040518091039020600101549250600560008873ffffffffffffffffffffffffffffffffffffffff1673ffffffffffffffffffffffffffffffffffffffff1681526020019081526020016000208681548110151561125157fe5b9060005260206000209060050201600401856040518082805190602001908083835b6020831015156112985780518252602082019150602081019050602083039250611273565b6001836020036101000a0380198251168184511680821785525050505050509050019150509081526020016040518091039020600201549150838302905080341480156112e6575081848303105b15156112f157600080fd5b600560008873ffffffffffffffffffffffffffffffffffffffff1673ffffffffffffffffffffffffffffffffffffffff1681526020019081526020016000208681548110151561133d57fe5b9060005260206000209060050201600401856040518082805190602001908083835b602083101515611384578051825260208201915060208101905060208303925061135f565b6001836020036101000a038019825116818451168082178552505050505050905001915050908152602001604051809103902060000160405180828054600181600116156101000203166002900480156114155780601f106113f3576101008083540402835291820191611415565b820191906000526020600020905b815481529060010190602001808311611401575b505091505060405180910390207fa28c646f39f9e222598d17712e8fd6d0ae32531abb19bf4dcde4dd0a710a83c760405160405180910390a283600560008973ffffffffffffffffffffffffffffffffffffffff1673ffffffffffffffffffffffffffffffffffffffff1681526020019081526020016000208781548110151561149b57fe5b9060005260206000209060050201600401866040518082805190602001908083835b6020831015156114e257805182526020820191506020810190506020830392506114bd565b6001836020036101000a03801982511681845116808217855250505050505090500191505090815260200160405180910390206002016000828254039250508190555080600560008973ffffffffffffffffffffffffffffffffffffffff1673ffffffffffffffffffffffffffffffffffffffff1681526020019081526020016000208781548110151561157257fe5b90600052602060002090600502016002016000828254019250508190555050505050505050565b600360003373ffffffffffffffffffffffffffffffffffffffff1673ffffffffffffffffffffffffffffffffffffffff16815260200190815260200160002060009054906101000a900460ff1615156115f157600080fd5b82604051806000019050604051809103902060001916600560003373ffffffffffffffffffffffffffffffffffffffff1673ffffffffffffffffffffffffffffffffffffffff1681526020019081526020016000208281548110151561165357fe5b906000526020600020906005020160000160405160200180828054600181600116156101000203166002900480156116c25780601f106116a05761010080835404028352918201916116c2565b820191906000526020600020905b8154815290600101906020018083116116ae575b50509150506040516020818303038152906040526040518082805190602001908083835b60208310151561170b57805182526020820191506020810190506020830392506116e6565b6001836020036101000a0380198251168184511680821785525050505050509050019150506040518091039020600019161415151561174957600080fd5b60008211151561175857600080fd5b600560003373ffffffffffffffffffffffffffffffffffffffff1673ffffffffffffffffffffffffffffffffffffffff168152602001908152602001600020848154811015156117a457fe5b9060005260206000209060050201600401836040518082805190602001908083835b6020831015156117eb57805182526020820191506020810190506020830392506117c6565b6001836020036101000a0380198251168184511680821785525050505050509050019150509081526020016040518091039020600001604051808280546001816001161561010002031660029004801561187c5780601f1061185a57610100808354040283529182019161187c565b820191906000526020600020905b815481529060010190602001808311611868575b505091505060405180910390207f633a374b0665074408b9f312537868b4d33cb8a9c62000365c1465b878f1be5f60405160405180910390a281600560003373ffffffffffffffffffffffffffffffffffffffff1673ffffffffffffffffffffffffffffffffffffffff1681526020019081526020016000208581548110151561190257fe5b9060005260206000209060050201600401846040518082805190602001908083835b6020831015156119495780518252602082019150602081019050602083039250611924565b6001836020036101000a03801982511681845116808217855250505050505090500191505090815260200160405180910390206001018190555050505050565b60046020528060005260406000206000915090505481565b600360003373ffffffffffffffffffffffffffffffffffffffff1673ffffffffffffffffffffffffffffffffffffffff16815260200190815260200160002060009054906101000a900460ff1615156119f957600080fd5b8160008060019150600090505b600460003373ffffffffffffffffffffffffffffffffffffffff1673ffffffffffffffffffffffffffffffffffffffff16815260200190815260200160002054811015611c7157826040516020018082805190602001908083835b602083101515611a865780518252602082019150602081019050602083039250611a61565b6001836020036101000a0380198251168184511680821785525050505050509050019150506040516020818303038152906040526040518082805190602001908083835b602083101515611aef5780518252602082019150602081019050602083039250611aca565b6001836020036101000a038019825116818451168082178552505050505050905001915050604051809103902060001916600560003373ffffffffffffffffffffffffffffffffffffffff1673ffffffffffffffffffffffffffffffffffffffff16815260200190815260200160002082815481101515611b6c57fe5b90600052602060002090600502016000016040516020018082805460018160011615610100020316600290048015611bdb5780601f10611bb9576101008083540402835291820191611bdb565b820191906000526020600020905b815481529060010190602001808311611bc7575b50509150506040516020818303038152906040526040518082805190602001908083835b602083101515611c245780518252602082019150602081019050602083039250611bff565b6001836020036101000a0380198251168184511680821785525050505050509050019150506040518091039020600019161415611c645760009150611c71565b8080600101915050611a06565b811515611c7d57600080fd5b846040518082805190602001908083835b602083101515611cb35780518252602082019150602081019050602083039250611c8e565b6001836020036101000a03801982511681845116808217855250505050505090500191505060405180910390207f0c2c53d0b7491e69bfe80bc53a8b263f68b2d560c5652a62ea7b44b75d37b93a60405160405180910390a2600560003373ffffffffffffffffffffffffffffffffffffffff1673ffffffffffffffffffffffffffffffffffffffff168152602001908152602001600020608060405190810160405280878152602001868152602001600081526020016000815250908060018154018082558091505090600182039060005260206000209060050201600090919290919091506000820151816000019080519060200190611db69291906134c8565b506020820151816001019080519060200190611dd39291906134c8565b506040820151816002015560608201518160030155505050600460003373ffffffffffffffffffffffffffffffffffffffff1673ffffffffffffffffffffffffffffffffffffffff168152602001908152602001600020600081548092919060010191905055505050505050565b600281815481101515611e5057fe5b906000526020600020016000915054906101000a900473ffffffffffffffffffffffffffffffffffffffff1681565b600560205281600052604060002081815481101515611e9a57fe5b906000526020600020906005020160009150915050806000018054600181600116156101000203166002900480601f016020809104026020016040519081016040528092919081815260200182805460018160011615610100020316600290048015611f475780601f10611f1c57610100808354040283529160200191611f47565b820191906000526020600020905b815481529060010190602001808311611f2a57829003601f168201915b505050505090806001018054600181600116156101000203166002900480601f016020809104026020016040519081016040528092919081815260200182805460018160011615610100020316600290048015611fe55780601f10611fba57610100808354040283529160200191611fe5565b820191906000526020600020905b815481529060010190602001808311611fc857829003601f168201915b5050505050908060020154908060030154905084565b6000809054906101000a900473ffffffffffffffffffffffffffffffffffffffff1673ffffffffffffffffffffffffffffffffffffffff163373ffffffffffffffffffffffffffffffffffffffff1614151561205657600080fd5b80600360008273ffffffffffffffffffffffffffffffffffffffff1673ffffffffffffffffffffffffffffffffffffffff16815260200190815260200160002060009054906101000a900460ff161515156120b057600080fd5b8173ffffffffffffffffffffffffffffffffffffffff167fa0ccbd67048573ce351c45b2a4b73bf775758608cc269a83ff7a9f9dd664054260405160405180910390a260016000815480929190600101919050555060028290806001815401808255809150509060018203906000526020600020016000909192909190916101000a81548173ffffffffffffffffffffffffffffffffffffffff021916908373ffffffffffffffffffffffffffffffffffffffff160217905550506001600360008473ffffffffffffffffffffffffffffffffffffffff1673ffffffffffffffffffffffffffffffffffffffff16815260200190815260200160002060006101000a81548160ff0219169083151502179055505050565b6060600360003373ffffffffffffffffffffffffffffffffffffffff1673ffffffffffffffffffffffffffffffffffffffff16815260200190815260200160002060009054906101000a900460ff16151561222157600080fd5b82604051806000019050604051809103902060001916600560003373ffffffffffffffffffffffffffffffffffffffff1673ffffffffffffffffffffffffffffffffffffffff1681526020019081526020016000208281548110151561228357fe5b906000526020600020906005020160000160405160200180828054600181600116156101000203166002900480156122f25780601f106122d05761010080835404028352918201916122f2565b820191906000526020600020905b8154815290600101906020018083116122de575b50509150506040516020818303038152906040526040518082805190602001908083835b60208310151561233b5780518252602082019150602081019050602083039250612316565b6001836020036101000a0380198251168184511680821785525050505050509050019150506040518091039020600019161415151561237957600080fd5b600560003373ffffffffffffffffffffffffffffffffffffffff1673ffffffffffffffffffffffffffffffffffffffff168152602001908152602001600020848154811015156123c557fe5b90600052602060002090600502016003015480600182031015156123e857600080fd5b600560003373ffffffffffffffffffffffffffffffffffffffff1673ffffffffffffffffffffffffffffffffffffffff1681526020019081526020016000208581548110151561243457fe5b9060005260206000209060050201600401846040518082805190602001908083835b60208310151561247b5780518252602082019150602081019050602083039250612456565b6001836020036101000a03801982511681845116808217855250505050505090500191505090815260200160405180910390206000018054600181600116156101000203166002900480601f0160208091040260200160405190810160405280929190818152602001828054600181600116156101000203166002900480156125455780601f1061251a57610100808354040283529160200191612545565b820191906000526020600020905b81548152906001019060200180831161252857829003601f168201915b50505050509250826040518082805190602001908083835b602083101515612582578051825260208201915060208101905060208303925061255d565b6001836020036101000a03801982511681845116808217855250505050505090500191505060405180910390207f53840b1371dc8b81d9ad0d6918830b4a6bbda8388279c1fab526a2ea3acc739460405160405180910390a2600560003373ffffffffffffffffffffffffffffffffffffffff1673ffffffffffffffffffffffffffffffffffffffff1681526020019081526020016000208581548110151561262757fe5b9060005260206000209060050201600401846040518082805190602001908083835b60208310151561266e5780518252602082019150602081019050602083039250612649565b6001836020036101000a0380198251168184511680821785525050505050509050019150509081526020016040518091039020600080820160006126b29190613480565b600182016000905560028201600090556003820160006126d29190613480565b5050600560003373ffffffffffffffffffffffffffffffffffffffff1673ffffffffffffffffffffffffffffffffffffffff1681526020019081526020016000208581548110151561272057fe5b906000526020600020906005020160030160008154809291906001900391905055505050505050565b60008060009054906101000a900473ffffffffffffffffffffffffffffffffffffffff1673ffffffffffffffffffffffffffffffffffffffff163373ffffffffffffffffffffffffffffffffffffffff161415156127a657600080fd5b6002828154811015156127b557fe5b9060005260206000200160009054906101000a900473ffffffffffffffffffffffffffffffffffffffff169050600360008273ffffffffffffffffffffffffffffffffffffffff1673ffffffffffffffffffffffffffffffffffffffff16815260200190815260200160002060009054906101000a900460ff16801561284057506001546001805403105b151561284b57600080fd5b8073ffffffffffffffffffffffffffffffffffffffff167f8d4c697101c753cf4fcef8b64001514e0c0101b4ce6b4b62ab3f3c7328fd6a0e60405160405180910390a26000600360008373ffffffffffffffffffffffffffffffffffffffff1673ffffffffffffffffffffffffffffffffffffffff16815260200190815260200160002060006101000a81548160ff0219169083151502179055506002828154811015156128f557fe5b9060005260206000200160006101000a81549073ffffffffffffffffffffffffffffffffffffffff0219169055600160008154809291906001900391905055505050565b6060600080600560008773ffffffffffffffffffffffffffffffffffffffff1673ffffffffffffffffffffffffffffffffffffffff1681526020019081526020016000208581548110151561298a57fe5b9060005260206000209060050201600401846040518082805190602001908083835b6020831015156129d157805182526020820191506020810190506020830392506129ac565b6001836020036101000a0380198251168184511680821785525050505050509050019150509081526020016040518091039020600001600560008873ffffffffffffffffffffffffffffffffffffffff1673ffffffffffffffffffffffffffffffffffffffff16815260200190815260200160002086815481101515612a5357fe5b9060005260206000209060050201600401856040518082805190602001908083835b602083101515612a9a5780518252602082019150602081019050602083039250612a75565b6001836020036101000a038019825116818451168082178552505050505050905001915050908152602001604051809103902060010154600560008973ffffffffffffffffffffffffffffffffffffffff1673ffffffffffffffffffffffffffffffffffffffff16815260200190815260200160002087815481101515612b1d57fe5b9060005260206000209060050201600401866040518082805190602001908083835b602083101515612b645780518252602082019150602081019050602083039250612b3f565b6001836020036101000a038019825116818451168082178552505050505050905001915050908152602001604051809103902060020154828054600181600116156101000203166002900480601f016020809104026020016040519081016040528092919081815260200182805460018160011615610100020316600290048015612c305780601f10612c0557610100808354040283529160200191612c30565b820191906000526020600020905b815481529060010190602001808311612c1357829003601f168201915b5050505050925092509250925093509350939050565b60006060600360003373ffffffffffffffffffffffffffffffffffffffff1673ffffffffffffffffffffffffffffffffffffffff16815260200190815260200160002060009054906101000a900460ff161515612ca257600080fd5b86604051806000019050604051809103902060001916600560003373ffffffffffffffffffffffffffffffffffffffff1673ffffffffffffffffffffffffffffffffffffffff16815260200190815260200160002082815481101515612d0457fe5b90600052602060002090600502016000016040516020018082805460018160011615610100020316600290048015612d735780601f10612d51576101008083540402835291820191612d73565b820191906000526020600020905b815481529060010190602001808311612d5f575b50509150506040516020818303038152906040526040518082805190602001908083835b602083101515612dbc5780518252602082019150602081019050602083039250612d97565b6001836020036101000a03801982511681845116808217855250505050505090500191505060405180910390206000191614151515612dfa57600080fd5b600086118015612e0a5750600085115b1515612e1557600080fd5b866040518082805190602001908083835b602083101515612e4b5780518252602082019150602081019050602083039250612e26565b6001836020036101000a03801982511681845116808217855250505050505090500191505060405180910390207f023826ac8153b7d0b8ad612a8087cd73a24cee6c8b0ddd5f5bec25b472d1dc7d60405160405180910390a2600560003373ffffffffffffffffffffffffffffffffffffffff1673ffffffffffffffffffffffffffffffffffffffff16815260200190815260200160002088815481101515612ef057fe5b9060005260206000209060050201600301549250612f0d83613329565b915086600560003373ffffffffffffffffffffffffffffffffffffffff1673ffffffffffffffffffffffffffffffffffffffff16815260200190815260200160002089815481101515612f5c57fe5b9060005260206000209060050201600401836040518082805190602001908083835b602083101515612fa35780518252602082019150602081019050602083039250612f7e565b6001836020036101000a03801982511681845116808217855250505050505090500191505090815260200160405180910390206000019080519060200190612fec929190613548565b5085600560003373ffffffffffffffffffffffffffffffffffffffff1673ffffffffffffffffffffffffffffffffffffffff1681526020019081526020016000208981548110151561303a57fe5b9060005260206000209060050201600401836040518082805190602001908083835b602083101515613081578051825260208201915060208101905060208303925061305c565b6001836020036101000a03801982511681845116808217855250505050505090500191505090815260200160405180910390206001018190555084600560003373ffffffffffffffffffffffffffffffffffffffff1673ffffffffffffffffffffffffffffffffffffffff1681526020019081526020016000208981548110151561310857fe5b9060005260206000209060050201600401836040518082805190602001908083835b60208310151561314f578051825260208201915060208101905060208303925061312a565b6001836020036101000a03801982511681845116808217855250505050505090500191505090815260200160405180910390206002018190555083600560003373ffffffffffffffffffffffffffffffffffffffff1673ffffffffffffffffffffffffffffffffffffffff168152602001908152602001600020898154811015156131d657fe5b9060005260206000209060050201600401836040518082805190602001908083835b60208310151561321d57805182526020820191506020810190506020830392506131f8565b6001836020036101000a03801982511681845116808217855250505050505090500191505090815260200160405180910390206003019080519060200190613266929190613548565b50600560003373ffffffffffffffffffffffffffffffffffffffff1673ffffffffffffffffffffffffffffffffffffffff168152602001908152602001600020888154811015156132b357fe5b9060005260206000209060050201600301600081548092919060010191905055505050505050505050565b6000809054906101000a900473ffffffffffffffffffffffffffffffffffffffff1681565b60036020528060005260406000206000915054906101000a900460ff1681565b60015481565b60606000806060600080861415613377576040805190810160405280600181526020017f30000000000000000000000000000000000000000000000000000000000000008152509450613477565b8593505b6000841415156133a1578280600101935050600a8481151561339957fe5b04935061337b565b826040519080825280601f01601f1916602001820160405280156133d45781602001602082028038833980820191505090505b5091506001830390505b60008614151561347357600a868115156133f457fe5b066030017f01000000000000000000000000000000000000000000000000000000000000000282828060019003935081518110151561342f57fe5b9060200101907effffffffffffffffffffffffffffffffffffffffffffffffffffffffffffff1916908160001a905350600a8681151561346b57fe5b0495506133de565b8194505b50505050919050565b50805460018160011615610100020316600290046000825580601f106134a657506134c5565b601f0160209004906000526020600020908101906134c491906135c8565b5b50565b828054600181600116156101000203166002900490600052602060002090601f016020900481019282601f1061350957805160ff1916838001178555613537565b82800160010185558215613537579182015b8281111561353657825182559160200191906001019061351b565b5b50905061354491906135c8565b5090565b828054600181600116156101000203166002900490600052602060002090601f016020900481019282601f1061358957805160ff19168380011785556135b7565b828001600101855582156135b7579182015b828111156135b657825182559160200191906001019061359b565b5b5090506135c491906135c8565b5090565b6135ea91905b808211156135e65760008160009055506001016135ce565b5090565b905600a165627a7a72305820655443336a5e51e38f1302a8c424780d3b829f84178bc8c90d2a78adf7d29dcb0029",
  "source": "pragma solidity ^0.4.17;\n\n /** @title Online Marketplace. */\ncontract OnlineMarketplace {\n\n  /** @dev Address of admin. */\n  address public admin;\n\n  /** @dev Number of store owners */\n  uint public numStoreOwners = 0;\n\n  /** @dev Array of store owners */\n  address[] public storeOwners;\n\n  /** @dev Mapping of store owners to bool. Used to determine if address is new. */\n  mapping(address => bool) public storeOwnersAddress;\n\n  /** @dev Product struct. Contains price and quantity of the product. */\n  struct Product{\n    string name;\n    uint price;\n    uint quantity;\n    string ipfsHash;\n  }\n\n  /** @dev Storefront struct. Contains name of store, image (stored as ipfs hash), funds, and a mapping to its products. */\n  struct StoreFront{\n    string name;\n    string ipfsHash;\n    uint funds;\n    uint numProducts;\n    mapping(string => Product) products;\n  }\n\n  /** @dev Mapping of store owners to number of storefronts. */\n  mapping (address => uint) public numStoreFronts;\n\n  /** @dev Mapping of store owners to a mapping of storefront name to ipfs hash string. */\n  mapping (address => StoreFront[]) public storeFronts;\n\n  /** @dev Emit when a new owner is added. */\n  event EventNewOwner(address indexed _address);\n\n  /** @dev Emit when an owner is deleted. */\n  event EventDeleteOwner(address indexed _address);\n\n  /** @dev Emit when a new storefront is added. */\n  event EventNewStoreFront(string indexed _storeName);\n\n  /** @dev Emit when a storefront is deleted. */\n  event EventDeleteStoreFront(string indexed _storeName);\n \n  /** @dev Emit when a product is added. */\n  event EventAddProduct(string indexed _productName);\n\n  /** @dev Emit when a product is deleted. */\n  event EventDeleteProduct(string indexed _productName);\n\n  /** @dev Emit when a product is bought. */\n  event EventBuyProduct(string indexed _productName);\n  \n  /** @dev Emit when a product is bought. */\n  event EventChangePrice(string indexed _productName);\n  \n  /** @dev Emit when funds are withdrawn from store. */\n  event EventWithdrawFunds(string indexed _storeName);\n\n  /** @dev Modifier that checks to make sure the sender is an admin. */\n  modifier checkAdmin() {\n    require(msg.sender == admin);\n    _;\n  }\n  \n  /** @dev Modifier that checks to make the sender is an owner. */\n  modifier checkOwner() {\n    require(storeOwnersAddress[msg.sender]);\n    _;\n  }\n\n  /** @dev Modifier that checks to make sure owner does not exist already. \n  * @param _address Address to be checked.\n  */\n  modifier checkNewOwner(address _address) {\n    require(!storeOwnersAddress[_address]);\n    _;\n  }\n\n  /** @dev Modifier that checks storefront name is unique. \n  * @param _name Storefront name to be checked.\n  */\n  modifier checkStoreFrontName(string _name) {\n    bool checkName = true;\n    for (uint i = 0; i < numStoreFronts[msg.sender]; i ++) {\n      if (keccak256(abi.encodePacked(storeFronts[msg.sender][i].name)) == keccak256(abi.encodePacked(_name))) {\n        checkName = false;\n        break;\n      }\n    }\n    require(checkName);\n    _;\n  }\n\n  /** @dev Modifier that checks storefront exists for the caller. \n  * @param _index Index of storefront to be checked.\n  */\n  modifier checkStoreFrontExists(uint _index) {\n    require(keccak256(abi.encodePacked(storeFronts[msg.sender][_index].name)) != keccak256(''));\n    _;\n  }\n\n  /** @dev Modifier that checks for integer underflow. */\n  modifier checkIntegerUnderflow(uint _num) {\n    require(_num - 1 < _num);\n    _;\n  }\n\n  /** @dev Constructor function. Sets admin to be the contract owner. */\n  constructor() public {\n    admin = msg.sender;\n  }\n  \n  /** @dev Adds an owner to the storeOwners mapping.\n  * @param _address Address to be added as store owner.\n  */\n  function addOwner(address _address) public checkAdmin checkNewOwner(_address) {\n    emit EventNewOwner(_address);\n    numStoreOwners++;\n    storeOwners.push(_address);\n    storeOwnersAddress[_address] = true;\n  }\n\n  /** @dev Deletes an owner from the storeOwners mapping.\n  * @param _index Index of the address to be deleted.\n  */\n  function deleteOwner(uint _index) public checkAdmin {\n    address _address = storeOwners[_index];\n    require (storeOwnersAddress[_address] && numStoreOwners - 1 < numStoreOwners);\n    emit EventDeleteOwner(_address);\n    storeOwnersAddress[_address] = false;\n    delete storeOwners[_index];\n    numStoreOwners--;\n  }\n  \n  /** @dev Add a storefront.\n  * @param _name Storefront name.\n  * @param _ipfsHash Storefront image stored as IPFS hash.\n  */\n  function addStoreFront(string _name, string _ipfsHash) public checkOwner checkStoreFrontName(_name) {\n    emit EventNewStoreFront(_name);\n    storeFronts[msg.sender].push(StoreFront(_name, _ipfsHash, 0, 0));\n    numStoreFronts[msg.sender]++;\n  }\n\n  /** @dev Delete a storefront.\n  * @param _index Index of storefront to be deleted.\n  */\n  function deleteStoreFront(uint _index) public checkOwner checkStoreFrontExists(_index) checkIntegerUnderflow(numStoreFronts[msg.sender]) {\n    string memory _name = storeFronts[msg.sender][_index].name;\n    emit EventDeleteStoreFront(_name);\n    delete storeFronts[msg.sender][_index];\n    numStoreFronts[msg.sender]--;\n  }\n\n  /** @dev Converts uint to string.\n  * @param i Integer to be converted to string.\n  * @return Returns string.\n  */\n  function uint2str(uint i) internal pure returns (string){\n    if (i == 0) return \"0\";\n    uint j = i;\n    uint length;\n    while (j != 0){\n        length++;\n        j /= 10;\n    }\n    bytes memory bstr = new bytes(length);\n    uint k = length - 1;\n    while (i != 0){\n        bstr[k--] = byte(48 + i % 10);\n        i /= 10;\n    }\n    return string(bstr);\n  }\n\n  /** @dev Add a product to storefront.\n  * @param _index Index of storefront where product is to be sold.\n  * @param _name Name of product.\n  * @param _price Price of product.\n  * @param _quantity Quantity of product to be sold.\n  */\n  function addProduct(uint _index, string _name, uint _price, uint _quantity, string _ipfsHash) public checkOwner checkStoreFrontExists(_index) {\n    require(_price > 0 && _quantity > 0);\n    emit EventAddProduct(_name);\n    uint numProducts = storeFronts[msg.sender][_index].numProducts;\n    string memory num = uint2str(numProducts);\n    storeFronts[msg.sender][_index].products[num].name = _name;\n    storeFronts[msg.sender][_index].products[num].price = _price;\n    storeFronts[msg.sender][_index].products[num].quantity = _quantity;\n    storeFronts[msg.sender][_index].products[num].ipfsHash = _ipfsHash;\n    storeFronts[msg.sender][_index].numProducts++;\n  }\n\n  /** @dev Delete product from storefront.\n  * @param _index Index of storefront where product is sold.\n  * @param _num Index of product.\n  */\n  function deleteProduct(uint _index, string _num) public checkOwner checkStoreFrontExists(_index) checkIntegerUnderflow(storeFronts[msg.sender][_index].numProducts){\n    string memory _name = storeFronts[msg.sender][_index].products[_num].name;\n    emit EventDeleteProduct(_name);\n    delete storeFronts[msg.sender][_index].products[_num];\n    storeFronts[msg.sender][_index].numProducts--;\n  }\n\n  /** @dev Get product from storefront.\n  * @param _index Index of storefront where product is to be sold.\n  * @param _num Index of product.\n  */\n  function getProduct(address _address, uint _index, string _num) public view returns (string, uint, uint) {\n    return (storeFronts[_address][_index].products[_num].name, storeFronts[_address][_index].products[_num].price, storeFronts[_address][_index].products[_num].quantity);\n  }\n\n  /** @dev Buy product from storefront.\n  * @param _index Index of storefront where product is to be sold.\n  * @param _num Index of product.\n  */\n  function buyProduct(address _address, uint _index, string _num, uint quantityToBuy) public payable {\n    uint _price = storeFronts[_address][_index].products[_num].price;\n    uint _quantity = storeFronts[_address][_index].products[_num].quantity;\n    uint totalPrice = _price * quantityToBuy;\n    require(msg.value == totalPrice && _quantity - quantityToBuy < _quantity);\n    emit EventBuyProduct(storeFronts[_address][_index].products[_num].name);\n    storeFronts[_address][_index].products[_num].quantity -= quantityToBuy;\n    storeFronts[_address][_index].funds += totalPrice;\n  }\n\n  /** @dev Change the price of the product.\n  * @param _index Index of storefront where product is sold.\n  * @param _num Index of product.\n  * @param newPrice New price of product.\n  */\n  function changePrice(uint _index, string _num, uint newPrice) public checkOwner checkStoreFrontExists(_index) {\n    require(newPrice > 0);\n    emit EventChangePrice(storeFronts[msg.sender][_index].products[_num].name);\n    storeFronts[msg.sender][_index].products[_num].price = newPrice;\n  }\n\n  /** @dev Withdraw funds from store.\n  * @param _index Index of storefront where funds are to be withdrawn from.\n  */\n  function withdrawFunds(uint _index) public checkOwner checkStoreFrontExists(_index) {\n    require(storeFronts[msg.sender][_index].funds > 0);\n    emit EventWithdrawFunds(storeFronts[msg.sender][_index].name);\n    uint storeFunds = storeFronts[msg.sender][_index].funds;\n    storeFronts[msg.sender][_index].funds = 0;\n    msg.sender.transfer(storeFunds);\n  }\n\n  /** @dev Fallback function. */\n  function() public payable{}\n}",
  "sourcePath": "/Users/rshyong/Solidity/online_marketplace/contracts/OnlineMarketplace.sol",
  "compiler": {
    "name": "solc",
    "version": "0.4.24+commit.e67f0147.Emscripten.clang"
  },
  "schemaVersion": "2.0.1",
  "updatedAt": "2018-08-26T03:13:08.948Z"
}