{
  "contractName": "OnlineMarketplace",
  "abi": [
    {
      "constant": true,
      "inputs": [
        {
          "name": "",
          "type": "address"
        }
      ],
      "name": "numStoreFronts",
      "outputs": [
        {
          "name": "",
          "type": "uint256"
        }
      ],
      "payable": false,
      "stateMutability": "view",
      "type": "function"
    },
    {
      "constant": true,
      "inputs": [
        {
          "name": "",
          "type": "uint256"
        }
      ],
      "name": "storeOwners",
      "outputs": [
        {
          "name": "",
          "type": "address"
        }
      ],
      "payable": false,
      "stateMutability": "view",
      "type": "function"
    },
    {
      "constant": true,
      "inputs": [
        {
          "name": "",
          "type": "address"
        },
        {
          "name": "",
          "type": "uint256"
        }
      ],
      "name": "storeFronts",
      "outputs": [
        {
          "name": "name",
          "type": "string"
        },
        {
          "name": "ipfsHash",
          "type": "string"
        },
        {
          "name": "funds",
          "type": "uint256"
        },
        {
          "name": "numProducts",
          "type": "uint256"
        }
      ],
      "payable": false,
      "stateMutability": "view",
      "type": "function"
    },
    {
      "constant": true,
      "inputs": [],
      "name": "stopped",
      "outputs": [
        {
          "name": "",
          "type": "bool"
        }
      ],
      "payable": false,
      "stateMutability": "view",
      "type": "function"
    },
    {
      "constant": true,
      "inputs": [
        {
          "name": "",
          "type": "address"
        }
      ],
      "name": "storeOwnersAddress",
      "outputs": [
        {
          "name": "",
          "type": "bool"
        }
      ],
      "payable": false,
      "stateMutability": "view",
      "type": "function"
    },
    {
      "constant": true,
      "inputs": [],
      "name": "numStoreOwners",
      "outputs": [
        {
          "name": "",
          "type": "uint256"
        }
      ],
      "payable": false,
      "stateMutability": "view",
      "type": "function"
    },
    {
      "inputs": [],
      "payable": false,
      "stateMutability": "nonpayable",
      "type": "constructor"
    },
    {
      "payable": true,
      "stateMutability": "payable",
      "type": "fallback"
    },
    {
      "anonymous": false,
      "inputs": [
        {
          "indexed": true,
          "name": "_address",
          "type": "address"
        }
      ],
      "name": "EventNewOwner",
      "type": "event"
    },
    {
      "anonymous": false,
      "inputs": [
        {
          "indexed": true,
          "name": "_address",
          "type": "address"
        }
      ],
      "name": "EventDeleteOwner",
      "type": "event"
    },
    {
      "anonymous": false,
      "inputs": [
        {
          "indexed": false,
          "name": "_storeName",
          "type": "string"
        }
      ],
      "name": "EventNewStoreFront",
      "type": "event"
    },
    {
      "anonymous": false,
      "inputs": [
        {
          "indexed": true,
          "name": "_storeName",
          "type": "string"
        }
      ],
      "name": "EventDeleteStoreFront",
      "type": "event"
    },
    {
      "anonymous": false,
      "inputs": [
        {
          "indexed": false,
          "name": "_productName",
          "type": "string"
        }
      ],
      "name": "EventAddProduct",
      "type": "event"
    },
    {
      "anonymous": false,
      "inputs": [
        {
          "indexed": false,
          "name": "_productName",
          "type": "string"
        }
      ],
      "name": "EventDeleteProduct",
      "type": "event"
    },
    {
      "anonymous": false,
      "inputs": [
        {
          "indexed": false,
          "name": "_productName",
          "type": "string"
        }
      ],
      "name": "EventBuyProduct",
      "type": "event"
    },
    {
      "anonymous": false,
      "inputs": [
        {
          "indexed": false,
          "name": "_address",
          "type": "address"
        },
        {
          "indexed": false,
          "name": "_store",
          "type": "uint256"
        },
        {
          "indexed": false,
          "name": "_product",
          "type": "string"
        },
        {
          "indexed": false,
          "name": "_newPrice",
          "type": "uint256"
        },
        {
          "indexed": false,
          "name": "_productName",
          "type": "string"
        }
      ],
      "name": "EventChangePrice",
      "type": "event"
    },
    {
      "anonymous": false,
      "inputs": [
        {
          "indexed": false,
          "name": "_storeName",
          "type": "string"
        }
      ],
      "name": "EventWithdrawFunds",
      "type": "event"
    },
    {
      "constant": true,
      "inputs": [],
      "name": "isAdmin",
      "outputs": [
        {
          "name": "",
          "type": "bool"
        }
      ],
      "payable": false,
      "stateMutability": "view",
      "type": "function"
    },
    {
      "constant": false,
      "inputs": [],
      "name": "isEmergency",
      "outputs": [],
      "payable": false,
      "stateMutability": "nonpayable",
      "type": "function"
    },
    {
      "constant": false,
      "inputs": [],
      "name": "isSafe",
      "outputs": [],
      "payable": false,
      "stateMutability": "nonpayable",
      "type": "function"
    },
    {
      "constant": false,
      "inputs": [
        {
          "name": "_address",
          "type": "address"
        }
      ],
      "name": "addOwner",
      "outputs": [],
      "payable": false,
      "stateMutability": "nonpayable",
      "type": "function"
    },
    {
      "constant": false,
      "inputs": [
        {
          "name": "_index",
          "type": "uint256"
        }
      ],
      "name": "deleteOwner",
      "outputs": [],
      "payable": false,
      "stateMutability": "nonpayable",
      "type": "function"
    },
    {
      "constant": false,
      "inputs": [
        {
          "name": "_name",
          "type": "string"
        },
        {
          "name": "_ipfsHash",
          "type": "string"
        }
      ],
      "name": "addStoreFront",
      "outputs": [],
      "payable": false,
      "stateMutability": "nonpayable",
      "type": "function"
    },
    {
      "constant": false,
      "inputs": [
        {
          "name": "_index",
          "type": "uint256"
        }
      ],
      "name": "deleteStoreFront",
      "outputs": [],
      "payable": false,
      "stateMutability": "nonpayable",
      "type": "function"
    },
    {
      "constant": false,
      "inputs": [
        {
          "name": "_index",
          "type": "uint256"
        },
        {
          "name": "_name",
          "type": "string"
        },
        {
          "name": "_price",
          "type": "uint256"
        },
        {
          "name": "_quantity",
          "type": "uint256"
        },
        {
          "name": "_ipfsHash",
          "type": "string"
        }
      ],
      "name": "addProduct",
      "outputs": [],
      "payable": false,
      "stateMutability": "nonpayable",
      "type": "function"
    },
    {
      "constant": false,
      "inputs": [
        {
          "name": "_index",
          "type": "uint256"
        },
        {
          "name": "_num",
          "type": "string"
        }
      ],
      "name": "deleteProduct",
      "outputs": [],
      "payable": false,
      "stateMutability": "nonpayable",
      "type": "function"
    },
    {
      "constant": true,
      "inputs": [
        {
          "name": "_address",
          "type": "address"
        },
        {
          "name": "_index",
          "type": "uint256"
        },
        {
          "name": "_num",
          "type": "string"
        }
      ],
      "name": "getProduct",
      "outputs": [
        {
          "name": "",
          "type": "string"
        },
        {
          "name": "",
          "type": "uint256"
        },
        {
          "name": "",
          "type": "uint256"
        },
        {
          "name": "",
          "type": "string"
        }
      ],
      "payable": false,
      "stateMutability": "view",
      "type": "function"
    },
    {
      "constant": false,
      "inputs": [
        {
          "name": "_address",
          "type": "address"
        },
        {
          "name": "_index",
          "type": "uint256"
        },
        {
          "name": "_num",
          "type": "string"
        },
        {
          "name": "quantityToBuy",
          "type": "uint256"
        }
      ],
      "name": "buyProduct",
      "outputs": [],
      "payable": true,
      "stateMutability": "payable",
      "type": "function"
    },
    {
      "constant": false,
      "inputs": [
        {
          "name": "_index",
          "type": "uint256"
        },
        {
          "name": "_num",
          "type": "string"
        },
        {
          "name": "newPrice",
          "type": "uint256"
        }
      ],
      "name": "changePrice",
      "outputs": [],
      "payable": false,
      "stateMutability": "nonpayable",
      "type": "function"
    },
    {
      "constant": false,
      "inputs": [
        {
          "name": "_index",
          "type": "uint256"
        }
      ],
      "name": "withdrawFunds",
      "outputs": [],
      "payable": false,
      "stateMutability": "nonpayable",
      "type": "function"
    }
  ],
  "bytecode": "0x608060405260008060146101000a81548160ff021916908315150217905550600060015534801561002f57600080fd5b50336000806101000a81548173ffffffffffffffffffffffffffffffffffffffff021916908373ffffffffffffffffffffffffffffffffffffffff160217905550613af28061007f6000396000f300608060405260043610610107576000357c0100000000000000000000000000000000000000000000000000000000900463ffffffff1680630811f40114610109578063155dd5ee146101365780631719dda7146101635780631ac34de3146101f35780632a077c34146102705780633f99f5cd146102c757806344d50993146103765780635f9e8f82146103e3578063615feb1a146103fa5780636a276f9d1461053a5780637065cb481461055157806370ab5d721461059457806375f12b2114610607578063780dd0cf14610636578063a456703114610663578063b6db75a0146107e9578063e61cffed14610818578063fcbe5e61146108e5578063fdcce8ae14610940575b005b34801561011557600080fd5b506101346004803603810190808035906020019092919050505061096b565b005b34801561014257600080fd5b5061016160048036038101908080359060200190929190505050610dd8565b005b6101f1600480360381019080803573ffffffffffffffffffffffffffffffffffffffff16906020019092919080359060200190929190803590602001908201803590602001908080601f016020809104026020016040519081016040528093929190818152602001838380828437820191505050505050919291929080359060200190929190505050611235565b005b3480156101ff57600080fd5b5061026e60048036038101908080359060200190929190803590602001908201803590602001908080601f0160208091040260200160405190810160405280939291908181526020018383808284378201915050505050509192919290803590602001909291905050506116d9565b005b34801561027c57600080fd5b506102b1600480360381019080803573ffffffffffffffffffffffffffffffffffffffff169060200190929190505050611b9e565b6040518082815260200191505060405180910390f35b3480156102d357600080fd5b50610374600480360381019080803590602001908201803590602001908080601f0160208091040260200160405190810160405280939291908181526020018383808284378201915050505050509192919290803590602001908201803590602001908080601f0160208091040260200160405190810160405280939291908181526020018383808284378201915050505050509192919290505050611bb6565b005b34801561038257600080fd5b506103a160048036038101908080359060200190929190505050612063565b604051808273ffffffffffffffffffffffffffffffffffffffff1673ffffffffffffffffffffffffffffffffffffffff16815260200191505060405180910390f35b3480156103ef57600080fd5b506103f86120a1565b005b34801561040657600080fd5b50610445600480360381019080803573ffffffffffffffffffffffffffffffffffffffff16906020019092919080359060200190929190505050612119565b604051808060200180602001858152602001848152602001838103835287818151815260200191508051906020019080838360005b8381101561049557808201518184015260208101905061047a565b50505050905090810190601f1680156104c25780820380516001836020036101000a031916815260200191505b50838103825286818151815260200191508051906020019080838360005b838110156104fb5780820151818401526020810190506104e0565b50505050905090810190601f1680156105285780820380516001836020036101000a031916815260200191505b50965050505050505060405180910390f35b34801561054657600080fd5b5061054f612295565b005b34801561055d57600080fd5b50610592600480360381019080803573ffffffffffffffffffffffffffffffffffffffff16906020019092919050505061230c565b005b3480156105a057600080fd5b5061060560048036038101908080359060200190929190803590602001908201803590602001908080601f01602080910402602001604051908101604052809392919081815260200183838082843782019150505050505091929192905050506124d8565b005b34801561061357600080fd5b5061061c612a67565b604051808215151515815260200191505060405180910390f35b34801561064257600080fd5b5061066160048036038101908080359060200190929190505050612a7a565b005b34801561066f57600080fd5b506106f4600480360381019080803573ffffffffffffffffffffffffffffffffffffffff16906020019092919080359060200190929190803590602001908201803590602001908080601f0160208091040260200160405190810160405280939291908181526020018383808284378201915050505050509192919290505050612c6a565b604051808060200185815260200184815260200180602001838103835287818151815260200191508051906020019080838360005b83811015610744578082015181840152602081019050610729565b50505050905090810190601f1680156107715780820380516001836020036101000a031916815260200191505b50838103825284818151815260200191508051906020019080838360005b838110156107aa57808201518184015260208101905061078f565b50505050905090810190601f1680156107d75780820380516001836020036101000a031916815260200191505b50965050505050505060405180910390f35b3480156107f557600080fd5b506107fe6130e0565b604051808215151515815260200191505060405180910390f35b34801561082457600080fd5b506108e360048036038101908080359060200190929190803590602001908201803590602001908080601f01602080910402602001604051908101604052809392919081815260200183838082843782019150505050505091929192908035906020019092919080359060200190929190803590602001908201803590602001908080601f0160208091040260200160405190810160405280939291908181526020018383808284378201915050505050509192919290505050613137565b005b3480156108f157600080fd5b50610926600480360381019080803573ffffffffffffffffffffffffffffffffffffffff1690602001909291905050506137dc565b604051808215151515815260200191505060405180910390f35b34801561094c57600080fd5b506109556137fc565b6040518082815260200191505060405180910390f35b6060600360003373ffffffffffffffffffffffffffffffffffffffff1673ffffffffffffffffffffffffffffffffffffffff16815260200190815260200160002060009054906101000a900460ff1615156109c557600080fd5b81604051806000019050604051809103902060001916600560003373ffffffffffffffffffffffffffffffffffffffff1673ffffffffffffffffffffffffffffffffffffffff16815260200190815260200160002082815481101515610a2757fe5b90600052602060002090600502016000016040516020018082805460018160011615610100020316600290048015610a965780601f10610a74576101008083540402835291820191610a96565b820191906000526020600020905b815481529060010190602001808311610a82575b50509150506040516020818303038152906040526040518082805190602001908083835b602083101515610adf5780518252602082019150602081019050602083039250610aba565b6001836020036101000a03801982511681845116808217855250505050505090500191505060405180910390206000191614151515610b1d57600080fd5b600460003373ffffffffffffffffffffffffffffffffffffffff1673ffffffffffffffffffffffffffffffffffffffff168152602001908152602001600020548060018203101515610b6e57600080fd5b600560003373ffffffffffffffffffffffffffffffffffffffff1673ffffffffffffffffffffffffffffffffffffffff16815260200190815260200160002084815481101515610bba57fe5b90600052602060002090600502016000018054600181600116156101000203166002900480601f016020809104026020016040519081016040528092919081815260200182805460018160011615610100020316600290048015610c5f5780601f10610c3457610100808354040283529160200191610c5f565b820191906000526020600020905b815481529060010190602001808311610c4257829003601f168201915b50505050509250826040518082805190602001908083835b602083101515610c9c5780518252602082019150602081019050602083039250610c77565b6001836020036101000a03801982511681845116808217855250505050505090500191505060405180910390207fe4d8073e8b23b84654c79fb6e41bfb976fff2d2fb6455fd6ba8df288fb70e00c60405160405180910390a2600560003373ffffffffffffffffffffffffffffffffffffffff1673ffffffffffffffffffffffffffffffffffffffff16815260200190815260200160002084815481101515610d4157fe5b906000526020600020906005020160008082016000610d609190613959565b600182016000610d709190613959565b600282016000905560038201600090555050600460003373ffffffffffffffffffffffffffffffffffffffff1673ffffffffffffffffffffffffffffffffffffffff168152602001908152602001600020600081548092919060019003919050555050505050565b60008060149054906101000a900460ff16151515610df557600080fd5b600360003373ffffffffffffffffffffffffffffffffffffffff1673ffffffffffffffffffffffffffffffffffffffff16815260200190815260200160002060009054906101000a900460ff161515610e4d57600080fd5b81604051806000019050604051809103902060001916600560003373ffffffffffffffffffffffffffffffffffffffff1673ffffffffffffffffffffffffffffffffffffffff16815260200190815260200160002082815481101515610eaf57fe5b90600052602060002090600502016000016040516020018082805460018160011615610100020316600290048015610f1e5780601f10610efc576101008083540402835291820191610f1e565b820191906000526020600020905b815481529060010190602001808311610f0a575b50509150506040516020818303038152906040526040518082805190602001908083835b602083101515610f675780518252602082019150602081019050602083039250610f42565b6001836020036101000a03801982511681845116808217855250505050505090500191505060405180910390206000191614151515610fa557600080fd5b6000600560003373ffffffffffffffffffffffffffffffffffffffff1673ffffffffffffffffffffffffffffffffffffffff16815260200190815260200160002084815481101515610ff357fe5b90600052602060002090600502016002015411151561101157600080fd5b7f465c8602b07faa0e98aa1d9e0f3456ee1798963d7dd14b8c28c93a03167d697b600560003373ffffffffffffffffffffffffffffffffffffffff1673ffffffffffffffffffffffffffffffffffffffff1681526020019081526020016000208481548110151561107e57fe5b906000526020600020906005020160000160405180806020018281038252838181546001816001161561010002031660029004815260200191508054600181600116156101000203166002900480156111185780601f106110ed57610100808354040283529160200191611118565b820191906000526020600020905b8154815290600101906020018083116110fb57829003601f168201915b50509250505060405180910390a1600560003373ffffffffffffffffffffffffffffffffffffffff1673ffffffffffffffffffffffffffffffffffffffff1681526020019081526020016000208381548110151561117257fe5b90600052602060002090600502016002015491506000600560003373ffffffffffffffffffffffffffffffffffffffff1673ffffffffffffffffffffffffffffffffffffffff168152602001908152602001600020848154811015156111d457fe5b9060005260206000209060050201600201819055503373ffffffffffffffffffffffffffffffffffffffff166108fc839081150290604051600060405180830381858888f1935050505015801561122f573d6000803e3d6000fd5b50505050565b60008060008060149054906101000a900460ff1615151561125557600080fd5b600560008873ffffffffffffffffffffffffffffffffffffffff1673ffffffffffffffffffffffffffffffffffffffff168152602001908152602001600020868154811015156112a157fe5b9060005260206000209060050201600401856040518082805190602001908083835b6020831015156112e857805182526020820191506020810190506020830392506112c3565b6001836020036101000a0380198251168184511680821785525050505050509050019150509081526020016040518091039020600101549250600560008873ffffffffffffffffffffffffffffffffffffffff1673ffffffffffffffffffffffffffffffffffffffff1681526020019081526020016000208681548110151561136d57fe5b9060005260206000209060050201600401856040518082805190602001908083835b6020831015156113b4578051825260208201915060208101905060208303925061138f565b6001836020036101000a038019825116818451168082178552505050505050905001915050908152602001604051809103902060020154915083830290508034148015611402575081848303105b151561140d57600080fd5b7fa28c646f39f9e222598d17712e8fd6d0ae32531abb19bf4dcde4dd0a710a83c7600560008973ffffffffffffffffffffffffffffffffffffffff1673ffffffffffffffffffffffffffffffffffffffff1681526020019081526020016000208781548110151561147a57fe5b9060005260206000209060050201600401866040518082805190602001908083835b6020831015156114c1578051825260208201915060208101905060208303925061149c565b6001836020036101000a038019825116818451168082178552505050505050905001915050908152602001604051809103902060000160405180806020018281038252838181546001816001161561010002031660029004815260200191508054600181600116156101000203166002900480156115805780601f1061155557610100808354040283529160200191611580565b820191906000526020600020905b81548152906001019060200180831161156357829003601f168201915b50509250505060405180910390a183600560008973ffffffffffffffffffffffffffffffffffffffff1673ffffffffffffffffffffffffffffffffffffffff168152602001908152602001600020878154811015156115db57fe5b9060005260206000209060050201600401866040518082805190602001908083835b60208310151561162257805182526020820191506020810190506020830392506115fd565b6001836020036101000a03801982511681845116808217855250505050505090500191505090815260200160405180910390206002016000828254039250508190555080600560008973ffffffffffffffffffffffffffffffffffffffff1673ffffffffffffffffffffffffffffffffffffffff168152602001908152602001600020878154811015156116b257fe5b90600052602060002090600502016002016000828254019250508190555050505050505050565b600360003373ffffffffffffffffffffffffffffffffffffffff1673ffffffffffffffffffffffffffffffffffffffff16815260200190815260200160002060009054906101000a900460ff16151561173157600080fd5b82604051806000019050604051809103902060001916600560003373ffffffffffffffffffffffffffffffffffffffff1673ffffffffffffffffffffffffffffffffffffffff1681526020019081526020016000208281548110151561179357fe5b906000526020600020906005020160000160405160200180828054600181600116156101000203166002900480156118025780601f106117e0576101008083540402835291820191611802565b820191906000526020600020905b8154815290600101906020018083116117ee575b50509150506040516020818303038152906040526040518082805190602001908083835b60208310151561184b5780518252602082019150602081019050602083039250611826565b6001836020036101000a0380198251168184511680821785525050505050509050019150506040518091039020600019161415151561188957600080fd5b60008211151561189857600080fd5b7f5bf05743ed981777d943b100f2ce7ac2758b7fda17a4458b3514033a40df40d833858585600560003373ffffffffffffffffffffffffffffffffffffffff1673ffffffffffffffffffffffffffffffffffffffff1681526020019081526020016000208981548110151561190957fe5b9060005260206000209060050201600401886040518082805190602001908083835b602083101515611950578051825260208201915060208101905060208303925061192b565b6001836020036101000a0380198251168184511680821785525050505050509050019150509081526020016040518091039020600001604051808673ffffffffffffffffffffffffffffffffffffffff1673ffffffffffffffffffffffffffffffffffffffff1681526020018581526020018060200184815260200180602001838103835286818151815260200191508051906020019080838360005b83811015611a085780820151818401526020810190506119ed565b50505050905090810190601f168015611a355780820380516001836020036101000a031916815260200191505b50838103825284818154600181600116156101000203166002900481526020019150805460018160011615610100020316600290048015611ab75780601f10611a8c57610100808354040283529160200191611ab7565b820191906000526020600020905b815481529060010190602001808311611a9a57829003601f168201915b505097505050505050505060405180910390a181600560003373ffffffffffffffffffffffffffffffffffffffff1673ffffffffffffffffffffffffffffffffffffffff16815260200190815260200160002085815481101515611b1757fe5b9060005260206000209060050201600401846040518082805190602001908083835b602083101515611b5e5780518252602082019150602081019050602083039250611b39565b6001836020036101000a03801982511681845116808217855250505050505090500191505090815260200160405180910390206001018190555050505050565b60046020528060005260406000206000915090505481565b600360003373ffffffffffffffffffffffffffffffffffffffff1673ffffffffffffffffffffffffffffffffffffffff16815260200190815260200160002060009054906101000a900460ff161515611c0e57600080fd5b8160008060019150600090505b600460003373ffffffffffffffffffffffffffffffffffffffff1673ffffffffffffffffffffffffffffffffffffffff16815260200190815260200160002054811015611e8657826040516020018082805190602001908083835b602083101515611c9b5780518252602082019150602081019050602083039250611c76565b6001836020036101000a0380198251168184511680821785525050505050509050019150506040516020818303038152906040526040518082805190602001908083835b602083101515611d045780518252602082019150602081019050602083039250611cdf565b6001836020036101000a038019825116818451168082178552505050505050905001915050604051809103902060001916600560003373ffffffffffffffffffffffffffffffffffffffff1673ffffffffffffffffffffffffffffffffffffffff16815260200190815260200160002082815481101515611d8157fe5b90600052602060002090600502016000016040516020018082805460018160011615610100020316600290048015611df05780601f10611dce576101008083540402835291820191611df0565b820191906000526020600020905b815481529060010190602001808311611ddc575b50509150506040516020818303038152906040526040518082805190602001908083835b602083101515611e395780518252602082019150602081019050602083039250611e14565b6001836020036101000a0380198251168184511680821785525050505050509050019150506040518091039020600019161415611e795760009150611e86565b8080600101915050611c1b565b811515611e9257600080fd5b7f0c2c53d0b7491e69bfe80bc53a8b263f68b2d560c5652a62ea7b44b75d37b93a856040518080602001828103825283818151815260200191508051906020019080838360005b83811015611ef4578082015181840152602081019050611ed9565b50505050905090810190601f168015611f215780820380516001836020036101000a031916815260200191505b509250505060405180910390a1600560003373ffffffffffffffffffffffffffffffffffffffff1673ffffffffffffffffffffffffffffffffffffffff168152602001908152602001600020608060405190810160405280878152602001868152602001600081526020016000815250908060018154018082558091505090600182039060005260206000209060050201600090919290919091506000820151816000019080519060200190611fd89291906139a1565b506020820151816001019080519060200190611ff59291906139a1565b506040820151816002015560608201518160030155505050600460003373ffffffffffffffffffffffffffffffffffffffff1673ffffffffffffffffffffffffffffffffffffffff168152602001908152602001600020600081548092919060010191905055505050505050565b60028181548110151561207257fe5b906000526020600020016000915054906101000a900473ffffffffffffffffffffffffffffffffffffffff1681565b6000809054906101000a900473ffffffffffffffffffffffffffffffffffffffff1673ffffffffffffffffffffffffffffffffffffffff163373ffffffffffffffffffffffffffffffffffffffff161415156120fc57600080fd5b6001600060146101000a81548160ff021916908315150217905550565b60056020528160005260406000208181548110151561213457fe5b906000526020600020906005020160009150915050806000018054600181600116156101000203166002900480601f0160208091040260200160405190810160405280929190818152602001828054600181600116156101000203166002900480156121e15780601f106121b6576101008083540402835291602001916121e1565b820191906000526020600020905b8154815290600101906020018083116121c457829003601f168201915b505050505090806001018054600181600116156101000203166002900480601f01602080910402602001604051908101604052809291908181526020018280546001816001161561010002031660029004801561227f5780601f106122545761010080835404028352916020019161227f565b820191906000526020600020905b81548152906001019060200180831161226257829003601f168201915b5050505050908060020154908060030154905084565b6000809054906101000a900473ffffffffffffffffffffffffffffffffffffffff1673ffffffffffffffffffffffffffffffffffffffff163373ffffffffffffffffffffffffffffffffffffffff161415156122f057600080fd5b60008060146101000a81548160ff021916908315150217905550565b6000809054906101000a900473ffffffffffffffffffffffffffffffffffffffff1673ffffffffffffffffffffffffffffffffffffffff163373ffffffffffffffffffffffffffffffffffffffff1614151561236757600080fd5b80600360008273ffffffffffffffffffffffffffffffffffffffff1673ffffffffffffffffffffffffffffffffffffffff16815260200190815260200160002060009054906101000a900460ff161515156123c157600080fd5b8173ffffffffffffffffffffffffffffffffffffffff167fa0ccbd67048573ce351c45b2a4b73bf775758608cc269a83ff7a9f9dd664054260405160405180910390a260016000815480929190600101919050555060028290806001815401808255809150509060018203906000526020600020016000909192909190916101000a81548173ffffffffffffffffffffffffffffffffffffffff021916908373ffffffffffffffffffffffffffffffffffffffff160217905550506001600360008473ffffffffffffffffffffffffffffffffffffffff1673ffffffffffffffffffffffffffffffffffffffff16815260200190815260200160002060006101000a81548160ff0219169083151502179055505050565b6060600360003373ffffffffffffffffffffffffffffffffffffffff1673ffffffffffffffffffffffffffffffffffffffff16815260200190815260200160002060009054906101000a900460ff16151561253257600080fd5b82604051806000019050604051809103902060001916600560003373ffffffffffffffffffffffffffffffffffffffff1673ffffffffffffffffffffffffffffffffffffffff1681526020019081526020016000208281548110151561259457fe5b906000526020600020906005020160000160405160200180828054600181600116156101000203166002900480156126035780601f106125e1576101008083540402835291820191612603565b820191906000526020600020905b8154815290600101906020018083116125ef575b50509150506040516020818303038152906040526040518082805190602001908083835b60208310151561264c5780518252602082019150602081019050602083039250612627565b6001836020036101000a0380198251168184511680821785525050505050509050019150506040518091039020600019161415151561268a57600080fd5b600560003373ffffffffffffffffffffffffffffffffffffffff1673ffffffffffffffffffffffffffffffffffffffff168152602001908152602001600020848154811015156126d657fe5b90600052602060002090600502016003015480600182031015156126f957600080fd5b600560003373ffffffffffffffffffffffffffffffffffffffff1673ffffffffffffffffffffffffffffffffffffffff1681526020019081526020016000208581548110151561274557fe5b9060005260206000209060050201600401846040518082805190602001908083835b60208310151561278c5780518252602082019150602081019050602083039250612767565b6001836020036101000a03801982511681845116808217855250505050505090500191505090815260200160405180910390206000018054600181600116156101000203166002900480601f0160208091040260200160405190810160405280929190818152602001828054600181600116156101000203166002900480156128565780601f1061282b57610100808354040283529160200191612856565b820191906000526020600020905b81548152906001019060200180831161283957829003601f168201915b505050505092507f53840b1371dc8b81d9ad0d6918830b4a6bbda8388279c1fab526a2ea3acc7394836040518080602001828103825283818151815260200191508051906020019080838360005b838110156128bf5780820151818401526020810190506128a4565b50505050905090810190601f1680156128ec5780820380516001836020036101000a031916815260200191505b509250505060405180910390a1600560003373ffffffffffffffffffffffffffffffffffffffff1673ffffffffffffffffffffffffffffffffffffffff1681526020019081526020016000208581548110151561294557fe5b9060005260206000209060050201600401846040518082805190602001908083835b60208310151561298c5780518252602082019150602081019050602083039250612967565b6001836020036101000a0380198251168184511680821785525050505050509050019150509081526020016040518091039020600080820160006129d09190613959565b600182016000905560028201600090556003820160006129f09190613959565b5050600560003373ffffffffffffffffffffffffffffffffffffffff1673ffffffffffffffffffffffffffffffffffffffff16815260200190815260200160002085815481101515612a3e57fe5b906000526020600020906005020160030160008154809291906001900391905055505050505050565b600060149054906101000a900460ff1681565b60008060009054906101000a900473ffffffffffffffffffffffffffffffffffffffff1673ffffffffffffffffffffffffffffffffffffffff163373ffffffffffffffffffffffffffffffffffffffff16141515612ad757600080fd5b600282815481101515612ae657fe5b9060005260206000200160009054906101000a900473ffffffffffffffffffffffffffffffffffffffff169050600360008273ffffffffffffffffffffffffffffffffffffffff1673ffffffffffffffffffffffffffffffffffffffff16815260200190815260200160002060009054906101000a900460ff168015612b7157506001546001805403105b1515612b7c57600080fd5b8073ffffffffffffffffffffffffffffffffffffffff167f8d4c697101c753cf4fcef8b64001514e0c0101b4ce6b4b62ab3f3c7328fd6a0e60405160405180910390a26000600360008373ffffffffffffffffffffffffffffffffffffffff1673ffffffffffffffffffffffffffffffffffffffff16815260200190815260200160002060006101000a81548160ff021916908315150217905550600282815481101515612c2657fe5b9060005260206000200160006101000a81549073ffffffffffffffffffffffffffffffffffffffff0219169055600160008154809291906001900391905055505050565b60606000806060600560008873ffffffffffffffffffffffffffffffffffffffff1673ffffffffffffffffffffffffffffffffffffffff16815260200190815260200160002086815481101515612cbd57fe5b9060005260206000209060050201600401856040518082805190602001908083835b602083101515612d045780518252602082019150602081019050602083039250612cdf565b6001836020036101000a0380198251168184511680821785525050505050509050019150509081526020016040518091039020600001600560008973ffffffffffffffffffffffffffffffffffffffff1673ffffffffffffffffffffffffffffffffffffffff16815260200190815260200160002087815481101515612d8657fe5b9060005260206000209060050201600401866040518082805190602001908083835b602083101515612dcd5780518252602082019150602081019050602083039250612da8565b6001836020036101000a038019825116818451168082178552505050505050905001915050908152602001604051809103902060010154600560008a73ffffffffffffffffffffffffffffffffffffffff1673ffffffffffffffffffffffffffffffffffffffff16815260200190815260200160002088815481101515612e5057fe5b9060005260206000209060050201600401876040518082805190602001908083835b602083101515612e975780518252602082019150602081019050602083039250612e72565b6001836020036101000a038019825116818451168082178552505050505050905001915050908152602001604051809103902060020154600560008b73ffffffffffffffffffffffffffffffffffffffff1673ffffffffffffffffffffffffffffffffffffffff16815260200190815260200160002089815481101515612f1a57fe5b9060005260206000209060050201600401886040518082805190602001908083835b602083101515612f615780518252602082019150602081019050602083039250612f3c565b6001836020036101000a0380198251168184511680821785525050505050509050019150509081526020016040518091039020600301838054600181600116156101000203166002900480601f01602080910402602001604051908101604052809291908181526020018280546001816001161561010002031660029004801561302c5780601f106130015761010080835404028352916020019161302c565b820191906000526020600020905b81548152906001019060200180831161300f57829003601f168201915b50505050509350808054600181600116156101000203166002900480601f0160208091040260200160405190810160405280929190818152602001828054600181600116156101000203166002900480156130c85780601f1061309d576101008083540402835291602001916130c8565b820191906000526020600020905b8154815290600101906020018083116130ab57829003601f168201915b50505050509050935093509350935093509350935093565b60003373ffffffffffffffffffffffffffffffffffffffff166000809054906101000a900473ffffffffffffffffffffffffffffffffffffffff1673ffffffffffffffffffffffffffffffffffffffff1614905090565b60006060600360003373ffffffffffffffffffffffffffffffffffffffff1673ffffffffffffffffffffffffffffffffffffffff16815260200190815260200160002060009054906101000a900460ff16151561319357600080fd5b86604051806000019050604051809103902060001916600560003373ffffffffffffffffffffffffffffffffffffffff1673ffffffffffffffffffffffffffffffffffffffff168152602001908152602001600020828154811015156131f557fe5b906000526020600020906005020160000160405160200180828054600181600116156101000203166002900480156132645780601f10613242576101008083540402835291820191613264565b820191906000526020600020905b815481529060010190602001808311613250575b50509150506040516020818303038152906040526040518082805190602001908083835b6020831015156132ad5780518252602082019150602081019050602083039250613288565b6001836020036101000a038019825116818451168082178552505050505050905001915050604051809103902060001916141515156132eb57600080fd5b6000861180156132fb5750600085115b151561330657600080fd5b7f023826ac8153b7d0b8ad612a8087cd73a24cee6c8b0ddd5f5bec25b472d1dc7d876040518080602001828103825283818151815260200191508051906020019080838360005b8381101561336857808201518184015260208101905061334d565b50505050905090810190601f1680156133955780820380516001836020036101000a031916815260200191505b509250505060405180910390a1600560003373ffffffffffffffffffffffffffffffffffffffff1673ffffffffffffffffffffffffffffffffffffffff168152602001908152602001600020888154811015156133ee57fe5b906000526020600020906005020160030154925061340b83613802565b915086600560003373ffffffffffffffffffffffffffffffffffffffff1673ffffffffffffffffffffffffffffffffffffffff1681526020019081526020016000208981548110151561345a57fe5b9060005260206000209060050201600401836040518082805190602001908083835b6020831015156134a1578051825260208201915060208101905060208303925061347c565b6001836020036101000a038019825116818451168082178552505050505050905001915050908152602001604051809103902060000190805190602001906134ea929190613a21565b5085600560003373ffffffffffffffffffffffffffffffffffffffff1673ffffffffffffffffffffffffffffffffffffffff1681526020019081526020016000208981548110151561353857fe5b9060005260206000209060050201600401836040518082805190602001908083835b60208310151561357f578051825260208201915060208101905060208303925061355a565b6001836020036101000a03801982511681845116808217855250505050505090500191505090815260200160405180910390206001018190555084600560003373ffffffffffffffffffffffffffffffffffffffff1673ffffffffffffffffffffffffffffffffffffffff1681526020019081526020016000208981548110151561360657fe5b9060005260206000209060050201600401836040518082805190602001908083835b60208310151561364d5780518252602082019150602081019050602083039250613628565b6001836020036101000a03801982511681845116808217855250505050505090500191505090815260200160405180910390206002018190555083600560003373ffffffffffffffffffffffffffffffffffffffff1673ffffffffffffffffffffffffffffffffffffffff168152602001908152602001600020898154811015156136d457fe5b9060005260206000209060050201600401836040518082805190602001908083835b60208310151561371b57805182526020820191506020810190506020830392506136f6565b6001836020036101000a03801982511681845116808217855250505050505090500191505090815260200160405180910390206003019080519060200190613764929190613a21565b50600560003373ffffffffffffffffffffffffffffffffffffffff1673ffffffffffffffffffffffffffffffffffffffff168152602001908152602001600020888154811015156137b157fe5b9060005260206000209060050201600301600081548092919060010191905055505050505050505050565b60036020528060005260406000206000915054906101000a900460ff1681565b60015481565b60606000806060600080861415613850576040805190810160405280600181526020017f30000000000000000000000000000000000000000000000000000000000000008152509450613950565b8593505b60008414151561387a578280600101935050600a8481151561387257fe5b049350613854565b826040519080825280601f01601f1916602001820160405280156138ad5781602001602082028038833980820191505090505b5091506001830390505b60008614151561394c57600a868115156138cd57fe5b066030017f01000000000000000000000000000000000000000000000000000000000000000282828060019003935081518110151561390857fe5b9060200101907effffffffffffffffffffffffffffffffffffffffffffffffffffffffffffff1916908160001a905350600a8681151561394457fe5b0495506138b7565b8194505b50505050919050565b50805460018160011615610100020316600290046000825580601f1061397f575061399e565b601f01602090049060005260206000209081019061399d9190613aa1565b5b50565b828054600181600116156101000203166002900490600052602060002090601f016020900481019282601f106139e257805160ff1916838001178555613a10565b82800160010185558215613a10579182015b82811115613a0f5782518255916020019190600101906139f4565b5b509050613a1d9190613aa1565b5090565b828054600181600116156101000203166002900490600052602060002090601f016020900481019282601f10613a6257805160ff1916838001178555613a90565b82800160010185558215613a90579182015b82811115613a8f578251825591602001919060010190613a74565b5b509050613a9d9190613aa1565b5090565b613ac391905b80821115613abf576000816000905550600101613aa7565b5090565b905600a165627a7a723058209586d42cae99a7092bd93b2423e054043b4114310a46c8981092dc39c211cc500029",
  "source": "pragma solidity ^0.4.17;\n\n /** @title Online Marketplace. */\ncontract OnlineMarketplace {\n\n  /** @dev Address of admin. */\n  address private admin;\n\n  /** @dev Circuit breaker variable. Used to prevent people from buying products or withdrawing funds. */\n  bool public stopped = false;\n\n  /** @dev Number of store owners */\n  uint public numStoreOwners = 0;\n\n  /** @dev Array of store owners */\n  address[] public storeOwners;\n\n  /** @dev Mapping of store owners to bool. Used to determine if address is new. */\n  mapping(address => bool) public storeOwnersAddress;\n\n  /** @dev Product struct. Contains price and quantity of the product. */\n  struct Product{\n    string name;\n    uint price;\n    uint quantity;\n    string ipfsHash;\n  }\n\n  /** @dev Storefront struct. Contains name of store, image (stored as ipfs hash), funds, and a mapping to its products. */\n  struct StoreFront{\n    string name;\n    string ipfsHash;\n    uint funds;\n    uint numProducts;\n    mapping(string => Product) products;\n  }\n\n  /** @dev Mapping of store owners to number of storefronts. */\n  mapping (address => uint) public numStoreFronts;\n\n  /** @dev Mapping of store owners to a mapping of storefront name to ipfs hash string. */\n  mapping (address => StoreFront[]) public storeFronts;\n\n  /** @dev Emit when a new owner is added. */\n  event EventNewOwner(address indexed _address);\n\n  /** @dev Emit when an owner is deleted. */\n  event EventDeleteOwner(address indexed _address);\n\n  /** @dev Emit when a new storefront is added. */\n  event EventNewStoreFront(string _storeName);\n\n  /** @dev Emit when a storefront is deleted. */\n  event EventDeleteStoreFront(string indexed _storeName);\n \n  /** @dev Emit when a product is added. */\n  event EventAddProduct(string _productName);\n\n  /** @dev Emit when a product is deleted. */\n  event EventDeleteProduct(string _productName);\n\n  /** @dev Emit when a product is bought. */\n  event EventBuyProduct(string _productName);\n  \n  /** @dev Emit when a product is bought. */\n  event EventChangePrice(address _address, uint _store, string _product, uint _newPrice, string _productName);\n  \n  /** @dev Emit when funds are withdrawn from store. */\n  event EventWithdrawFunds(string _storeName);\n\n  /** @dev Modifier that checks to make sure the circuit breaker is off. */\n  modifier emergencyStop() {\n    require(!stopped);\n    _;\n  }\n\n  /** @dev Modifier that checks to make sure the sender is an admin. */\n  modifier checkAdmin() {\n    require(msg.sender == admin);\n    _;\n  }\n  \n  /** @dev Modifier that checks to make the sender is an owner. */\n  modifier checkOwner() {\n    require(storeOwnersAddress[msg.sender]);\n    _;\n  }\n\n  /** @dev Modifier that checks to make sure owner does not exist already. \n  * @param _address Address to be checked.\n  */\n  modifier checkNewOwner(address _address) {\n    require(!storeOwnersAddress[_address]);\n    _;\n  }\n\n  /** @dev Modifier that checks storefront name is unique. \n  * @param _name Storefront name to be checked.\n  */\n  modifier checkStoreFrontName(string _name) {\n    bool checkName = true;\n    for (uint i = 0; i < numStoreFronts[msg.sender]; i ++) {\n      if (keccak256(abi.encodePacked(storeFronts[msg.sender][i].name)) == keccak256(abi.encodePacked(_name))) {\n        checkName = false;\n        break;\n      }\n    }\n    require(checkName);\n    _;\n  }\n\n  /** @dev Modifier that checks storefront exists for the caller. \n  * @param _index Index of storefront to be checked.\n  */\n  modifier checkStoreFrontExists(uint _index) {\n    require(keccak256(abi.encodePacked(storeFronts[msg.sender][_index].name)) != keccak256(''));\n    _;\n  }\n\n  /** @dev Modifier that checks for integer underflow. */\n  modifier checkIntegerUnderflow(uint _num) {\n    require(_num - 1 < _num);\n    _;\n  }\n\n  /** @dev Constructor function. Sets admin to be the contract owner. */\n  constructor() public {\n    admin = msg.sender;\n  }\n\n  /** @dev Checks to see if caller is admin. */\n  function isAdmin() public view returns(bool) {\n    return admin == msg.sender;\n  }\n\n  /** @dev Flips circuit breaker on. */\n  function isEmergency() public checkAdmin {\n    stopped = true;\n  }\n\n  /** @dev Flips circuit breaker off. */\n  function isSafe() public checkAdmin {\n    stopped = false;\n  }\n  \n  /** @dev Adds an owner to the storeOwners mapping.\n  * @param _address Address to be added as store owner.\n  */\n  function addOwner(address _address) public checkAdmin checkNewOwner(_address) {\n    emit EventNewOwner(_address);\n    numStoreOwners++;\n    storeOwners.push(_address);\n    storeOwnersAddress[_address] = true;\n  }\n\n  /** @dev Deletes an owner from the storeOwners mapping.\n  * @param _index Index of the address to be deleted.\n  */\n  function deleteOwner(uint _index) public checkAdmin {\n    address _address = storeOwners[_index];\n    require (storeOwnersAddress[_address] && numStoreOwners - 1 < numStoreOwners);\n    emit EventDeleteOwner(_address);\n    storeOwnersAddress[_address] = false;\n    delete storeOwners[_index];\n    numStoreOwners--;\n  }\n  \n  /** @dev Add a storefront.\n  * @param _name Storefront name.\n  * @param _ipfsHash Storefront image stored as IPFS hash.\n  */\n  function addStoreFront(string _name, string _ipfsHash) public checkOwner checkStoreFrontName(_name) {\n    emit EventNewStoreFront(_name);\n    storeFronts[msg.sender].push(StoreFront(_name, _ipfsHash, 0, 0));\n    numStoreFronts[msg.sender]++;\n  }\n\n  /** @dev Delete a storefront.\n  * @param _index Index of storefront to be deleted.\n  */\n  function deleteStoreFront(uint _index) public checkOwner checkStoreFrontExists(_index) checkIntegerUnderflow(numStoreFronts[msg.sender]) {\n    string memory _name = storeFronts[msg.sender][_index].name;\n    emit EventDeleteStoreFront(_name);\n    delete storeFronts[msg.sender][_index];\n    numStoreFronts[msg.sender]--;\n  }\n\n  /** @dev Converts uint to string.\n  * @param i Integer to be converted to string.\n  * @return Returns string.\n  */\n  function uint2str(uint i) internal pure returns (string){\n    if (i == 0) return \"0\";\n    uint j = i;\n    uint length;\n    while (j != 0){\n        length++;\n        j /= 10;\n    }\n    bytes memory bstr = new bytes(length);\n    uint k = length - 1;\n    while (i != 0){\n        bstr[k--] = byte(48 + i % 10);\n        i /= 10;\n    }\n    return string(bstr);\n  }\n\n  /** @dev Add a product to storefront.\n  * @param _index Index of storefront where product is to be sold.\n  * @param _name Name of product.\n  * @param _price Price of product.\n  * @param _quantity Quantity of product to be sold.\n  */\n  function addProduct(uint _index, string _name, uint _price, uint _quantity, string _ipfsHash) public checkOwner checkStoreFrontExists(_index) {\n    require(_price > 0 && _quantity > 0);\n    emit EventAddProduct(_name);\n    uint numProducts = storeFronts[msg.sender][_index].numProducts;\n    string memory num = uint2str(numProducts);\n    storeFronts[msg.sender][_index].products[num].name = _name;\n    storeFronts[msg.sender][_index].products[num].price = _price;\n    storeFronts[msg.sender][_index].products[num].quantity = _quantity;\n    storeFronts[msg.sender][_index].products[num].ipfsHash = _ipfsHash;\n    storeFronts[msg.sender][_index].numProducts++;\n  }\n\n  /** @dev Delete product from storefront.\n  * @param _index Index of storefront where product is sold.\n  * @param _num Index of product.\n  */\n  function deleteProduct(uint _index, string _num) public checkOwner checkStoreFrontExists(_index) checkIntegerUnderflow(storeFronts[msg.sender][_index].numProducts){\n    string memory _name = storeFronts[msg.sender][_index].products[_num].name;\n    emit EventDeleteProduct(_name);\n    delete storeFronts[msg.sender][_index].products[_num];\n    storeFronts[msg.sender][_index].numProducts--;\n  }\n\n  /** @dev Get product from storefront.\n  * @param _index Index of storefront where product is sold.\n  * @param _num Index of product.\n  */\n  function getProduct(address _address, uint _index, string _num) public view returns (string, uint, uint, string) {\n    return (storeFronts[_address][_index].products[_num].name, storeFronts[_address][_index].products[_num].price, storeFronts[_address][_index].products[_num].quantity, storeFronts[_address][_index].products[_num].ipfsHash);\n  }\n\n  /** @dev Buy product from storefront.\n  * @param _index Index of storefront where product is to be sold.\n  * @param _num Index of product.\n  */\n  function buyProduct(address _address, uint _index, string _num, uint quantityToBuy) public payable emergencyStop {\n    uint _price = storeFronts[_address][_index].products[_num].price;\n    uint _quantity = storeFronts[_address][_index].products[_num].quantity;\n    uint totalPrice = _price * quantityToBuy;\n    require(msg.value == totalPrice && _quantity - quantityToBuy < _quantity);\n    emit EventBuyProduct(storeFronts[_address][_index].products[_num].name);\n    storeFronts[_address][_index].products[_num].quantity -= quantityToBuy;\n    storeFronts[_address][_index].funds += totalPrice;\n  }\n\n  /** @dev Change the price of the product.\n  * @param _index Index of storefront where product is sold.\n  * @param _num Index of product.\n  * @param newPrice New price of product.\n  */\n  function changePrice(uint _index, string _num, uint newPrice) public checkOwner checkStoreFrontExists(_index) {\n    require(newPrice > 0);\n    emit EventChangePrice(msg.sender, _index, _num, newPrice, storeFronts[msg.sender][_index].products[_num].name);\n    storeFronts[msg.sender][_index].products[_num].price = newPrice;\n  }\n\n  /** @dev Withdraw funds from store.\n  * @param _index Index of storefront where funds are to be withdrawn from.\n  */\n  function withdrawFunds(uint _index) public emergencyStop checkOwner checkStoreFrontExists(_index) {\n    require(storeFronts[msg.sender][_index].funds > 0);\n    emit EventWithdrawFunds(storeFronts[msg.sender][_index].name);\n    uint storeFunds = storeFronts[msg.sender][_index].funds;\n    storeFronts[msg.sender][_index].funds = 0;\n    msg.sender.transfer(storeFunds);\n  }\n\n  /** @dev Fallback function. */\n  function() public payable{}\n}",
  "sourcePath": "/Users/rshyong/Solidity/online_marketplace/contracts/OnlineMarketplace.sol",
  "compiler": {
    "name": "solc",
    "version": "0.4.24+commit.e67f0147.Emscripten.clang"
  },
  "schemaVersion": "2.0.1",
  "updatedAt": "2018-08-27T03:19:06.751Z"
}