{
  "contractName": "OnlineMarketplace",
  "abi": [
    {
      "constant": true,
      "inputs": [
        {
          "name": "",
          "type": "address"
        }
      ],
      "name": "numStoreFronts",
      "outputs": [
        {
          "name": "",
          "type": "uint256"
        }
      ],
      "payable": false,
      "stateMutability": "view",
      "type": "function"
    },
    {
      "constant": true,
      "inputs": [
        {
          "name": "",
          "type": "uint256"
        }
      ],
      "name": "storeOwners",
      "outputs": [
        {
          "name": "",
          "type": "address"
        }
      ],
      "payable": false,
      "stateMutability": "view",
      "type": "function"
    },
    {
      "constant": true,
      "inputs": [
        {
          "name": "",
          "type": "address"
        },
        {
          "name": "",
          "type": "uint256"
        }
      ],
      "name": "storeFronts",
      "outputs": [
        {
          "name": "name",
          "type": "string"
        },
        {
          "name": "ipfsHash",
          "type": "string"
        },
        {
          "name": "funds",
          "type": "uint256"
        },
        {
          "name": "numProducts",
          "type": "uint256"
        }
      ],
      "payable": false,
      "stateMutability": "view",
      "type": "function"
    },
    {
      "constant": true,
      "inputs": [
        {
          "name": "",
          "type": "address"
        }
      ],
      "name": "storeOwnersAddress",
      "outputs": [
        {
          "name": "",
          "type": "bool"
        }
      ],
      "payable": false,
      "stateMutability": "view",
      "type": "function"
    },
    {
      "constant": true,
      "inputs": [],
      "name": "numStoreOwners",
      "outputs": [
        {
          "name": "",
          "type": "uint256"
        }
      ],
      "payable": false,
      "stateMutability": "view",
      "type": "function"
    },
    {
      "inputs": [],
      "payable": false,
      "stateMutability": "nonpayable",
      "type": "constructor"
    },
    {
      "payable": true,
      "stateMutability": "payable",
      "type": "fallback"
    },
    {
      "anonymous": false,
      "inputs": [
        {
          "indexed": true,
          "name": "_address",
          "type": "address"
        }
      ],
      "name": "EventNewOwner",
      "type": "event"
    },
    {
      "anonymous": false,
      "inputs": [
        {
          "indexed": true,
          "name": "_address",
          "type": "address"
        }
      ],
      "name": "EventDeleteOwner",
      "type": "event"
    },
    {
      "anonymous": false,
      "inputs": [
        {
          "indexed": true,
          "name": "_storeName",
          "type": "string"
        }
      ],
      "name": "EventNewStoreFront",
      "type": "event"
    },
    {
      "anonymous": false,
      "inputs": [
        {
          "indexed": true,
          "name": "_storeName",
          "type": "string"
        }
      ],
      "name": "EventDeleteStoreFront",
      "type": "event"
    },
    {
      "anonymous": false,
      "inputs": [
        {
          "indexed": true,
          "name": "_productName",
          "type": "string"
        }
      ],
      "name": "EventAddProduct",
      "type": "event"
    },
    {
      "anonymous": false,
      "inputs": [
        {
          "indexed": true,
          "name": "_productName",
          "type": "string"
        }
      ],
      "name": "EventDeleteProduct",
      "type": "event"
    },
    {
      "anonymous": false,
      "inputs": [
        {
          "indexed": true,
          "name": "_productName",
          "type": "string"
        }
      ],
      "name": "EventBuyProduct",
      "type": "event"
    },
    {
      "anonymous": false,
      "inputs": [
        {
          "indexed": true,
          "name": "_productName",
          "type": "string"
        }
      ],
      "name": "EventChangePrice",
      "type": "event"
    },
    {
      "anonymous": false,
      "inputs": [
        {
          "indexed": true,
          "name": "_storeName",
          "type": "string"
        }
      ],
      "name": "EventWithdrawFunds",
      "type": "event"
    },
    {
      "constant": true,
      "inputs": [],
      "name": "isAdmin",
      "outputs": [
        {
          "name": "",
          "type": "bool"
        }
      ],
      "payable": false,
      "stateMutability": "view",
      "type": "function"
    },
    {
      "constant": false,
      "inputs": [
        {
          "name": "_address",
          "type": "address"
        }
      ],
      "name": "addOwner",
      "outputs": [],
      "payable": false,
      "stateMutability": "nonpayable",
      "type": "function"
    },
    {
      "constant": false,
      "inputs": [
        {
          "name": "_index",
          "type": "uint256"
        }
      ],
      "name": "deleteOwner",
      "outputs": [],
      "payable": false,
      "stateMutability": "nonpayable",
      "type": "function"
    },
    {
      "constant": false,
      "inputs": [
        {
          "name": "_name",
          "type": "string"
        },
        {
          "name": "_ipfsHash",
          "type": "string"
        }
      ],
      "name": "addStoreFront",
      "outputs": [],
      "payable": false,
      "stateMutability": "nonpayable",
      "type": "function"
    },
    {
      "constant": false,
      "inputs": [
        {
          "name": "_index",
          "type": "uint256"
        }
      ],
      "name": "deleteStoreFront",
      "outputs": [],
      "payable": false,
      "stateMutability": "nonpayable",
      "type": "function"
    },
    {
      "constant": false,
      "inputs": [
        {
          "name": "_index",
          "type": "uint256"
        },
        {
          "name": "_name",
          "type": "string"
        },
        {
          "name": "_price",
          "type": "uint256"
        },
        {
          "name": "_quantity",
          "type": "uint256"
        },
        {
          "name": "_ipfsHash",
          "type": "string"
        }
      ],
      "name": "addProduct",
      "outputs": [],
      "payable": false,
      "stateMutability": "nonpayable",
      "type": "function"
    },
    {
      "constant": false,
      "inputs": [
        {
          "name": "_index",
          "type": "uint256"
        },
        {
          "name": "_num",
          "type": "string"
        }
      ],
      "name": "deleteProduct",
      "outputs": [],
      "payable": false,
      "stateMutability": "nonpayable",
      "type": "function"
    },
    {
      "constant": true,
      "inputs": [
        {
          "name": "_address",
          "type": "address"
        },
        {
          "name": "_index",
          "type": "uint256"
        },
        {
          "name": "_num",
          "type": "string"
        }
      ],
      "name": "getProduct",
      "outputs": [
        {
          "name": "",
          "type": "string"
        },
        {
          "name": "",
          "type": "uint256"
        },
        {
          "name": "",
          "type": "uint256"
        }
      ],
      "payable": false,
      "stateMutability": "view",
      "type": "function"
    },
    {
      "constant": false,
      "inputs": [
        {
          "name": "_address",
          "type": "address"
        },
        {
          "name": "_index",
          "type": "uint256"
        },
        {
          "name": "_num",
          "type": "string"
        },
        {
          "name": "quantityToBuy",
          "type": "uint256"
        }
      ],
      "name": "buyProduct",
      "outputs": [],
      "payable": true,
      "stateMutability": "payable",
      "type": "function"
    },
    {
      "constant": false,
      "inputs": [
        {
          "name": "_index",
          "type": "uint256"
        },
        {
          "name": "_num",
          "type": "string"
        },
        {
          "name": "newPrice",
          "type": "uint256"
        }
      ],
      "name": "changePrice",
      "outputs": [],
      "payable": false,
      "stateMutability": "nonpayable",
      "type": "function"
    },
    {
      "constant": false,
      "inputs": [
        {
          "name": "_index",
          "type": "uint256"
        }
      ],
      "name": "withdrawFunds",
      "outputs": [],
      "payable": false,
      "stateMutability": "nonpayable",
      "type": "function"
    }
  ],
  "bytecode": "0x6080604052600060015534801561001557600080fd5b50336000806101000a81548173ffffffffffffffffffffffffffffffffffffffff021916908373ffffffffffffffffffffffffffffffffffffffff160217905550613623806100656000396000f3006080604052600436106100e6576000357c0100000000000000000000000000000000000000000000000000000000900463ffffffff1680630811f401146100e8578063155dd5ee146101155780631719dda7146101425780631ac34de3146101d25780632a077c341461024f5780633f99f5cd146102a657806344d5099314610355578063615feb1a146103c25780637065cb481461050257806370ab5d7214610545578063780dd0cf146105b8578063a4567031146105e5578063b6db75a0146106ff578063e61cffed1461072e578063fcbe5e61146107fb578063fdcce8ae14610856575b005b3480156100f457600080fd5b5061011360048036038101908080359060200190929190505050610881565b005b34801561012157600080fd5b5061014060048036038101908080359060200190929190505050610cee565b005b6101d0600480360381019080803573ffffffffffffffffffffffffffffffffffffffff16906020019092919080359060200190929190803590602001908201803590602001908080601f01602080910402602001604051908101604052809392919081815260200183838082843782019150505050505091929192908035906020019092919050505061110c565b005b3480156101de57600080fd5b5061024d60048036038101908080359060200190929190803590602001908201803590602001908080601f016020809104026020016040519081016040528093929190818152602001838380828437820191505050505050919291929080359060200190929190505050611571565b005b34801561025b57600080fd5b50610290600480360381019080803573ffffffffffffffffffffffffffffffffffffffff169060200190929190505050611961565b6040518082815260200191505060405180910390f35b3480156102b257600080fd5b50610353600480360381019080803590602001908201803590602001908080601f0160208091040260200160405190810160405280939291908181526020018383808284378201915050505050509192919290803590602001908201803590602001908080601f0160208091040260200160405190810160405280939291908181526020018383808284378201915050505050509192919290505050611979565b005b34801561036157600080fd5b5061038060048036038101908080359060200190929190505050611e19565b604051808273ffffffffffffffffffffffffffffffffffffffff1673ffffffffffffffffffffffffffffffffffffffff16815260200191505060405180910390f35b3480156103ce57600080fd5b5061040d600480360381019080803573ffffffffffffffffffffffffffffffffffffffff16906020019092919080359060200190929190505050611e57565b604051808060200180602001858152602001848152602001838103835287818151815260200191508051906020019080838360005b8381101561045d578082015181840152602081019050610442565b50505050905090810190601f16801561048a5780820380516001836020036101000a031916815260200191505b50838103825286818151815260200191508051906020019080838360005b838110156104c35780820151818401526020810190506104a8565b50505050905090810190601f1680156104f05780820380516001836020036101000a031916815260200191505b50965050505050505060405180910390f35b34801561050e57600080fd5b50610543600480360381019080803573ffffffffffffffffffffffffffffffffffffffff169060200190929190505050611fd3565b005b34801561055157600080fd5b506105b660048036038101908080359060200190929190803590602001908201803590602001908080601f016020809104026020016040519081016040528093929190818152602001838380828437820191505050505050919291929050505061219f565b005b3480156105c457600080fd5b506105e360048036038101908080359060200190929190505050612721565b005b3480156105f157600080fd5b50610676600480360381019080803573ffffffffffffffffffffffffffffffffffffffff16906020019092919080359060200190929190803590602001908201803590602001908080601f0160208091040260200160405190810160405280939291908181526020018383808284378201915050505050509192919290505050612911565b6040518080602001848152602001838152602001828103825285818151815260200191508051906020019080838360005b838110156106c25780820151818401526020810190506106a7565b50505050905090810190601f1680156106ef5780820380516001836020036101000a031916815260200191505b5094505050505060405180910390f35b34801561070b57600080fd5b50610714612c1e565b604051808215151515815260200191505060405180910390f35b34801561073a57600080fd5b506107f960048036038101908080359060200190929190803590602001908201803590602001908080601f01602080910402602001604051908101604052809392919081815260200183838082843782019150505050505091929192908035906020019092919080359060200190929190803590602001908201803590602001908080601f0160208091040260200160405190810160405280939291908181526020018383808284378201915050505050509192919290505050612c75565b005b34801561080757600080fd5b5061083c600480360381019080803573ffffffffffffffffffffffffffffffffffffffff16906020019092919050505061330d565b604051808215151515815260200191505060405180910390f35b34801561086257600080fd5b5061086b61332d565b6040518082815260200191505060405180910390f35b6060600360003373ffffffffffffffffffffffffffffffffffffffff1673ffffffffffffffffffffffffffffffffffffffff16815260200190815260200160002060009054906101000a900460ff1615156108db57600080fd5b81604051806000019050604051809103902060001916600560003373ffffffffffffffffffffffffffffffffffffffff1673ffffffffffffffffffffffffffffffffffffffff1681526020019081526020016000208281548110151561093d57fe5b906000526020600020906005020160000160405160200180828054600181600116156101000203166002900480156109ac5780601f1061098a5761010080835404028352918201916109ac565b820191906000526020600020905b815481529060010190602001808311610998575b50509150506040516020818303038152906040526040518082805190602001908083835b6020831015156109f557805182526020820191506020810190506020830392506109d0565b6001836020036101000a03801982511681845116808217855250505050505090500191505060405180910390206000191614151515610a3357600080fd5b600460003373ffffffffffffffffffffffffffffffffffffffff1673ffffffffffffffffffffffffffffffffffffffff168152602001908152602001600020548060018203101515610a8457600080fd5b600560003373ffffffffffffffffffffffffffffffffffffffff1673ffffffffffffffffffffffffffffffffffffffff16815260200190815260200160002084815481101515610ad057fe5b90600052602060002090600502016000018054600181600116156101000203166002900480601f016020809104026020016040519081016040528092919081815260200182805460018160011615610100020316600290048015610b755780601f10610b4a57610100808354040283529160200191610b75565b820191906000526020600020905b815481529060010190602001808311610b5857829003601f168201915b50505050509250826040518082805190602001908083835b602083101515610bb25780518252602082019150602081019050602083039250610b8d565b6001836020036101000a03801982511681845116808217855250505050505090500191505060405180910390207fe4d8073e8b23b84654c79fb6e41bfb976fff2d2fb6455fd6ba8df288fb70e00c60405160405180910390a2600560003373ffffffffffffffffffffffffffffffffffffffff1673ffffffffffffffffffffffffffffffffffffffff16815260200190815260200160002084815481101515610c5757fe5b906000526020600020906005020160008082016000610c76919061348a565b600182016000610c86919061348a565b600282016000905560038201600090555050600460003373ffffffffffffffffffffffffffffffffffffffff1673ffffffffffffffffffffffffffffffffffffffff168152602001908152602001600020600081548092919060019003919050555050505050565b6000600360003373ffffffffffffffffffffffffffffffffffffffff1673ffffffffffffffffffffffffffffffffffffffff16815260200190815260200160002060009054906101000a900460ff161515610d4857600080fd5b81604051806000019050604051809103902060001916600560003373ffffffffffffffffffffffffffffffffffffffff1673ffffffffffffffffffffffffffffffffffffffff16815260200190815260200160002082815481101515610daa57fe5b90600052602060002090600502016000016040516020018082805460018160011615610100020316600290048015610e195780601f10610df7576101008083540402835291820191610e19565b820191906000526020600020905b815481529060010190602001808311610e05575b50509150506040516020818303038152906040526040518082805190602001908083835b602083101515610e625780518252602082019150602081019050602083039250610e3d565b6001836020036101000a03801982511681845116808217855250505050505090500191505060405180910390206000191614151515610ea057600080fd5b6000600560003373ffffffffffffffffffffffffffffffffffffffff1673ffffffffffffffffffffffffffffffffffffffff16815260200190815260200160002084815481101515610eee57fe5b906000526020600020906005020160020154111515610f0c57600080fd5b600560003373ffffffffffffffffffffffffffffffffffffffff1673ffffffffffffffffffffffffffffffffffffffff16815260200190815260200160002083815481101515610f5857fe5b90600052602060002090600502016000016040518082805460018160011615610100020316600290048015610fc45780601f10610fa2576101008083540402835291820191610fc4565b820191906000526020600020905b815481529060010190602001808311610fb0575b505091505060405180910390207f465c8602b07faa0e98aa1d9e0f3456ee1798963d7dd14b8c28c93a03167d697b60405160405180910390a2600560003373ffffffffffffffffffffffffffffffffffffffff1673ffffffffffffffffffffffffffffffffffffffff1681526020019081526020016000208381548110151561104957fe5b90600052602060002090600502016002015491506000600560003373ffffffffffffffffffffffffffffffffffffffff1673ffffffffffffffffffffffffffffffffffffffff168152602001908152602001600020848154811015156110ab57fe5b9060005260206000209060050201600201819055503373ffffffffffffffffffffffffffffffffffffffff166108fc839081150290604051600060405180830381858888f19350505050158015611106573d6000803e3d6000fd5b50505050565b6000806000600560008873ffffffffffffffffffffffffffffffffffffffff1673ffffffffffffffffffffffffffffffffffffffff1681526020019081526020016000208681548110151561115d57fe5b9060005260206000209060050201600401856040518082805190602001908083835b6020831015156111a4578051825260208201915060208101905060208303925061117f565b6001836020036101000a0380198251168184511680821785525050505050509050019150509081526020016040518091039020600101549250600560008873ffffffffffffffffffffffffffffffffffffffff1673ffffffffffffffffffffffffffffffffffffffff1681526020019081526020016000208681548110151561122957fe5b9060005260206000209060050201600401856040518082805190602001908083835b602083101515611270578051825260208201915060208101905060208303925061124b565b6001836020036101000a0380198251168184511680821785525050505050509050019150509081526020016040518091039020600201549150838302905080341480156112be575081848303105b15156112c957600080fd5b600560008873ffffffffffffffffffffffffffffffffffffffff1673ffffffffffffffffffffffffffffffffffffffff1681526020019081526020016000208681548110151561131557fe5b9060005260206000209060050201600401856040518082805190602001908083835b60208310151561135c5780518252602082019150602081019050602083039250611337565b6001836020036101000a038019825116818451168082178552505050505050905001915050908152602001604051809103902060000160405180828054600181600116156101000203166002900480156113ed5780601f106113cb5761010080835404028352918201916113ed565b820191906000526020600020905b8154815290600101906020018083116113d9575b505091505060405180910390207fa28c646f39f9e222598d17712e8fd6d0ae32531abb19bf4dcde4dd0a710a83c760405160405180910390a283600560008973ffffffffffffffffffffffffffffffffffffffff1673ffffffffffffffffffffffffffffffffffffffff1681526020019081526020016000208781548110151561147357fe5b9060005260206000209060050201600401866040518082805190602001908083835b6020831015156114ba5780518252602082019150602081019050602083039250611495565b6001836020036101000a03801982511681845116808217855250505050505090500191505090815260200160405180910390206002016000828254039250508190555080600560008973ffffffffffffffffffffffffffffffffffffffff1673ffffffffffffffffffffffffffffffffffffffff1681526020019081526020016000208781548110151561154a57fe5b90600052602060002090600502016002016000828254019250508190555050505050505050565b600360003373ffffffffffffffffffffffffffffffffffffffff1673ffffffffffffffffffffffffffffffffffffffff16815260200190815260200160002060009054906101000a900460ff1615156115c957600080fd5b82604051806000019050604051809103902060001916600560003373ffffffffffffffffffffffffffffffffffffffff1673ffffffffffffffffffffffffffffffffffffffff1681526020019081526020016000208281548110151561162b57fe5b9060005260206000209060050201600001604051602001808280546001816001161561010002031660029004801561169a5780601f1061167857610100808354040283529182019161169a565b820191906000526020600020905b815481529060010190602001808311611686575b50509150506040516020818303038152906040526040518082805190602001908083835b6020831015156116e357805182526020820191506020810190506020830392506116be565b6001836020036101000a0380198251168184511680821785525050505050509050019150506040518091039020600019161415151561172157600080fd5b60008211151561173057600080fd5b600560003373ffffffffffffffffffffffffffffffffffffffff1673ffffffffffffffffffffffffffffffffffffffff1681526020019081526020016000208481548110151561177c57fe5b9060005260206000209060050201600401836040518082805190602001908083835b6020831015156117c3578051825260208201915060208101905060208303925061179e565b6001836020036101000a038019825116818451168082178552505050505050905001915050908152602001604051809103902060000160405180828054600181600116156101000203166002900480156118545780601f10611832576101008083540402835291820191611854565b820191906000526020600020905b815481529060010190602001808311611840575b505091505060405180910390207f633a374b0665074408b9f312537868b4d33cb8a9c62000365c1465b878f1be5f60405160405180910390a281600560003373ffffffffffffffffffffffffffffffffffffffff1673ffffffffffffffffffffffffffffffffffffffff168152602001908152602001600020858154811015156118da57fe5b9060005260206000209060050201600401846040518082805190602001908083835b60208310151561192157805182526020820191506020810190506020830392506118fc565b6001836020036101000a03801982511681845116808217855250505050505090500191505090815260200160405180910390206001018190555050505050565b60046020528060005260406000206000915090505481565b600360003373ffffffffffffffffffffffffffffffffffffffff1673ffffffffffffffffffffffffffffffffffffffff16815260200190815260200160002060009054906101000a900460ff1615156119d157600080fd5b8160008060019150600090505b600460003373ffffffffffffffffffffffffffffffffffffffff1673ffffffffffffffffffffffffffffffffffffffff16815260200190815260200160002054811015611c4957826040516020018082805190602001908083835b602083101515611a5e5780518252602082019150602081019050602083039250611a39565b6001836020036101000a0380198251168184511680821785525050505050509050019150506040516020818303038152906040526040518082805190602001908083835b602083101515611ac75780518252602082019150602081019050602083039250611aa2565b6001836020036101000a038019825116818451168082178552505050505050905001915050604051809103902060001916600560003373ffffffffffffffffffffffffffffffffffffffff1673ffffffffffffffffffffffffffffffffffffffff16815260200190815260200160002082815481101515611b4457fe5b90600052602060002090600502016000016040516020018082805460018160011615610100020316600290048015611bb35780601f10611b91576101008083540402835291820191611bb3565b820191906000526020600020905b815481529060010190602001808311611b9f575b50509150506040516020818303038152906040526040518082805190602001908083835b602083101515611bfc5780518252602082019150602081019050602083039250611bd7565b6001836020036101000a0380198251168184511680821785525050505050509050019150506040518091039020600019161415611c3c5760009150611c49565b80806001019150506119de565b811515611c5557600080fd5b846040518082805190602001908083835b602083101515611c8b5780518252602082019150602081019050602083039250611c66565b6001836020036101000a03801982511681845116808217855250505050505090500191505060405180910390207f0c2c53d0b7491e69bfe80bc53a8b263f68b2d560c5652a62ea7b44b75d37b93a60405160405180910390a2600560003373ffffffffffffffffffffffffffffffffffffffff1673ffffffffffffffffffffffffffffffffffffffff168152602001908152602001600020608060405190810160405280878152602001868152602001600081526020016000815250908060018154018082558091505090600182039060005260206000209060050201600090919290919091506000820151816000019080519060200190611d8e9291906134d2565b506020820151816001019080519060200190611dab9291906134d2565b506040820151816002015560608201518160030155505050600460003373ffffffffffffffffffffffffffffffffffffffff1673ffffffffffffffffffffffffffffffffffffffff168152602001908152602001600020600081548092919060010191905055505050505050565b600281815481101515611e2857fe5b906000526020600020016000915054906101000a900473ffffffffffffffffffffffffffffffffffffffff1681565b600560205281600052604060002081815481101515611e7257fe5b906000526020600020906005020160009150915050806000018054600181600116156101000203166002900480601f016020809104026020016040519081016040528092919081815260200182805460018160011615610100020316600290048015611f1f5780601f10611ef457610100808354040283529160200191611f1f565b820191906000526020600020905b815481529060010190602001808311611f0257829003601f168201915b505050505090806001018054600181600116156101000203166002900480601f016020809104026020016040519081016040528092919081815260200182805460018160011615610100020316600290048015611fbd5780601f10611f9257610100808354040283529160200191611fbd565b820191906000526020600020905b815481529060010190602001808311611fa057829003601f168201915b5050505050908060020154908060030154905084565b6000809054906101000a900473ffffffffffffffffffffffffffffffffffffffff1673ffffffffffffffffffffffffffffffffffffffff163373ffffffffffffffffffffffffffffffffffffffff1614151561202e57600080fd5b80600360008273ffffffffffffffffffffffffffffffffffffffff1673ffffffffffffffffffffffffffffffffffffffff16815260200190815260200160002060009054906101000a900460ff1615151561208857600080fd5b8173ffffffffffffffffffffffffffffffffffffffff167fa0ccbd67048573ce351c45b2a4b73bf775758608cc269a83ff7a9f9dd664054260405160405180910390a260016000815480929190600101919050555060028290806001815401808255809150509060018203906000526020600020016000909192909190916101000a81548173ffffffffffffffffffffffffffffffffffffffff021916908373ffffffffffffffffffffffffffffffffffffffff160217905550506001600360008473ffffffffffffffffffffffffffffffffffffffff1673ffffffffffffffffffffffffffffffffffffffff16815260200190815260200160002060006101000a81548160ff0219169083151502179055505050565b6060600360003373ffffffffffffffffffffffffffffffffffffffff1673ffffffffffffffffffffffffffffffffffffffff16815260200190815260200160002060009054906101000a900460ff1615156121f957600080fd5b82604051806000019050604051809103902060001916600560003373ffffffffffffffffffffffffffffffffffffffff1673ffffffffffffffffffffffffffffffffffffffff1681526020019081526020016000208281548110151561225b57fe5b906000526020600020906005020160000160405160200180828054600181600116156101000203166002900480156122ca5780601f106122a85761010080835404028352918201916122ca565b820191906000526020600020905b8154815290600101906020018083116122b6575b50509150506040516020818303038152906040526040518082805190602001908083835b60208310151561231357805182526020820191506020810190506020830392506122ee565b6001836020036101000a0380198251168184511680821785525050505050509050019150506040518091039020600019161415151561235157600080fd5b600560003373ffffffffffffffffffffffffffffffffffffffff1673ffffffffffffffffffffffffffffffffffffffff1681526020019081526020016000208481548110151561239d57fe5b90600052602060002090600502016003015480600182031015156123c057600080fd5b600560003373ffffffffffffffffffffffffffffffffffffffff1673ffffffffffffffffffffffffffffffffffffffff1681526020019081526020016000208581548110151561240c57fe5b9060005260206000209060050201600401846040518082805190602001908083835b602083101515612453578051825260208201915060208101905060208303925061242e565b6001836020036101000a03801982511681845116808217855250505050505090500191505090815260200160405180910390206000018054600181600116156101000203166002900480601f01602080910402602001604051908101604052809291908181526020018280546001816001161561010002031660029004801561251d5780601f106124f25761010080835404028352916020019161251d565b820191906000526020600020905b81548152906001019060200180831161250057829003601f168201915b50505050509250826040518082805190602001908083835b60208310151561255a5780518252602082019150602081019050602083039250612535565b6001836020036101000a03801982511681845116808217855250505050505090500191505060405180910390207f53840b1371dc8b81d9ad0d6918830b4a6bbda8388279c1fab526a2ea3acc739460405160405180910390a2600560003373ffffffffffffffffffffffffffffffffffffffff1673ffffffffffffffffffffffffffffffffffffffff168152602001908152602001600020858154811015156125ff57fe5b9060005260206000209060050201600401846040518082805190602001908083835b6020831015156126465780518252602082019150602081019050602083039250612621565b6001836020036101000a03801982511681845116808217855250505050505090500191505090815260200160405180910390206000808201600061268a919061348a565b600182016000905560028201600090556003820160006126aa919061348a565b5050600560003373ffffffffffffffffffffffffffffffffffffffff1673ffffffffffffffffffffffffffffffffffffffff168152602001908152602001600020858154811015156126f857fe5b906000526020600020906005020160030160008154809291906001900391905055505050505050565b60008060009054906101000a900473ffffffffffffffffffffffffffffffffffffffff1673ffffffffffffffffffffffffffffffffffffffff163373ffffffffffffffffffffffffffffffffffffffff1614151561277e57600080fd5b60028281548110151561278d57fe5b9060005260206000200160009054906101000a900473ffffffffffffffffffffffffffffffffffffffff169050600360008273ffffffffffffffffffffffffffffffffffffffff1673ffffffffffffffffffffffffffffffffffffffff16815260200190815260200160002060009054906101000a900460ff16801561281857506001546001805403105b151561282357600080fd5b8073ffffffffffffffffffffffffffffffffffffffff167f8d4c697101c753cf4fcef8b64001514e0c0101b4ce6b4b62ab3f3c7328fd6a0e60405160405180910390a26000600360008373ffffffffffffffffffffffffffffffffffffffff1673ffffffffffffffffffffffffffffffffffffffff16815260200190815260200160002060006101000a81548160ff0219169083151502179055506002828154811015156128cd57fe5b9060005260206000200160006101000a81549073ffffffffffffffffffffffffffffffffffffffff0219169055600160008154809291906001900391905055505050565b6060600080600560008773ffffffffffffffffffffffffffffffffffffffff1673ffffffffffffffffffffffffffffffffffffffff1681526020019081526020016000208581548110151561296257fe5b9060005260206000209060050201600401846040518082805190602001908083835b6020831015156129a95780518252602082019150602081019050602083039250612984565b6001836020036101000a0380198251168184511680821785525050505050509050019150509081526020016040518091039020600001600560008873ffffffffffffffffffffffffffffffffffffffff1673ffffffffffffffffffffffffffffffffffffffff16815260200190815260200160002086815481101515612a2b57fe5b9060005260206000209060050201600401856040518082805190602001908083835b602083101515612a725780518252602082019150602081019050602083039250612a4d565b6001836020036101000a038019825116818451168082178552505050505050905001915050908152602001604051809103902060010154600560008973ffffffffffffffffffffffffffffffffffffffff1673ffffffffffffffffffffffffffffffffffffffff16815260200190815260200160002087815481101515612af557fe5b9060005260206000209060050201600401866040518082805190602001908083835b602083101515612b3c5780518252602082019150602081019050602083039250612b17565b6001836020036101000a038019825116818451168082178552505050505050905001915050908152602001604051809103902060020154828054600181600116156101000203166002900480601f016020809104026020016040519081016040528092919081815260200182805460018160011615610100020316600290048015612c085780601f10612bdd57610100808354040283529160200191612c08565b820191906000526020600020905b815481529060010190602001808311612beb57829003601f168201915b5050505050925092509250925093509350939050565b60003373ffffffffffffffffffffffffffffffffffffffff166000809054906101000a900473ffffffffffffffffffffffffffffffffffffffff1673ffffffffffffffffffffffffffffffffffffffff1614905090565b60006060600360003373ffffffffffffffffffffffffffffffffffffffff1673ffffffffffffffffffffffffffffffffffffffff16815260200190815260200160002060009054906101000a900460ff161515612cd157600080fd5b86604051806000019050604051809103902060001916600560003373ffffffffffffffffffffffffffffffffffffffff1673ffffffffffffffffffffffffffffffffffffffff16815260200190815260200160002082815481101515612d3357fe5b90600052602060002090600502016000016040516020018082805460018160011615610100020316600290048015612da25780601f10612d80576101008083540402835291820191612da2565b820191906000526020600020905b815481529060010190602001808311612d8e575b50509150506040516020818303038152906040526040518082805190602001908083835b602083101515612deb5780518252602082019150602081019050602083039250612dc6565b6001836020036101000a03801982511681845116808217855250505050505090500191505060405180910390206000191614151515612e2957600080fd5b600086118015612e395750600085115b1515612e4457600080fd5b866040518082805190602001908083835b602083101515612e7a5780518252602082019150602081019050602083039250612e55565b6001836020036101000a03801982511681845116808217855250505050505090500191505060405180910390207f023826ac8153b7d0b8ad612a8087cd73a24cee6c8b0ddd5f5bec25b472d1dc7d60405160405180910390a2600560003373ffffffffffffffffffffffffffffffffffffffff1673ffffffffffffffffffffffffffffffffffffffff16815260200190815260200160002088815481101515612f1f57fe5b9060005260206000209060050201600301549250612f3c83613333565b915086600560003373ffffffffffffffffffffffffffffffffffffffff1673ffffffffffffffffffffffffffffffffffffffff16815260200190815260200160002089815481101515612f8b57fe5b9060005260206000209060050201600401836040518082805190602001908083835b602083101515612fd25780518252602082019150602081019050602083039250612fad565b6001836020036101000a0380198251168184511680821785525050505050509050019150509081526020016040518091039020600001908051906020019061301b929190613552565b5085600560003373ffffffffffffffffffffffffffffffffffffffff1673ffffffffffffffffffffffffffffffffffffffff1681526020019081526020016000208981548110151561306957fe5b9060005260206000209060050201600401836040518082805190602001908083835b6020831015156130b0578051825260208201915060208101905060208303925061308b565b6001836020036101000a03801982511681845116808217855250505050505090500191505090815260200160405180910390206001018190555084600560003373ffffffffffffffffffffffffffffffffffffffff1673ffffffffffffffffffffffffffffffffffffffff1681526020019081526020016000208981548110151561313757fe5b9060005260206000209060050201600401836040518082805190602001908083835b60208310151561317e5780518252602082019150602081019050602083039250613159565b6001836020036101000a03801982511681845116808217855250505050505090500191505090815260200160405180910390206002018190555083600560003373ffffffffffffffffffffffffffffffffffffffff1673ffffffffffffffffffffffffffffffffffffffff1681526020019081526020016000208981548110151561320557fe5b9060005260206000209060050201600401836040518082805190602001908083835b60208310151561324c5780518252602082019150602081019050602083039250613227565b6001836020036101000a03801982511681845116808217855250505050505090500191505090815260200160405180910390206003019080519060200190613295929190613552565b50600560003373ffffffffffffffffffffffffffffffffffffffff1673ffffffffffffffffffffffffffffffffffffffff168152602001908152602001600020888154811015156132e257fe5b9060005260206000209060050201600301600081548092919060010191905055505050505050505050565b60036020528060005260406000206000915054906101000a900460ff1681565b60015481565b60606000806060600080861415613381576040805190810160405280600181526020017f30000000000000000000000000000000000000000000000000000000000000008152509450613481565b8593505b6000841415156133ab578280600101935050600a848115156133a357fe5b049350613385565b826040519080825280601f01601f1916602001820160405280156133de5781602001602082028038833980820191505090505b5091506001830390505b60008614151561347d57600a868115156133fe57fe5b066030017f01000000000000000000000000000000000000000000000000000000000000000282828060019003935081518110151561343957fe5b9060200101907effffffffffffffffffffffffffffffffffffffffffffffffffffffffffffff1916908160001a905350600a8681151561347557fe5b0495506133e8565b8194505b50505050919050565b50805460018160011615610100020316600290046000825580601f106134b057506134cf565b601f0160209004906000526020600020908101906134ce91906135d2565b5b50565b828054600181600116156101000203166002900490600052602060002090601f016020900481019282601f1061351357805160ff1916838001178555613541565b82800160010185558215613541579182015b82811115613540578251825591602001919060010190613525565b5b50905061354e91906135d2565b5090565b828054600181600116156101000203166002900490600052602060002090601f016020900481019282601f1061359357805160ff19168380011785556135c1565b828001600101855582156135c1579182015b828111156135c05782518255916020019190600101906135a5565b5b5090506135ce91906135d2565b5090565b6135f491905b808211156135f05760008160009055506001016135d8565b5090565b905600a165627a7a7230582042061e85e1c3fff6133ea3c403e67a65199daad9f8dd4f0a5cc4023a618114560029",
  "source": "pragma solidity ^0.4.17;\n\n /** @title Online Marketplace. */\ncontract OnlineMarketplace {\n\n  /** @dev Address of admin. */\n  address private admin;\n\n  /** @dev Number of store owners */\n  uint public numStoreOwners = 0;\n\n  /** @dev Array of store owners */\n  address[] public storeOwners;\n\n  /** @dev Mapping of store owners to bool. Used to determine if address is new. */\n  mapping(address => bool) public storeOwnersAddress;\n\n  /** @dev Product struct. Contains price and quantity of the product. */\n  struct Product{\n    string name;\n    uint price;\n    uint quantity;\n    string ipfsHash;\n  }\n\n  /** @dev Storefront struct. Contains name of store, image (stored as ipfs hash), funds, and a mapping to its products. */\n  struct StoreFront{\n    string name;\n    string ipfsHash;\n    uint funds;\n    uint numProducts;\n    mapping(string => Product) products;\n  }\n\n  /** @dev Mapping of store owners to number of storefronts. */\n  mapping (address => uint) public numStoreFronts;\n\n  /** @dev Mapping of store owners to a mapping of storefront name to ipfs hash string. */\n  mapping (address => StoreFront[]) public storeFronts;\n\n  /** @dev Emit when a new owner is added. */\n  event EventNewOwner(address indexed _address);\n\n  /** @dev Emit when an owner is deleted. */\n  event EventDeleteOwner(address indexed _address);\n\n  /** @dev Emit when a new storefront is added. */\n  event EventNewStoreFront(string indexed _storeName);\n\n  /** @dev Emit when a storefront is deleted. */\n  event EventDeleteStoreFront(string indexed _storeName);\n \n  /** @dev Emit when a product is added. */\n  event EventAddProduct(string indexed _productName);\n\n  /** @dev Emit when a product is deleted. */\n  event EventDeleteProduct(string indexed _productName);\n\n  /** @dev Emit when a product is bought. */\n  event EventBuyProduct(string indexed _productName);\n  \n  /** @dev Emit when a product is bought. */\n  event EventChangePrice(string indexed _productName);\n  \n  /** @dev Emit when funds are withdrawn from store. */\n  event EventWithdrawFunds(string indexed _storeName);\n\n  /** @dev Modifier that checks to make sure the sender is an admin. */\n  modifier checkAdmin() {\n    require(msg.sender == admin);\n    _;\n  }\n  \n  /** @dev Modifier that checks to make the sender is an owner. */\n  modifier checkOwner() {\n    require(storeOwnersAddress[msg.sender]);\n    _;\n  }\n\n  /** @dev Modifier that checks to make sure owner does not exist already. \n  * @param _address Address to be checked.\n  */\n  modifier checkNewOwner(address _address) {\n    require(!storeOwnersAddress[_address]);\n    _;\n  }\n\n  /** @dev Modifier that checks storefront name is unique. \n  * @param _name Storefront name to be checked.\n  */\n  modifier checkStoreFrontName(string _name) {\n    bool checkName = true;\n    for (uint i = 0; i < numStoreFronts[msg.sender]; i ++) {\n      if (keccak256(abi.encodePacked(storeFronts[msg.sender][i].name)) == keccak256(abi.encodePacked(_name))) {\n        checkName = false;\n        break;\n      }\n    }\n    require(checkName);\n    _;\n  }\n\n  /** @dev Modifier that checks storefront exists for the caller. \n  * @param _index Index of storefront to be checked.\n  */\n  modifier checkStoreFrontExists(uint _index) {\n    require(keccak256(abi.encodePacked(storeFronts[msg.sender][_index].name)) != keccak256(''));\n    _;\n  }\n\n  /** @dev Modifier that checks for integer underflow. */\n  modifier checkIntegerUnderflow(uint _num) {\n    require(_num - 1 < _num);\n    _;\n  }\n\n  /** @dev Constructor function. Sets admin to be the contract owner. */\n  constructor() public {\n    admin = msg.sender;\n  }\n\n  /** @dev Checks to see if caller is admin. */\n  function isAdmin() public view returns(bool) {\n    return admin == msg.sender;\n  }\n  \n  /** @dev Adds an owner to the storeOwners mapping.\n  * @param _address Address to be added as store owner.\n  */\n  function addOwner(address _address) public checkAdmin checkNewOwner(_address) {\n    emit EventNewOwner(_address);\n    numStoreOwners++;\n    storeOwners.push(_address);\n    storeOwnersAddress[_address] = true;\n  }\n\n  /** @dev Deletes an owner from the storeOwners mapping.\n  * @param _index Index of the address to be deleted.\n  */\n  function deleteOwner(uint _index) public checkAdmin {\n    address _address = storeOwners[_index];\n    require (storeOwnersAddress[_address] && numStoreOwners - 1 < numStoreOwners);\n    emit EventDeleteOwner(_address);\n    storeOwnersAddress[_address] = false;\n    delete storeOwners[_index];\n    numStoreOwners--;\n  }\n  \n  /** @dev Add a storefront.\n  * @param _name Storefront name.\n  * @param _ipfsHash Storefront image stored as IPFS hash.\n  */\n  function addStoreFront(string _name, string _ipfsHash) public checkOwner checkStoreFrontName(_name) {\n    emit EventNewStoreFront(_name);\n    storeFronts[msg.sender].push(StoreFront(_name, _ipfsHash, 0, 0));\n    numStoreFronts[msg.sender]++;\n  }\n\n  /** @dev Delete a storefront.\n  * @param _index Index of storefront to be deleted.\n  */\n  function deleteStoreFront(uint _index) public checkOwner checkStoreFrontExists(_index) checkIntegerUnderflow(numStoreFronts[msg.sender]) {\n    string memory _name = storeFronts[msg.sender][_index].name;\n    emit EventDeleteStoreFront(_name);\n    delete storeFronts[msg.sender][_index];\n    numStoreFronts[msg.sender]--;\n  }\n\n  /** @dev Converts uint to string.\n  * @param i Integer to be converted to string.\n  * @return Returns string.\n  */\n  function uint2str(uint i) internal pure returns (string){\n    if (i == 0) return \"0\";\n    uint j = i;\n    uint length;\n    while (j != 0){\n        length++;\n        j /= 10;\n    }\n    bytes memory bstr = new bytes(length);\n    uint k = length - 1;\n    while (i != 0){\n        bstr[k--] = byte(48 + i % 10);\n        i /= 10;\n    }\n    return string(bstr);\n  }\n\n  /** @dev Add a product to storefront.\n  * @param _index Index of storefront where product is to be sold.\n  * @param _name Name of product.\n  * @param _price Price of product.\n  * @param _quantity Quantity of product to be sold.\n  */\n  function addProduct(uint _index, string _name, uint _price, uint _quantity, string _ipfsHash) public checkOwner checkStoreFrontExists(_index) {\n    require(_price > 0 && _quantity > 0);\n    emit EventAddProduct(_name);\n    uint numProducts = storeFronts[msg.sender][_index].numProducts;\n    string memory num = uint2str(numProducts);\n    storeFronts[msg.sender][_index].products[num].name = _name;\n    storeFronts[msg.sender][_index].products[num].price = _price;\n    storeFronts[msg.sender][_index].products[num].quantity = _quantity;\n    storeFronts[msg.sender][_index].products[num].ipfsHash = _ipfsHash;\n    storeFronts[msg.sender][_index].numProducts++;\n  }\n\n  /** @dev Delete product from storefront.\n  * @param _index Index of storefront where product is sold.\n  * @param _num Index of product.\n  */\n  function deleteProduct(uint _index, string _num) public checkOwner checkStoreFrontExists(_index) checkIntegerUnderflow(storeFronts[msg.sender][_index].numProducts){\n    string memory _name = storeFronts[msg.sender][_index].products[_num].name;\n    emit EventDeleteProduct(_name);\n    delete storeFronts[msg.sender][_index].products[_num];\n    storeFronts[msg.sender][_index].numProducts--;\n  }\n\n  /** @dev Get product from storefront.\n  * @param _index Index of storefront where product is to be sold.\n  * @param _num Index of product.\n  */\n  function getProduct(address _address, uint _index, string _num) public view returns (string, uint, uint) {\n    return (storeFronts[_address][_index].products[_num].name, storeFronts[_address][_index].products[_num].price, storeFronts[_address][_index].products[_num].quantity);\n  }\n\n  /** @dev Buy product from storefront.\n  * @param _index Index of storefront where product is to be sold.\n  * @param _num Index of product.\n  */\n  function buyProduct(address _address, uint _index, string _num, uint quantityToBuy) public payable {\n    uint _price = storeFronts[_address][_index].products[_num].price;\n    uint _quantity = storeFronts[_address][_index].products[_num].quantity;\n    uint totalPrice = _price * quantityToBuy;\n    require(msg.value == totalPrice && _quantity - quantityToBuy < _quantity);\n    emit EventBuyProduct(storeFronts[_address][_index].products[_num].name);\n    storeFronts[_address][_index].products[_num].quantity -= quantityToBuy;\n    storeFronts[_address][_index].funds += totalPrice;\n  }\n\n  /** @dev Change the price of the product.\n  * @param _index Index of storefront where product is sold.\n  * @param _num Index of product.\n  * @param newPrice New price of product.\n  */\n  function changePrice(uint _index, string _num, uint newPrice) public checkOwner checkStoreFrontExists(_index) {\n    require(newPrice > 0);\n    emit EventChangePrice(storeFronts[msg.sender][_index].products[_num].name);\n    storeFronts[msg.sender][_index].products[_num].price = newPrice;\n  }\n\n  /** @dev Withdraw funds from store.\n  * @param _index Index of storefront where funds are to be withdrawn from.\n  */\n  function withdrawFunds(uint _index) public checkOwner checkStoreFrontExists(_index) {\n    require(storeFronts[msg.sender][_index].funds > 0);\n    emit EventWithdrawFunds(storeFronts[msg.sender][_index].name);\n    uint storeFunds = storeFronts[msg.sender][_index].funds;\n    storeFronts[msg.sender][_index].funds = 0;\n    msg.sender.transfer(storeFunds);\n  }\n\n  /** @dev Fallback function. */\n  function() public payable{}\n}",
  "sourcePath": "/Users/rshyong/Solidity/online_marketplace/contracts/OnlineMarketplace.sol",
  "compiler": {
    "name": "solc",
    "version": "0.4.24+commit.e67f0147.Emscripten.clang"
  },
  "schemaVersion": "2.0.1",
  "updatedAt": "2018-08-26T03:52:50.757Z"
}