{
  "contractName": "OnlineMarketplace",
  "abi": [
    {
      "inputs": [],
      "payable": false,
      "stateMutability": "nonpayable",
      "type": "constructor"
    },
    {
      "payable": false,
      "stateMutability": "nonpayable",
      "type": "fallback"
    },
    {
      "anonymous": false,
      "inputs": [
        {
          "indexed": true,
          "name": "_address",
          "type": "address"
        }
      ],
      "name": "newOwner",
      "type": "event"
    },
    {
      "constant": false,
      "inputs": [
        {
          "name": "_address",
          "type": "address"
        }
      ],
      "name": "addOwner",
      "outputs": [],
      "payable": false,
      "stateMutability": "nonpayable",
      "type": "function"
    },
    {
      "constant": true,
      "inputs": [],
      "name": "isOwner",
      "outputs": [
        {
          "name": "",
          "type": "bool"
        }
      ],
      "payable": false,
      "stateMutability": "view",
      "type": "function"
    },
    {
      "constant": true,
      "inputs": [],
      "name": "isAdmin",
      "outputs": [
        {
          "name": "",
          "type": "bool"
        }
      ],
      "payable": false,
      "stateMutability": "view",
      "type": "function"
    }
  ],
  "bytecode": "0x608060405234801561001057600080fd5b50336000806101000a81548173ffffffffffffffffffffffffffffffffffffffff021916908373ffffffffffffffffffffffffffffffffffffffff16021790555061027e806100606000396000f300608060405260043610610057576000357c0100000000000000000000000000000000000000000000000000000000900463ffffffff1680637065cb48146100695780638f32d59b146100ac578063b6db75a0146100db575b34801561006357600080fd5b50600080fd5b34801561007557600080fd5b506100aa600480360381019080803573ffffffffffffffffffffffffffffffffffffffff16906020019092919050505061010a565b005b3480156100b857600080fd5b506100c16101a7565b604051808215151515815260200191505060405180910390f35b3480156100e757600080fd5b506100f06101fb565b604051808215151515815260200191505060405180910390f35b8073ffffffffffffffffffffffffffffffffffffffff167f8595245435170930a21ed26c79efd78952513e5f85ae3d411a586ab25df17bb360405160405180910390a260018060008373ffffffffffffffffffffffffffffffffffffffff1673ffffffffffffffffffffffffffffffffffffffff16815260200190815260200160002060006101000a81548160ff02191690831515021790555050565b6000600160003373ffffffffffffffffffffffffffffffffffffffff1673ffffffffffffffffffffffffffffffffffffffff16815260200190815260200160002060009054906101000a900460ff16905090565b60008060009054906101000a900473ffffffffffffffffffffffffffffffffffffffff1673ffffffffffffffffffffffffffffffffffffffff163373ffffffffffffffffffffffffffffffffffffffff16149050905600a165627a7a7230582087b81c9bced34ade9f40c3fda9fe4bbf47a2445136aa38fdda6821a080812f760029",
  "source": "pragma solidity ^0.4.17;\n\ncontract OnlineMarketplace {\n  address private admin;\n\n  /** List of store owners */\n  mapping (address => bool) storeOwners;\n\n  event newOwner(address indexed _address);\n\n  constructor() public {\n    admin = msg.sender;\n  }\n\n  function addOwner(address _address) public {\n    emit newOwner(_address);\n    storeOwners[_address] = true;\n  }\n\n  function isOwner() public view returns(bool) {\n    return storeOwners[msg.sender];\n  }\n\n  function isAdmin() public view returns(bool) {\n    return msg.sender == admin;\n  }\n\n  function() public {\n    revert();\n  }\n}",
  "sourcePath": "/Users/rshyong/Solidity/online_marketplace/contracts/OnlineMarketplace.sol",
  "compiler": {
    "name": "solc",
    "version": "0.4.24+commit.e67f0147.Emscripten.clang"
  },
  "schemaVersion": "2.0.1",
  "updatedAt": "2018-08-22T05:01:17.267Z"
}